:020000040800F2
:1000000018350120F1020008210C00088D090008B4
:100010001D0C0008390700080F130008000000003D
:100020000000000000000000000000003102000895
:100030003D070008000000008D020008BD0F000809
:100040000B0300080B0300080B0300080B03000858
:100050000B0300080B0300080B0300080B03000848
:100060000B0300080B030008410700080B030008FE
:100070000B0300080B0300080B0300080B03000828
:100080000B0300080B0300080B0300080B03000818
:100090000B0300080B0300080B0300080B03000808
:1000A0000B0300080B0300080B0300080B030008F8
:1000B0000B030008591000080B0300080B0300088D
:1000C0000B0300080B0300080B0300080B030008D8
:1000D0000B030008F11000080B0300080B030008D5
:1000E0000B0300080B0300080B0300080B030008B8
:1000F0000B0300080B0300080B0300080B030008A8
:100100000B0300080B030008911000080B03000804
:100110000B0300080B0300080B0300080B03000887
:100120000B0300080B0300080B0300080B03000877
:100130000B0300080B0300080B0300080B03000867
:100140000B0300080B0300080B0300080B03000857
:100150000B0300080B0300080B0300080B03000847
:100160000B0300080B0300080B0300080B03000837
:100170000B0300080B0300080B0300080B03000827
:100180000B0300080B03000800F002F800F041F830
:100190000AA090E8000C82448344AAF10107DA45E2
:1001A00001D100F036F8AFF2090EBAE80F0013F0F3
:1001B000010F18BFFB1A43F0010318473433000046
:1001C00054330000103A24BF78C878C1FAD85207D7
:1001D00024BF30C830C144BF04680C6070470000C1
:1001E0000023002400250026103A28BF78C1FBD840
:1001F000520728BF30C148BF0B607047642900F028
:10020000D980002070471FB503F06CF91FBD10B5F1
:1002100010BD00F05FFA1146FFF7F5FF01F0FCF8A2
:1002200000F07DFA03B4FFF7F2FF03BC01F071F8B0
:100230002C4B19680868B0E8F04F80F30988BFF3C9
:100240006F8F4FF0000080F31188704700000000AE
:1002500008480068006880F308884FF0000080F3C9
:10026000148862B661B6BFF34F8FBFF36F8F00DFA4
:1002700000BF00BF08ED00E0DFF80C00016841F4AA
:1002800070010160704700BF88ED00E0EFF3098066
:10029000BFF36F8F134B1A681EF0100F08BF20EDCD
:1002A000108A20E9F04F106009B44FF0500080F33D
:1002B0001188BFF34F8FBFF36F8F02F073FA4FF0C7
:1002C000000080F3118809BC19680868B0E8F04F95
:1002D0001EF0100F08BFB0EC108A80F30988BFF33E
:1002E0006F8F704744000020EFF3058070470000D7
:1002F0000948804709480047FEE7FEE7FEE7FEE7BA
:10030000FEE7FEE7FEE7FEE7FEE7FEE704480549F5
:10031000054A064B70470000F10F000889010008EC
:10032000182F012018350120183101201831012023
:10033000704700000FB4044910B503AA029800F0FA
:1003400047F910BC5DF814FB2C0000202DE9F041AA
:100350000E460446002020622046E168884730B3FC
:10036000252805D0D4E901219047206A401CF2E7F6
:10037000E168204600278847050018D0A5F1410014
:10038000192802D820354FF4006732462946204606
:100390002760FFF733FF40B1012804D0F61D26F097
:1003A00007060836D8E7361DD6E72846DAE7206A7A
:1003B000BDE8F0812DE9F04106460024106875295A
:1003C000314616A510D0AFF30080002802DA404273
:1003D00013A507E031688A0701D512A502E0490795
:1003E00004D511A5012401E0AFF3008000210A2209
:1003F00006F1240709E0B0FBF2FCB0FBF2F302FBCC
:100400001C00303078541846491C0028F3D123468C
:100410002A463046BDE8F04100F080B800000000F8
:100420002D0000002B00000020000000032A40F2F5
:10043000308010F0030C00F0158011F8013BBCF186
:10044000020F624498BF11F801CB00F8013B38BF9E
:1004500011F8013BA2F1040298BF00F801CB38BFAC
:1004600000F8013B11F0030300F0C480083AC0F02B
:10047000088051F8043B083A51F804CBA0E8081072
:10048000F5E7121D5CBF51F8043B40F8043BAFF3A5
:100490000080D20724BF11F8013B11F801CB48BFFF
:1004A00011F8012B24BF00F8013B00F801CB48BF35
:1004B00000F8012B704702F0FF0343EA032242EAEF
:1004C000024200F0CBB84FF0000200B5134694464C
:1004D0009646203922BFA0E80C50A0E80C50B1F19C
:1004E0002001BFF4F7AF090728BFA0E80C5048BFB0
:1004F0000CC05DF804EB890028BF40F8042B08BF4E
:10050000704748BF20F8022B11F0804F18BF00F849
:10051000012B704770477047704770472DE9F047CF
:100520000D4699469246044600F124080168880663
:1005300004D5E06921F01001216000E00120A8420B
:1005400001DD471B00E00027A1697A1902EB0900D1
:10055000081AA0612078C00602D42046AFF30080BC
:10056000002608E0D4E901211AF806009047206A25
:10057000401C761C20624E45F4DB2078C0060AD56C
:100580002046AFF3008006E0D4E9012130209047F7
:10059000206A401C2062381EA7F10107F4DC07E046
:1005A000D4E9012118F805009047206A401C206218
:1005B000281EA5F10105F3DC2046AFF3008020786A
:1005C000000602D50220BDE8F0870120FBE700000D
:1005D000074B70B50D467B4400F065F8044628468D
:1005E00000F074F810B14FF0FF3070BD204670BDC0
:1005F000230E000010B5203AC0F00B80B1E818506F
:10060000203AA0E81850B1E81850A0E81850BFF4FC
:10061000F5AF5FEA027C24BFB1E81850A0E818509B
:1006200044BF18C918C0BDE810405FEA827C24BFEF
:1006300051F8043B40F8043B08BF7047D20728BF7D
:1006400031F8023B48BF11F8012B28BF20F8023BCC
:1006500048BF00F8012B70474FF000020429C0F09A
:10066000128010F0030C3FF430AFCCF1040CBCF15D
:10067000020F18BF00F8012BA8BF20F8022BA1EB36
:100680000C01FFF722BF5FEAC17C24BF00F8012BF9
:1006900000F8012B48BF00F8012B704701694A1C84
:1006A00002610878704700B58FB0CDE901310021B3
:1006B000059105497944CDE9031011466846FFF7D5
:1006C00045FE0FB000BD0000E5FFFFFF007B00F01E
:1006D00080007047754600F02BF8AE46050069466D
:1006E000534620F00700854618B020B5FFF70EFEF0
:1006F000BDE820404FF000064FF000074FF0000823
:100700004FF0000B21F00701AC46ACE8C009ACE8A3
:10071000C009ACE8C009ACE8C0098D46704710B507
:100720000446AFF300802046BDE81040FFF77ABDD5
:1007300000487047B82E012000BFFEE77047000058
:1007400010B5142000F04EFE10210D4800F013F9F2
:1007500088B90C48006802F0FDFD04460AA0FFF7C6
:10076000E9FD012C07D134B120070F490860BFF320
:100770004F8FBFF36F8F102000F042F810BD0000C4
:10078000001002400C0000202A2A2A2A2ABBD6B8D0
:10079000B44C454431C8CECEF1B5C4D4CBD0D02171
:1007A0002A2A2A2A2A0D0A0004ED00E00EB500F0DC
:1007B00049F90121880300F08BFA0421084600F072
:1007C0000BFB1020009000208DF804000C208DF809
:1007D000050001208DF80600684600F017F80A2091
:1007E0008DF8080006208DF8090000208DF80A0019
:1007F00001208DF80B0002A800F014FA0EBD0000D5
:100800000149086070470000143C01400021234961
:100810008279002A3AD00A46126803689A430B4646
:100820001A600A1D126803689A430B1D1A60027948
:1008300011440A6803681A430A60184A08321268A9
:1008400003689A43154B08331A601A1D126803682F
:100850009A43124B0C331A604279102A0ED11A1F98
:10086000126803681A430D4B08331A601A1D126888
:1008700003681A43094B0C331A600DE007494279AB
:1008800011440A6803681A430A6005E002791144BA
:100890000A6803689A430A6070470000003C014000
:1008A000F0B50A4600210023002400BF3DE00125E9
:1008B00005FA01F3156805EA03049C4234D1056882
:1008C0004F000326BE40B543056015794E00B54084
:1008D0000668354305601579012D02D01579022D82
:1008E00016D185684F000326BE40B5438560557913
:1008F0004E00B540866835438560456801268E40C8
:10090000B5434560456896798E40B6B2354345603B
:10091000C5684F000326BE40B543C560D5794E007B
:10092000B540C6683543C560491C1029BFD3F0BD2A
:10093000F0B5002300244D07ED0E02FA05F3CE10AA
:1009400000F1200555F826504E07F70E0F26BE4041
:10095000B543CF1000F1200646F82750CE1000F125
:10096000200555F8265045EA0304CE1000F1200575
:1009700045F82640F0BD0246002013690B400BB13C
:10098000012000E0002070470183704700BFFEE7B0
:1009900026E0002000F078F80446012C04D0022C58
:1009A0000AD0042C18D10FE00E48006801F078FE40
:1009B0000DA0FFF7BFFC0FE00A48006801F0DEFD64
:1009C00010A0FFF7B7FC07E01648006801F068FECA
:1009D00015A0FFF7AFFC00BF00BF0A2001F0D8FC54
:1009E000D7E70000080000202A2A2A2A2A4C45447A
:1009F00030C8CECEF1B1BBB9D2C6F02A2A2A2A2AF3
:100A00000A0D00002A2A2A2A2A4C454430C8CECE94
:100A1000F1BBD6B8B4D4CBD0D02A2A2A2A2A0A0DC0
:100A2000000000000C0000202A2A2A2A2A4C4544F3
:100A300031C8CECEF1B1BBB9D2C6F02A2A2A2A2AB1
:100A40000A0D00001CB50121112000F031F91C2015
:100A5000009000208DF8040003208DF8050001208F
:100A60008DF8070069460648FFF71AFF012000903D
:100A700002208DF8070069460248FFF711FF1CBDF0
:100A8000001002400000024010B5044614B10120DD
:100A90002C4908702B480078002837D010212A48AC
:100AA000FFF769FF78B108212748FFF764FF50B1CD
:100AB00004212548FFF75FFF28B101212348FFF7F4
:100AC0005AFF012822D10A2000F048FC00201D49CD
:100AD000087010211C48FFF74EFF08B9012010BD17
:100AE00008211948FFF747FF08B90220F7E704215A
:100AF0001548FFF740FF08B90320F0E7012113482C
:100B0000FFF739FF01281BD10420E8E710210E4828
:100B1000FFF731FF012813D108210B48FFF72BFF06
:100B200001280DD104210848FFF725FF012807D12E
:100B300001210648FFF71FFF10B901200149087085
:100B40000020CCE7240000200010024000000240FA
:100B5000002411E0601C84B20848006808B9012034
:100B600000E00020054908604FF47A7001F010FCA5
:100B7000214603A0FFF7DEFBECE7000098024042AD
:100B80004C454430C8CECEF1D6B4D0D02025642018
:100B9000B4CE0A0D00000000002411E0601C84B2F5
:100BA0000848006808B9012000E0002005490860F5
:100BB0004FF47A7001F0ECFB214603A0FFF7BAFB7B
:100BC000ECE700009C0240424C454431C8CECEF1D7
:100BD000D6B4D0D020256420B4CE0A0D0000000089
:100BE0001CB50121084600F063F8C02000900120E8
:100BF0008DF8040000208DF8060003208DF8050014
:100C000001208DF8070069460348FFF749FEC0211F
:100C10000148FFF7B9FE1CBD0000024000BFFEE71F
:100C20007047000070B5002100230F22C4781CB368
:100C3000174C246804F4E064C4F5E064C4F30721AD
:100C4000C1F10404E3B20A4144789C40E1B28478E3
:100C5000144021430C07210E0E4C05786155047891
:100C600004F01F050124AC4005786D11AD0005F1BD
:100C7000E025C5F8004109E0047804F01F050124CF
:100C8000AC40054D0678761145F8264070BD000051
:100C90000CED00E000E400E080E100E002490143E7
:100CA000024A1160704700000000FA050CED00E0F8
:100CB00029B1064A12680243044B1A6004E0034A51
:100CC00012688243014B1A607047000030380240BE
:100CD00029B1064A12680243044B1A6004E0034A31
:100CE00012688243014B1A6070470000443802408A
:100CF000F0B5002100220024022500260223324FF5
:100D00003F6807F00C0121B1042905D0082937D12B
:100D100005E02E4F076036E02D4F076033E02A4F85
:100D20003F1F3F68C7F38056274F3F1F3F6807F0BC
:100D30003F036EB1264FB7FBF3F7DFF88CC0ACF181
:100D4000040CDCF800C0CCF3881C07FB0CF40CE0AE
:100D50001E4FB7FBF3F7DFF870C0ACF1040CDCF802
:100D600000C0CCF3881C07FB0CF4174F3F1F3F68F3
:100D7000C7F301477F1C7D00B4FBF5F7076002E075
:100D8000124F076000BF00BF0F4F3F6807F0F00130
:100D90000909104F7A5C0768D74047600A4F3F68DF
:100DA00007F4E051890A0B4F7A5C4768D7408760A7
:100DB000054F3F6807F46041490B064F7A5C47686E
:100DC000D740C760F0BD0000083802400024F4009E
:100DD00000127A003200002030B500228B071C0F71
:100DE0000F2303FA04F20B4B8C1053F82430934377
:100DF000084C8D1044F8253023468C1053F82430CD
:100E00008C07240F00FA04F42343024C8D1044F89D
:100E1000253030BD083801400CB50020019000900D
:100E20003448006840F480303249086000BF3148DF
:100E3000006800F4003000900198401C0190009878
:100E400018B90198B0F5A04FF1D12A48006800F414
:100E5000003010B10120009001E0002000900098C7
:100E6000012846D123484030006840F08050214995
:100E7000403108602048006840F440401E49086046
:100E80001C48083000681B490831086008460068A3
:100E900040F4004008600846006840F4A050086034
:100EA0001648091F0860081F006840F08070091F7D
:100EB000086000BF0F48006800F000700028F9D0FB
:100EC00040F205700E4908600A480830006820F0BA
:100ED00003000849083108600846006840F0020035
:100EE000086000BF03480830006800F00C000828C4
:100EF000F8D10CBD00380240007000400854400793
:100F0000003C02401CB5044601F01CF912480321C4
:100F100000238022CDE9001010A1124801F0FEFF4D
:100F20001148032100238022CDE900100FA11248AF
:100F300001F0F4FF1148042100238022CDE90010C4
:100F40000FA1124801F0EAFF1148006801F04EFAC3
:100F500001F022F91CBD0000040000204B4559544B
:100F600061736B0091090008080000204C45443073
:100F70005461736B00000000510B00080C0000204E
:100F80004C4544315461736B00000000990B00081C
:100F900000000020042808D14FF0E021096941F049
:100FA00004014FF0E022116107E04FF0E0210969F0
:100FB00021F004014FF0E0221161704710B500BF2D
:100FC000502080F31188BFF34F8FBFF36F8F00BFA6
:100FD00001F0EAFF18B14FF080500449086000BFEB
:100FE000002080F3118800BF10BD000004ED00E078
:100FF00010B51548006840F47000134908601348A4
:10100000006840F001001149086000200F490831D4
:1010100008600E4800680E4908400C4908600D48F9
:10102000091D0860081F006820F48020091F08605F
:10103000002006490C310860FFF7EEFE4FF000601B
:1010400001498039086010BD88ED00E00038024099
:10105000FFFFF6FE1030002410B50121064800F015
:1010600036F8012802D105A0FFF764F901210248F2
:1010700000F02AF810BD00000004004054494D3330
:10108000CAE4B3F62E2E2E2E2E2E2E0D0A000000B0
:1010900010B50121064800F01AF8012802D105A078
:1010A000FFF748F90121024800F00EF810BD0000DA
:1010B000000C004054494D35CAE4B3F62E2E2E2EB6
:1010C0002E2E2E0D0A000000CA430282704730B552
:1010D0000246002000230024158A05EA01039589B1
:1010E00005EA010413B10CB1012000E0002030BD7D
:1010F00010B540F225511D4800F04AF810B31B48C6
:1011000000F000F9C4B21A48008800F40040C8B9E1
:101110001748008800F4804060B10A2C03D00020FA
:101120001349088020E01248008840F4004010492C
:10113000088019E00D2C06D10D48008840F480404D
:101140000B49088010E00A480088C0F30D000949E7
:101150000C5407480088401C054908800846008850
:10116000C72801DD0020088010BD000000100140EC
:1011700030000020C000002021B1828942F40052DA
:10118000828104E082894DF6FF731A4082817047A4
:1011900070B50246002400230025002040F66A16A0
:1011A000B14200D100BFC1F3421501F01F03012677
:1011B00006FA03F3012D02D19689334006E0022D91
:1011C00002D1168A334001E0968A33400C12012680
:1011D00006FA04F41688344013B10CB1012000E083
:1011E000002070BDF0B50346002400260025002035
:1011F00040F66A17B94200D100BF1846C1F3421445
:1012000001F01F06012707FA06F5012C01D10C3069
:1012100004E0022C01D1103000E014301AB107684C
:101220002F43076002E00768AF430760F0BD00008E
:101230002DE9FF4705460E460024A14600BFA04603
:10124000B08900B100BF2C8A24F44054F0880443D4
:101250002C82AC8941F20C608443B0883189084308
:10126000718908430443AC81AC8A24F44074B0898A
:101270000443AC826846FFF73BFD2048854202D01C
:101280001F48854202D1DDF80C9001E0DDF808909E
:10129000A88900F4004040B109EBC90000EB091037
:1012A00031684900B0FBF1F707E009EBC90000EB3A
:1012B000091031688900B0FBF1F76420B7FBF0F04A
:1012C00004012009642101FB1078A88900F4004082
:1012D00040B1322000EBC800B0FBF1F000F0070095
:1012E000044308E0322000EB08106421B0FBF1F069
:1012F00000F00F0004432C81BDE8FF87001001407F
:101300000014014001468888C0F30800704700BF00
:10131000FEE700BF7047000070B504460420FFF7E9
:1013200039FE0C48047025464FF47A70454301207D
:10133000094908804FF0E020006940F002004FF0BA
:10134000E021086108464561006940F0010008613C
:1013500070BD0000260000202800002070B5044663
:1013600001F00CFE012810D00B480088844206D3FF
:1013700009480088B4FBF0F5284601F009F8064852
:101380000088B4FBF0F100FB11444FF47A7104FBC8
:1013900001F000F003F870BD2800002070B503468E
:1013A00000224FF0E02675690D4E367803FB06F4F7
:1013B0004FF0E026B16910E04FF0E026B0698842B6
:1013C0000BD0884202D20E1A324402E02E1A0E448A
:1013D00032440146A24200D300E0EDE700BF70BDF9
:1013E0002600002030B50446002504E04FF47A7052
:1013F000FFF7D4FF6D1CA542F8D330BD00BF054AEE
:10140000128802F04002002AF9D0C2B2014B9A8041
:1014100070470000001001401CB54FF44070FFF70A
:101420003DFCA820FFF778FF4FF4E13000F0EAFD23
:10143000FFF7D6FBFFF706FBFFF7B8F906480121D7
:1014400000238022CDE9001004A1074801F066FDC9
:1014500001F0DCF800201CBD000000205374617214
:10146000745461736B000000050F00082DE9F04112
:1014700005460E461C4807681C480068001D00F021
:1014800017FE50B91948006890F82C1001208840C8
:1014900017490968814316480160681C38B936B19C
:1014A00012480168091D134800F040FE1AE07C193B
:1014B0000E4800684460BC4207D20C480168091D10
:1014C0000D48006800F018FE0CE008480168091D8E
:1014D0000A48006800F010FE09480068844201D202
:1014E00007480460BDE8F081580000204400002057
:1014F0005C0000207C0200204C00002048000020FE
:101500007400002010B5044600F01CFE244800685A
:10151000401C234908602348006840B92148046002
:101520000846006801280DD100F0D6F90AE01E48EF
:10153000006838B91B480068C06AE16A884201D86F
:101540001848046019480068401C1849086008469B
:101550000068206494F82C10012088401449096820
:10156000084313490860E16A01EB8101114A02EB6B
:101570008100211D00F0DAFD00F00EFE0A4800682F
:1015800068B108480068C06AE16A884207D24FF033
:10159000805009490860BFF34F8FBFF36F8F10BDB4
:1015A0005400002044000020600000207000002053
:1015B0005C000020C801002004ED00E010B500F040
:1015C000C1FD10480068D0B90F4800F085FD0F48F4
:1015D00000F082FD0C480E4908600C480D49086077
:1015E00000220C210A2001F0D7F9064908600846BC
:1015F000006820B108A10348006800F08DFE00F0EB
:10160000CBFD10BD8800002090020020A402002025
:101610008000002084000020546D72510000000002
:1016200010B516E000F08EFD0C48C068C468201D9F
:1016300000F03EFD0A480068401E0949086009485C
:101640000068401E0749086000F0A6FD204600F033
:101650005FF8044800680028E4D110BD680200204B
:10166000540000205000002070B504460D46206C48
:1016700070B1216CE0680144E160D4E90210884255
:1016800001D32168E1602846226CE168FEF7CEFEB6
:1016900070BD2DE9F04104460F4615464FF0000895
:1016A000A66B206C48B9206800282CD1A06801F0F6
:1016B0001FFD80460020A06025E07DB93946226CE0
:1016C0006068FEF7B3FE216C606808446060D4E98E
:1016D0000101884217D32068606014E03946226C0B
:1016E000E068FEF7A3FE216CE068411AE160216822
:1016F000E068884203D2216CA068411AE160022DA3
:1017000001D106B1761E701CA0634046BDE8F08191
:1017100010B50446206B00F05DFD204600F05AFD38
:1017200010BD00000146084A126812680AB9012279
:1017300000E000220A600A6822B9034A1268D268EF
:10174000106800E0002070478000002030B54FF4A2
:101750009633174800F007042CB1C01D20F0070095
:10176000134C041B1B1B0246124C22600024114D1B
:101770006C60D018083820F007000F4C206000245F
:101780000D4D2D686C600C4D2D682C601146441A6F
:101790004C60094C24680C60084D4C682C60084D66
:1017A0004C682C604FF00044064D2C6030BD0000AA
:1017B000B8020020A0000020A8000020B0000020F7
:1017C000AC000020BC00002000BFFFF729FF064846
:1017D00000680128F9D94FF0805004490860BFF330
:1017E0004F8FBFF36F8FF0E7C801002004ED00E0DA
:1017F0002DE9F04106460D4617469846069C0DB960
:10180000246000E02760E66325640121204601F0A2
:10181000EDF884F84C80BDE8F0812DE9F05F824658
:101820000E4690469B460A9F0C9C4FEA8801A522D3
:10183000206BFEF740FEA8F10100216B01EB80094F
:1018400029F0070909F0070008B9012000E000208D
:1018500050B900BF502080F31188BFF34F8FBFF302
:101860006F8F00BF00BFFEE786B1002507E0715D06
:1018700004F134004155705D00B902E06D1C0A2D81
:10188000F5D300BF00213D20015502E0002084F87F
:101890003400052F00D30427E762A7640020E0642A
:1018A000201D00F026FC04F1180000F022FC246149
:1018B000C7F10500A06164620020206584F854002F
:1018C0005A465146484600F087FB20600B9808B105
:1018D0000B980460BDE8F09F10B5002407E004EB0E
:1018E00084010F4A02EB810000F0F6FB641C052C1A
:1018F000F5D30C4800F0F0FB0B4800F0EDFB0B4873
:1019000000F0EAFB0A4800F0E7FB0A4800F0E4FBBD
:1019100004480949086004480849086010BD0000EF
:10192000C80100202C0200204002002054020020A8
:10193000680200207C020020480000204C000020AB
:1019400010B50146164800E0006803688B42FBD3DF
:101950000246436813448B4204D143684C682344D5
:10196000436001460A464B6813440468A34211D100
:101970000C4C03682468A34208D04B680468646870
:1019800023444B6003681B680B6005E0054B1B6834
:101990000B6001E003680B60884200D0016010BD5D
:1019A000A0000020A80000202DE9F04104460D46CB
:1019B00016461F464FF0000865602461B5420CD8FA
:1019C000F01BA169884202D34FF0010811E0211DEC
:1019D0000948006800F090FB0BE0BE4204D2BD4213
:1019E00002D34FF0010804E0211D0448006800F014
:1019F00083FB4046BDE8F081840000208000002089
:101A000070B5054600F09EFBA86B08B9012400E004
:101A1000002400F0C1FB204670BD70B5054600F003
:101A200091FBA86BE96B884201D1012400E00024FE
:101A300000F0B2FB204670BDF8B505460F461A48C7
:101A40000068C068C468201D00F032FB94F82800CC
:101A500000F00400E8B1A06941192B463A4620463F
:101A6000FFF7A2FFD8B1002003462A4601460090A6
:101A7000204601F0F5FC064656B900BF502080F321
:101A80001188BFF34F8FBFF36F8F00BF00BFFEE71A
:101A900005E094F8280020F0010084F82800204692
:101AA000216A8847F8BD00008000002070B586B02C
:101AB0008BE003980028FBDB059C606908B90120D6
:101AC00000E0002010B9201D00F0F2FA02A800F09A
:101AD000DDF8054603980A2875D2DFE800F009050D
:101AE0000739416306083A4200BF00BF00BF00BF8C
:101AF00094F8280040F0010084F828000498A269B6
:101B0000811803462A462046FFF74EFFF8B12046CB
:101B1000216A884794F8280000F00400B8B100203A
:101B200000900498A169421800231946204601F04C
:101B300097FC064656B900BF502080F31188BFF3CA
:101B40004F8FBFF36F8F00BF00BFFEE700BF3BE0CA
:101B500000BF94F8280020F0010084F8280033E04A
:101B600000BF94F8280040F0010084F82800049891
:101B7000A061A06908B1012000E0002050B900BFB9
:101B8000502080F31188BFF34F8FBFF36F8F00BFDA
:101B900000BFFEE7A06941192B462A462046FFF701
:101BA00003FF11E094F8280000F0020018B9204665
:101BB00000F010FB05E094F8280020F0010084F804
:101BC000280001E0FFE700BF00BF002203A904488E
:101BD000006801F0A9F800287FF46BAF06B070BD73
:101BE00088000020F8B505460C4600F0D3FD684695
:101BF00000F04CF80646009820BB44B9B54206D820
:101C000001F026FB31462846FFF716FF1CE03CB1E9
:101C10000E480068006808B9012000E00020044672
:101C2000A91B22460A48006800F08CFB01F010FB5B
:101C300050B94FF0805007490860BFF34F8FBFF392
:101C40006F8F01E001F004FBF8BD0000840000206C
:101C50008800002004ED00E00A490968096809B914
:101C6000012100E0002121B14FF0FF31064A11604F
:101C700006E004490968C968C868034A41681160F8
:101C800070470000480000207400002070B5044632
:101C900001F084F9054607480068854204D200F047
:101CA0000BF80120206001E0002020600148056061
:101CB000284670BD900000202DE9F84334E0254807
:101CC0000068C068056823480068C068C468201DB3
:101CD00000F0EEF92046216A884794F8280000F0C9
:101CE000040008B3A0694619AE4207D966602461B2
:101CF000211D1848006800F0FFF915E00020034698
:101D00002A4601460090204601F0AAFB074657B933
:101D100000BF502080F31188BFF34F8FBFF36F8F48
:101D200000BF00BFFEE700BF0A480068006808B9AE
:101D3000012000E000200028C1D00648D0F8008033
:101D400005480068034908600348C0F80080BDE802
:101D5000F883000080000020840000200E48006806
:101D6000401C08B9012000E0002050B900BF5020FD
:101D700080F31188BFF34F8FBFF36F8F00BF00BF99
:101D8000FEE700BF502080F31188BFF34F8FBFF3F1
:101D90006F8F00BF00BFFEE79400002010B5024621
:101DA0000020114652B900BF502383F31188BFF3BE
:101DB0004F8FBFF36F8F00BF00BFFEE70B4C4B6927
:101DC000A34201D1012300E0002373B1084C8B6AC8
:101DD000A34201D1012300E0002333B98B6A0BB980
:101DE000012300E0002303B1012010BD7C0200208C
:101DF0005402002008B500BF6846FFF793FC044674
:101E000020460099FFF7EEFEFFF750FEF4E770B5AD
:101E1000044600F097F994F9455010E0606A08B95B
:101E2000012000E0002038B904F1240001F0C4F9D9
:101E300018B100F061FB00E003E0681E45B2002D20
:101E4000ECDC00BFFF2084F8450000F0A5F900F0AD
:101E500079F994F9445010E0206908B9012000E0B4
:101E6000002048B904F1100001F0A6F908B100F013
:101E700043FB681E45B200E001E0002DECDC00BF32
:101E8000FF2084F8440000F087F970BD2DE9F0418F
:101E900004464FF0000800F07DFC4948006808B98E
:101EA000FFF754FC474800682040002870D1D4B1A7
:101EB000083404F00700B0B104F00700C0F10800D6
:101EC000044404F0070008B9012000E0002050B9E4
:101ED00000BF502080F31188BFF34F8FBFF36F8F87
:101EE00000BF00BFFEE7002C52D037480068844294
:101EF0004ED8364E3046056801E02E462D6868689B
:101F0000A04202D228680028F7D12D4800688542F7
:101F10003ED0306800F10808286830606868001B0F
:101F2000102819D92F1907F0070008B9012000E07F
:101F3000002050B900BF502080F31188BFF34F8FAD
:101F4000BFF36F8F00BF00BFFEE76868001B7860BB
:101F50006C603846FFF7F4FC1B4968680968081A8A
:101F6000194908600846006819490968884203D27F
:101F700015480068164908601249686809680843EE
:101F800068600020286013480068401C1149086000
:101F900001F05EF908F0070008B9012000E0002018
:101FA00050B900BF502080F31188BFF34F8FBFF3AB
:101FB0006F8F00BF00BFFEE74046BDE8F081000024
:101FC000A8000020BC000020AC000020A0000020E1
:101FD000B0000020B4000020001F4FF080730360A9
:101FE000001F21F001030360001F054B036014383C
:101FF0000260001F6FF0020303602038704700008A
:102000005D1D000810B588B0044601210846FEF7A2
:102010004FFE01211020FEF75BFE07220921224816
:10202000FEF786FC07220A211F48FEF781FC4FF4C9
:10203000C060069002208DF81C008DF81D00002065
:102040008DF81E0001208DF81F0006A91648FEF726
:1020500027FC02940020ADF80C00ADF80E00ADF89E
:102060001000ADF814000C20ADF8120002A90F48C2
:10207000FFF7DEF801210D48FFF77EF8012240F25C
:1020800025510A48FFF7AEF825208DF804000320FB
:102090008DF805008DF8060001208DF8070001A8D5
:1020A000FEF7C0FD08B010BD000002400010014066
:1020B00001460A69D1E901309860D1E9010358600D
:1020C0005068884201D1886850600020086110681B
:1020D000401E10601068704700F1080141604FF029
:1020E000FF31816000F10801C160016100210160E0
:1020F000704700210161704710B502460B685C1CF7
:102100000CB9106907E002F1080000E0406844687B
:1021100024689C42FAD944684C604C68A16088608D
:1021200041600A611468641C146010BD42684A6012
:1021300093688B60936859609160086103685B1CC9
:102140000360704700BF502080F31188BFF34F8FAA
:10215000BFF36F8F00BF0E480068401C0C49086039
:1021600008460068012812D10A480068C0B208B9C0
:10217000012000E0002050B900BF502080F31188FA
:10218000BFF34F8FBFF36F8F00BF00BFFEE77047F5
:102190009400002004ED00E00D48006850B900BF35
:1021A000502080F31188BFF34F8FBFF36F8F00BFB4
:1021B00000BFFEE706480068401E05490860084663
:1021C000006820B9002080F3118800BF00BF70476D
:1021D0009400002070B506463546002E44D0083DD8
:1021E0002C46224960680968084008B1012000E0D7
:1021F000002050B900BF502080F31188BFF34F8FEB
:10220000BFF36F8F00BF00BFFEE7206808B9012051
:1022100000E0002050B900BF502080F31188BFF3C8
:102220004F8FBFF36F8F00BF00BFFEE70F4960689D
:1022300009680840C0B12068B0B90C4960680968F5
:102240008843606000F0A6FA09496068096808449C
:10225000074908602046FFF773FB06480068401CEA
:102260000449086000F0F4FF70BD0000BC000020CD
:10227000AC000020B800002000204FF0E0210861F1
:102280008861064800684FF47A71B0FBF1F0401E97
:102290004FF0E021486107200861704710000020DE
:1022A00070B5FEF721F80446102C16D304F1E02097
:1022B00090F8F05315480078854201DB012000E0DA
:1022C000002050B900BF502080F31188BFF34F8F1A
:1022D000BFF36F8F00BF00BFFEE70D48006800F43A
:1022E000E0600C490968884201D8012000E0002024
:1022F00050B900BF502080F31188BFF34F8FBFF358
:102300006F8F00BF00BFFEE770BD00009800002087
:102310000CED00E09C000020024600200BE0084B82
:1023200053F8303033B9064B43F8301003EBC00399
:102330005A6002E0401C0828F1D300BF704700003B
:10234000880100202DE9F04105460E4617462C462F
:10235000FFF7F8FE94F94400401C10B9002084F8FF
:10236000440094F94500401C10B9002084F8450051
:10237000FFF712FFA06B28B93A46314604F124005A
:1023800000F0DCF82046FFF742FDBDE8F0810000D8
:1023900070B504460025D4B11248006808B9012080
:1023A00000E0002050B900BF502080F31188BFF337
:1023B0004F8FBFF36F8F00BF00BFFEE700F0EAF959
:1023C00000212046FFF752F800F042FF05463DB9D4
:1023D0004FF0805004490860BFF34F8FBFF36F8FF9
:1023E00070BD00007C00002004ED00E070B50546E3
:1023F000FFF7A8FE15B93048006800E028460446FB
:10240000201DFFF755FE78B9E06A00EB80002B49EC
:1024100051F8200040B994F82C1001208840284938
:102420000968814326480160A06A18B104F11800C8
:10243000FFF73EFE23480068401C224908601E4802
:102440000068844209D1211D1F48FFF76FFE1F4815
:102450000068401C1D49086009E01D480068401ED6
:102460001B4908602046FFF753F9FFF7F5FBFFF71C
:1024700093FE18480068E8B10F480068844219D1FB
:102480001548006808B9012000E0002050B900BFDD
:10249000502080F31188BFF34F8FBFF36F8F00BFC1
:1024A00000BFFEE74FF080500C490860BFF34F8F2C
:1024B000BFF36F8F70BD000044000020C8010020F2
:1024C0005C00002070000020680200205000002006
:1024D00054000020600000207C00002004ED00E09B
:1024E00003490968016003490968416070470000B9
:1024F0006C0000205800002001200149086070474E
:102500006800002070B504460D4654B900BF502045
:1025100080F31188BFF34F8FBFF36F8F00BF00BFF1
:10252000FEE70548016818312046FFF7E5FD012167
:102530002846FEF79BFF70BD4400002070B505469D
:102540000E46144655B900BF502080F31188BFF3E2
:102550004F8FBFF36F8F00BF00BFFEE706480168D3
:1025600018312846FFF7E2FD0CB14FF0FF36214647
:102570003046FEF77BFF70BD4400002070B5054675
:102580002C4655B900BF502080F31188BFF34F8F00
:10259000BFF36F8F00BF00BFFEE71848006884429A
:1025A0002BD054B3FFF7CEFD2046FFF7F7FB10B357
:1025B000201DFFF77DFD94F82C1001208840104964
:1025C000096808430E490860E16A01EB81010D4A80
:1025D00002EB8100211DFFF7A9FD0849E06A0968A7
:1025E000C96A884207D34FF0805007490860BFF39B
:1025F0004F8FBFF36F8FFFF7CFFD70BD44000020FA
:102600005C000020C801002004ED00E01CB51D485E
:1026100000210B468222CDE900101BA11C4800F0CE
:102620007DFC0446012C02D100F0EEFE0446012C94
:1026300015D100BF502080F31188BFF34F8FBFF337
:102640006F8F00BF4FF0FF30124908600120124920
:10265000086000201149086000F0EAF810E0601CF2
:1026600008B1012000E0002050B900BF502080F3E5
:102670001188BFF34F8FBFF36F8F00BF00BFFEE71E
:102680001CBD00007800002049444C4500000000BB
:10269000C9170008740000206000002058000020C6
:1026A00070B50546FFF74EFD15B93248006800E0E9
:1026B00028460446201DFFF7FBFC78B9E06A00EBD2
:1026C00080002D4951F8200040B994F82C100120C9
:1026D00088402A490968814328480160A06A18B1E6
:1026E00004F11800FFF7E4FC211D2548FFF71EFD4B
:1026F00094F85400012802D1002084F85400FFF718
:102700004BFD2048006828B1FFF71CFDFFF7A4FA35
:10271000FFF742FD17480068844229D11948006834
:10272000D0B11948006808B9012000E0002050B974
:1027300000BF502080F31188BFF34F8FBFF36F8F1E
:1027400000BF00BFFEE74FF0805010490860BFF3A4
:102750004F8FBFF36F8F0BE0094800680C49096881
:10276000884203D100200349086001E000F01AF814
:1027700070BD000044000020C80100205C00002063
:102780007C020020600000207C00002004ED00E0BE
:102790005400002002480068401C0149086070474E
:1027A0007C0000201D48006818B101201C49086009
:1027B00032E000201A4908601A480068B0FA80F038
:1027C000C0F11F0101EB8100174A52F8200008B147
:1027D000012000E0002050B900BF502080F3118894
:1027E000BFF34F8FBFF36F8F00BF00BFFEE701EB5A
:1027F00081020D4B03EB820042685268426000F197
:1028000008024368934202D14268526842604268BB
:10281000D268064B1A6000BF704700007C000020A1
:10282000680000205C000020C80100204400002057
:102830001CB5524800685249884201D0012000E08E
:10284000002050B900BF502080F31188BFF34F8F94
:10285000BFF36F8F00BF00BFFEE7484800684849DC
:10286000491E884201D0012000E0002050B900BF7D
:10287000502080F31188BFF34F8FBFF36F8F00BFDD
:1028800000BFFEE73F49084600780190FF200A4656
:1028900010700846007800909DF8000000F0F000ED
:1028A0009DF80020904201D1012000E0002050B9A5
:1028B00000BF502080F31188BFF34F8FBFF36F8F9D
:1028C00000BF00BFFEE79DF8000000F050002E4A58
:1028D000107007202D4A106009E02C480068401E47
:1028E0002A4A10609DF800004006000E00909DF8F6
:1028F000000000F080008028EFD024480068C0F17C
:102900000700042801D1012000E0002050B900BFD9
:10291000502080F31188BFF34F8FBFF36F8F00BF3C
:1029200000BFFEE7194800680002184A1060104610
:10293000008800F4E0601060124A019810700F489F
:102940002030006840F470000C49203108600846CF
:10295000006840F070400860FFF78EFC00200C49D2
:102960000860FDF789FC0B48006840F040400949C9
:102970000860FDF76DFC00201CBD000000ED00E0CC
:1029800071C20F4100E400E0980000209C0000208C
:102990009400002034EF00E02DE9F84305460E4690
:1029A00017460DB1012000E0002050B900BF5020B3
:1029B00080F31188BFF34F8FBFF36F8F00BF00BF4D
:1029C000FEE705FB06F808F15000FFF75FFA044642
:1029D0004CB1A14609F150093B464A4631462846CA
:1029E0000094FEF705FF2046BDE8F88370B5054664
:1029F0000E462C4654B900BF502080F31188BFF317
:102A00004F8FBFF36F8F00BF00BFFEE7FFF79AFB4A
:102A1000D4E90F12206801FB0200A0600020A0632F
:102A200020686060E06B401E226C216800FB021190
:102A3000E160FF2084F8440084F845009EB92069D5
:102A400008B9012000E00020A8B904F1100000F04E
:102A5000B3FB80B14FF0805009490860BFF34F8F3E
:102A6000BFF36F8F07E004F11000FFF735FB04F1AF
:102A70002400FFF731FBFFF78FFB012070BD000042
:102A800004ED00E02DE9FF4383B0064688461D466D
:102A90004FF00009344654B900BF502080F311882C
:102AA000BFF34F8FBFF36F8F00BF00BFFEE7B8F1DA
:102AB000000F01D1206C08B9012000E0002050B9BE
:102AC00000BF502080F31188BFF34F8FBFF36F8F8B
:102AD00000BF00BFFEE7022D02D1E06B012801D14B
:102AE000012000E0002050B900BF502080F3118881
:102AF000BFF34F8FBFF36F8F00BF00BFFEE700F043
:102B00003DFA08B9059808B9012000E0002050B945
:102B100000BF502080F31188BFF34F8FBFF36F8F3A
:102B200000BF00BFFEE700BFFFF70CFBA06BE16B2F
:102B3000884201D3022D28D12A4641462046FEF77D
:102B4000A8FD0746606A08B9012000E0002068B9C6
:102B500004F1240000F030FB88B14FF0805032497E
:102B60000860BFF34F8FBFF36F8F08E03FB14FF0A6
:102B700080502D490860BFF34F8FBFF36F8FFFF771
:102B80000BFB012007B0BDE8F083059818B9FFF7EB
:102B900003FB0020F6E7B9F1000F04D101A8FFF70D
:102BA0009FFC4FF00109FFF7F7FAFFF7F3FDFFF77E
:102BB000C9FA94F94400401C10B9002084F844007C
:102BC00094F94500401C10B9002084F84500FFF737
:102BD000E3FA05A901A800F05BF9F0B92046FEF779
:102BE0001CFFA0B104F110000599FFF78BFC2046F3
:102BF000FFF70DF900F02CFB002895D14FF0805025
:102C000009490860BFF34F8FBFF36F8F8CE72046F1
:102C1000FFF7FDF800F01CFB86E72046FFF7F7F80A
:102C200000F016FB0020ADE704ED00E02DE9F84FC1
:102C300007468A4690461E463C4654B900BF50207F
:102C400080F31188BFF34F8FBFF36F8F00BF00BFBA
:102C5000FEE7BAF1000F01D1206C08B9012000E0B5
:102C6000002050B900BF502080F31188BFF34F8F70
:102C7000BFF36F8F00BF00BFFEE7022E02D1E06BF3
:102C8000012801D1012000E0002050B900BF5020F0
:102C900080F31188BFF34F8FBFF36F8F00BF00BF6A
:102CA000FEE7FFF7FDFA00BF5021EFF3118081F33B
:102CB0001188BFF34F8FBFF36F8F00BF0546A06B26
:102CC000E16B884201D3022E25D194F945B0A06B67
:102CD0000090324651462046FEF7DBFC0BF1010026
:102CE00088B9606A08B9012000E0002050B904F1F9
:102CF000240000F061FA28B1B8F1000F02D00120E1
:102D0000C8F8000004E00BF1010040B284F845006F
:102D10004FF0010901E04FF0000900BF85F3118871
:102D200000BF4846BDE8F88F2DE9F74183B005465E
:102D30000E464FF000082C4654B900BF502080F3D7
:102D40001188BFF34F8FBFF36F8F00BF00BFFEE747
:102D50000EB9206C08B9012000E0002050B900BF76
:102D6000502080F31188BFF34F8FBFF36F8F00BFE8
:102D700000BFFEE700F002F908B9059808B9012084
:102D800000E0002050B900BF502080F31188BFF34D
:102D90004F8FBFF36F8F00BF00BFFEE700BFFFF78D
:102DA000D1F9A76BF7B131462046FEF75DFC781EDE
:102DB000A063206908B9012000E0002060B904F197
:102DC000100000F0F9F938B14FF080502F49086039
:102DD000BFF34F8FBFF36F8FFFF7DEF9012006B00F
:102DE000BDE8F081059818B9FFF7D6F90020F6E79D
:102DF000B8F1000F04D101A8FFF772FB4FF00108F2
:102E0000FFF7CAF9FFF7C6FCFFF79CF994F94400F5
:102E1000401C10B9002084F8440094F94500401C7F
:102E200010B9002084F84500FFF7B6F905A901A8FC
:102E300000F02EF8F0B92046FEF7E2FDA0B104F153
:102E400024000599FFF75EFB2046FEF7E0FF00F047
:102E5000FFF90028A3D14FF080500C490860BFF360
:102E60004F8FBFF36F8F9AE72046FEF7D0FF00F039
:102E7000EFF994E72046FEF7CAFF00F0E9F9204693
:102E8000FEF7BEFD00288AD00020A8E704ED00E090
:102E900070B505460C4655B900BF502080F3118827
:102EA000BFF34F8FBFF36F8F00BF00BFFEE754B972
:102EB00000BF502080F31188BFF34F8FBFF36F8F97
:102EC00000BF00BFFEE7FFF73DF9124802686868DF
:102ED000131A2068401C08B9002617E00E4928681C
:102EE0000968884204D06868904201D801260DE044
:102EF0002068984207D92068C01A20602846FFF74A
:102F0000EFFA002602E0002020600126FFF744F9D6
:102F1000304670BD580000206C0000202DE9FF4FA6
:102F200085B0804689461746DDE912ABB800FEF74A
:102F3000ADFF064656B15820FEF7A8FF04460CB177
:102F4000266304E03046FFF745F900E000247CB139
:102F50000020CDE900ABCDE902403A464946404663
:102F6000089BFEF75AFC2046FEF7CCFA012501E04B
:102F70004FF0FF35284609B0BDE8F08F05490968D4
:102F800009B9012005E00449096809B9022000E0F7
:102F900000207047600000207C0000200149086884
:102FA00070470000580000202DE9F0414FF0000864
:102FB0004448006800287CD143480068451C4248CA
:102FC000056015BB41480068006808B9012000E0B1
:102FD000002050B900BF502080F31188BFF34F8FFD
:102FE000BFF36F8F00BF00BFFEE73848076838485F
:102FF0000068364908603648076036480068401C5B
:1030000034490860FEF728FE00BF33480068854257
:103010003CD300BF2D480068006808B9012000E0DB
:10302000002020B14FF0FF302B4908602DE02748E9
:103030000068C068C4686668B54202D22648066067
:1030400023E0201DFFF734F8A06A18B104F118003E
:10305000FFF72EF894F82C10012088401F490968CA
:1030600008431E490860E16A01EB81011C4A02EB3A
:103070008100211DFFF75AF81A49E06A0968C96AF8
:103080008842C7D34FF00108C4E700BF1548006865
:10309000C06A00EB8000124951F82000012801D9D4
:1030A0004FF001081048006808B14FF0010805E032
:1030B000FFE70E480068401C0C4908604046BDE828
:1030C000F08100007C000020580000204800002013
:1030D0004C0000206C000020740000205C000020E8
:1030E000C801002044000020680000206400002087
:1030F00070B505462C460026002D55D02B4800689B
:10310000844201D1012000E0002050B900BF5020CE
:1031100080F31188BFF34F8FBFF36F8F00BF00BFE5
:10312000FEE7E06C50B900BF502080F31188BFF378
:103130004F8FBFF36F8F00BF00BFFEE7E06C401EF4
:10314000E064A16CE06A88422ED0E06C60BB201D78
:10315000FEF7AEFF78B9E06A00EB8000144951F841
:10316000200040B994F82C100120884011490968CA
:10317000814310480160A06CE062E06AC0F1050084
:10318000A06194F82C10012088400A49096808437E
:1031900008490860E16A01EB8101054A02EB810000
:1031A000211DFEF7C3FF0126304670BD44000020FC
:1031B000C80100205C00002070B50646F068C468B5
:1031C00054B900BF502080F31188BFF34F8FBFF375
:1031D0006F8F00BF00BFFEE704F11800FEF768FF25
:1031E00015480068A8B9201DFEF762FF94F82C105E
:1031F0000120884011490968084310490860E16AC4
:1032000001EB81010E4A02EB8100211DFEF78EFFCA
:1032100004E004F118010B48FEF788FF0A49E06A50
:103220000968C96A884204D9012501200749086054
:1032300000E00025284670BD7C0000205C000020D6
:10324000C801002054020020440000206800002033
:1032500070B5002400263648006850B900BF5020E1
:1032600080F31188BFF34F8FBFF36F8F00BF00BF94
:10327000FEE7FEF767FF2E480068401E2C490860F5
:103280000846006800284FD12A48006800284BD023
:1032900024E02948C068C46804F11800FEF708FF5C
:1032A000201DFEF705FF94F82C10012088402349CB
:1032B0000968084321490860E16A01EB8101204A5D
:1032C00002EB8100211DFEF731FF1E49E06A09680B
:1032D000C96A884202D301201B4908601648006869
:1032E00008B9012000E000200028D2D00CB1FEF780
:1032F000B3FC1648056865B100BFFFF755FE10B175
:103300000120114908606D1E002DF6D100200F49E3
:1033100008600D48006838B1012630070C49086084
:10332000BFF34F8FBFF36F8FFEF736FF304670BD90
:103330007C00002054000020540200205C0000208B
:10334000C801002044000020680000206400002024
:1033500004ED00E02DE9F04106460027344656B959
:1033600000BF502080F31188BFF34F8FBFF36F8FE2
:1033700000BF00BFFEE7FEF793FF00BF5021EFF351
:10338000118081F31188BFF34F8FBFF36F8F00BFA0
:1033900005462046FEF702FD20B316480068E0B956
:1033A0001549E06A0968C96A884200D30127201DCF
:1033B000FEF77EFE94F82C10012088400F49096822
:1033C00008430E490860E16A01EB81010C4A02EBF7
:1033D0008100211DFEF7AAFE04E004F1180109484E
:1033E000FEF7A4FE00BF85F3118800BF3846BDE894
:1033F000F08100007C000020440000205C000020E0
:10340000C8010020540200201CB50024FEF7D6F8A5
:103410000E48006858B10E48022100234FF4827212
:10342000CDE900100BA10D48FFF778FD044654B913
:1034300000BF502080F31188BFF34F8FBFF36F8F11
:1034400000BF00BFFEE720461CBD00008800002032
:103450008C000020546D722053766300F51D000827
:103460002DE9FE4304460D4616461F46DDF828802A
:103470004FF0000954B900BF502080F31188BFF30A
:103480004F8FBFF36F8F00BF00BFFEE71448006887
:1034900010B3009501960294062D15DAFFF76EFD24
:1034A000022808D10023424669460D480068FFF70C
:1034B000E9FA814610E000231A4669460848006888
:1034C000FFF7E0FA814607E000233A4669460448E0
:1034D0000068FFF7ABFB81464846BDE8FE8300006D
:1034E000880000204FF04070E1EE100A70470000A5
:1034F0001035000800000020C0000000C4010008D2
:10350000D0350008C000002058340100E001000858
:1035100000000000000000000000000000000000AB
:10352000007A030A0000000000000000010203040A
:10353000060708090100000000000000000000006C
:10354000000000000000010203040102030406075A
:10355000080900000000000000000000000000005A
:10356000000000000000000000000000000000005B
:10357000000000000000000000000000000000004B
:10358000000000000000000000000000000000003B
:10359000000000000000000000000000000000002B
:1035A00000000000AAAAAAAA000000000000000073
:1035B000000000000000000000000000000000000B
:1035C00000000000000000000000000000000000FB
:040000050800018965
:00000001FF
