:020000040800F2
:10000000701400204D01000845110008551000082B
:1000100000000000000000000000000000000000E0
:100020000000000000000000000000008D1100082A
:1000300000000000000000000B010008D9110008BA
:100040005F0100085F0100085F0100085F01000810
:100050005F0100085F0100085F0100085F01000800
:100060005F0100085F0100085F0100085F010008F0
:100070005F0100085F01000800000000C5120008D1
:10008000000000005F010008000000000000000008
:100090005F010008000000005F0100085F01000828
:1000A0005F0100085F0100085F0100085F010008B0
:1000B0005F0100085F0100085F0100085F010008A0
:1000C0000348854600F0DCF8004800472717000881
:1000D00070140020084B19680868203080F30988E4
:1000E000022080F31488BFF36F8F3FBCAE4608BC7C
:1000F00004BC62B61847000014000020EFF3108023
:1001000072B6704780F310887047EFF309800E4B8A
:100110001A6820381060F0C044464D4656465F4687
:10012000F0C008B572B601F077FF62B60CBC11687A
:1001300008681030F0C8A046A946B246BB4680F316
:1001400009882038F0C81847140000200448804768
:1001500004480047FEE7FEE7FEE7FEE7FEE7FEE7AE
:1001600071120008C100000830B50B46014600209E
:100170002022012409E00D46D5409D4205D31D46AD
:100180009540491B2546954040191546521E002DA5
:10019000F1DC30BDF0B51FB40646002082B0054644
:1001A0004024019100901BE0019922460F46304601
:1001B00000F054F8049A059B801A994110D3104618
:1001C0001946224600F03AF8361A8F410197224626
:1001D00001200021009F00F031F838184D410090B7
:1001E0002046641E0028DFDC019B00982946324629
:1001F00007B0F0BD03460B439B0703D009E008C9D5
:10020000121F08C0042AFAD203E00B780370401CC6
:10021000491C521EF9D27047D2B201E00270401C54
:10022000491EFBD270470022F6E710B513460A4676
:1002300004461946FFF7F0FF204610BD10B5202AEE
:1002400004DB0146203A9140002010BD914020235C
:100250009C1A0346E3401943904010BD10B5202A74
:1002600004DB0846203AD040002110BD0B46D340A5
:10027000D0402024A21A91400843194610BD000026
:10028000064C0125064E05E0E36807CC2B430C3CE9
:1002900098471034B442F7D3FFF716FF68290008D7
:1002A0008829000870470000F8B500230124A2E067
:1002B00027469F403A4070D04D68022D01D0122D44
:1002C00014D1DD08AD002D1800952D6A5E07AC46EF
:1002D000F50E0F26AE46AE406546B543AC460E69F8
:1002E0007546AE4065462E43009D2E624D68012D39
:1002F00005D0022D03D0112D01D0122D16D1856805
:100300000326AC465D00AE46AE406546B543AC46FE
:10031000CE687546AE4065462E43866046680D79C8
:10032000BE43ED06ED0F9D403543456006685F0016
:100330000325BD40AE46AE430D79B446AE07B60FB9
:10034000BE4065462E430660C6687546AE438D685E
:10035000BD403543C5604D68ED004BD5294D6E6BF2
:1003600026436E639E08284DB6007519AC46AD68ED
:100370009E07360F0F27B740BD4305273F07B842FA
:1003800001D1002715E0214FB84201D1012710E02B
:100390001F4FB84202D102270BE02BE01D4FB8429D
:1003A00001D1032705E01C4FB84201D1052700E029
:1003B0000627B7402F436546AF60184D2E684F683B
:1003C0009643FF0300D516432E606E684F68964330
:1003D000BF0300D516436E60AE684F689643FF02B8
:1003E00000D51643AE60EE684F689643BF0200D555
:1003F0001643EE605B1C0A681546DD4000D057E7E7
:10040000F8BD000000100240000001400004005050
:1004100000080050000C0050001C00500004014077
:10042000002A01D0816170478162704701480068ED
:10043000704700000C00002002480168491C016060
:10044000704700000C00002010B508480024016827
:10045000402211430160204600F00AF8002801D034
:10046000012401E000F03CF8204610BD00200240CD
:1004700000B5014687B000220F2000F04DF80F2094
:1004800000F040F81248816B01221143816305A9F5
:10049000684600F0C7F900F0E5F90E49FFF764FE81
:1004A00001220D4992070A600C4A401ECA6048604A
:1004B000002008618860084600F073FC002802D024
:1004C000012007B000BD044800F086FCF9E70000F9
:1004D0000010024040420F0040030020E7030000EC
:1004E00010B50748416B012211434163816B02043F
:1004F0001143816303210022481F00F00DF810BD55
:1005000000100240C106C90E012088400149086060
:100510007047000000E100E010B500F015FE10BDCE
:10052000F8B504460068614D810601D400057DD50B
:100530005E4E0027403EB06BC00004D4B06B310467
:100540000843B06301275A480168C90511D40168FE
:10055000821511430160FFF769FF009005E0FFF786
:1005600065FF0099401A642844D851480068C005C6
:10057000F5D53168032000056268014010408842CB
:1005800005D10323A0681B051840884208D09003BA
:10059000800F032804D13068800301D50120F8BD05
:1005A000286903210904084029D00A40824202D068
:1005B0002278920606D4A2680A4082421FD0208880
:1005C00000051CD528692A6988430121C9040A430A
:1005D0002A612A698A432A612861C0050FD5FFF77D
:1005E00025FF009008E0FFF721FF0099411A3148EC
:1005F000814201D90320F8BD28698005F3D56168DF
:100600008803800F032805D132680005824301402A
:100610000A433260286903226168120411400843CA
:100620002861002F06D0B16B012000E002E0000736
:100630008143B1632078C00705D0E868E16880088D
:1006400080000843E8602078800705D5E8680C2121
:10065000884321690843E8602078400706D5E868A8
:1006600003218902884361690843E8602078000714
:1006700006D5E868032109038843A1690843E860B7
:100680002078400606D5E868012189068843216A5A
:100690000843E8602078000606D5E868032189044D
:1006A0008843E1690843E8600020F8BD401002403B
:1006B0000070004088130000F8B50E4605007DD09C
:1006C00053480068C007C00FB0420AD250480168C2
:1006D00049084900314301600068C007C00FB042BB
:1006E00071D128784B4C800705D5E068F02188430C
:1006F000A9680843E0602878C00752D068680228DB
:1007000017D0032818D02168012818D0890500299E
:1007100059DAE168890889000143E160FFF786FE44
:1007200069680746022912D003291CD0012926D066
:1007300033E021688903EAE721688901E7E749078F
:10074000E5E7FFF773FEC11B3348814223D8E06819
:100750000007800F0228F4D123E0FFF767FEC11BDA
:100760002D48814217D8E0680007800F0328F4D194
:1007700017E0FFF75BFEC11B274881420BD8E068FA
:100780000007800F0128F4D10BE0FFF74FFEC11BDB
:100790002148814201D90320F8BDE0680007800F9D
:1007A000F3D11B480168C907C90FB1420DD90168CF
:1007B0004908490031430160006800E003E0C007D8
:1007C000C00FB04201D00120F8BD2878400706D5FF
:1007D000E068072109028843E9680843E060287857
:1007E000000707D5E0680721C90288432969C900C5
:1007F0000843E06000F056F8E168084A0906090F6E
:10080000515CC840064908600020FFF731FEF8BD82
:100810000020024000100240881300003429000824
:100820001000002010B50F2202600C4AD3689B070D
:100830009B0F4360D368F02423408360D468072370
:100840001B021C40C460D268D2081A4002610448EE
:100850000068C007C00F086010BD00000010024013
:1008600000200240044805490068C968044A490557
:10087000490F515CC8407047100000200010024032
:100880004D290008044805490068C968044A8904DC
:10089000490F515CC8407047100000200010024012
:1008A0004D29000810B5184AD1680C2008400428CA
:1008B0000BD0082810D00C2810D050680004410F2D
:1008C0000120C003491C884010BD1068C00601D536
:1008D0000E4810BD0E4810BD0E4810BD88020E4BCC
:1008E000000F185C0902D368890F491CDB0301D58E
:1008F000084A05E01268D20601D5044A00E0044A1D
:100900005043FFF731FC10BD0010024000093D00CC
:100910000024F40000127A0044290008FEB5050006
:100920007ED0FE4CE7680C20E668074001200004FA
:1009300006402878C00747D0082F05D00C2F0AD1D1
:1009400001200004864206D1206880033CD56868F7
:100950000028E5D038E0012069680004814203D115
:1009600021680143216011E0052301221B04920448
:100970009942216802D111432160F1E7814321604E
:100980002168014000912068904320606868002839
:100990000DD0FFF74BFD009005E0FFF747FD0099F4
:1009A000401A64287AD820688003F6D50CE0FFF757
:1009B0003DFD009005E0FFF739FD0099401A6428DD
:1009C000F0D820688003F6D42878800755D509230D
:1009D000E868042F0DD00C2F01D1002E09D000287B
:1009E0003BD02168994301432160FFF71FFD064674
:1009F00027E02168490701D5002891D061681F22AE
:100A0000120291432A6912021143616021689943DD
:100A100001432160FFF746FFE16809060A0F00E085
:100A2000BBE1BF49895CC840BE4908600020FFF7B0
:100A30001FFD002872D120E0FFF7F8FC801B022880
:100A4000B0D820684007F7D560681F2109028843A5
:100A500029690902084360600FE0206840084000EF
:100A60002060FFF7E3FC064604E0FFF7DFFC801B95
:100A7000022897D820684007F7D42878C0065FD5A9
:100A8000002F0CD0E869002849D02068FF210131EF
:100A900008432060FFF7CAFC06462DE0E4E020682A
:100AA000800502D5E8690028A7D0606807214903BE
:100AB0008843696A084360606068298C0002000A04
:100AC000090608436060686A410B0120C003491CA5
:100AD0008840E16809060A0F9149895CC84091493C
:100AE00008600020FFF7C4FC002817D128E0FFF7BA
:100AF0009DFC801B0228A3D820688005F7D560687C
:100B0000072149038843696A084360606068298C4B
:100B10000002000A09060843606011E023E1216831
:100B2000FF20013081432160FFF780FC064604E08E
:100B3000FFF77CFC801B02289BD820688005F7D437
:100B40002878794E000724D568690028306910D0CC
:100B5000012108433061FFF769FC009005E0FFF7D1
:100B600065FC0099401A02287ED830698007F6D5C6
:100B70000FE0400840003061FFF758FC009005E0AE
:100B8000FFF754FC0099401A02286DD8306980079D
:100B9000F6D42878400764D500200290A06BC000EE
:100BA00006D4A06B012109070843A063012002902D
:100BB0005E480168C90511D40168821511430160BE
:100BC000FFF734FC009005E0FFF730FC0099401A75
:100BD000642849D855480068C005F5D5FF20AA68A3
:100BE0000130824203D131690143316111E00121B9
:100BF0008902002A07D005231B029A4203D13269D9
:100C00000A433261EFE732698243326130698843D7
:100C10003061A86800280ED0FFF708FC009006E0BD
:100C2000FFF704FC0099411A414881421CD8306901
:100C30008005F5D50DE0FFF7F9FB009006E0FFF722
:100C4000F5FB0099411A3A4881420DD83069800578
:100C5000F5D40298002804D0A16B0120000781433D
:100C6000A1632878800600E07CE02ED53148A96990
:100C70004314002916D0A26801210A43A260626BC6
:100C80000A436263016A19430162FFF7CFFB06461C
:100C900004E0FFF7CBFB801B022863D8A068800725
:100CA000F7D512E0A16849084900A160016A99439B
:100CB0000162FFF7BBFB064604E0FFF7B7FB801BB2
:100CC00002284FD8A0688007F7D4A86A002866D009
:100CD0000C2F4DD0012636060228206805D0B043DF
:100CE0002060FFF7A3FB05463EE0B0432060FFF71E
:100CF0009DFB074604E0FFF799FBC01B022831D893
:100D000020688001F7D4296BE86AE2680843696BC0
:100D1000FD231B049A43114308430DE000100240D9
:100D200034290008100000204010024000700040EC
:100D30008813000000000140E0602068304320601C
:100D4000FFF774FB054604E0FFF770FB401B022829
:100D500008D820688001F7D521E0FFF767FB401B2A
:100D6000022801D90320FEBD20688001F5D416E0D9
:100D70000128F8D0E06801210904EA6A01409142A3
:100D80000BD10F2189042A6B0140914205D1032127
:100D900089050840696B884201D00120FEBD002012
:100DA000FEBD70B5040005D025462035687E0028BC
:100DB00002D006E0012070BD00202876204600F019
:100DC0000AF802206876211D206800F083FA0120CD
:100DD0006876002070BD70470268D36801210B431C
:100DE000D360006882685207520F062A02D0026858
:100DF0000A43026000207047704770B504460068DF
:100E000001690025C9438907002915DBC168C94369
:100E1000890711D4E91E01610120207620688069CC
:100E20008007204602D0FFF7E7FF04E000F078F8E3
:100E3000204600F076F8257620680169C943490705
:100E400017D4C168C943490713D40421C9430161B8
:100E500002202076206880698005800F204602D01D
:100E6000FFF7CAFF04E000F05BF8204600F059F8F5
:100E7000257620680169C943090716D4C168C943AA
:100E8000090712D40821C943016104202076206893
:100E9000C0698007204602D0FFF7AEFF04E000F0F3
:100EA0003FF8204600F03DF8257620680169C943E7
:100EB000C90617D4C168C943C90613D41021C94350
:100EC0000161082020762068C0698005800F2046D7
:100ED00002D0FFF791FF04E000F022F8204600F076
:100EE00020F8257620680169C943C90708D1C1687F
:100EF000C943C90704D1891E0161204600F012F8D8
:100F000020680169C943490609D4C168C943490633
:100F100005D44021C9430161204600F00CF870BDA2
:100F20007047704710B5006801218907884201D1D8
:100F3000FFF782FA10BD704710B5040003D0606F50
:100F4000002802D007E0012010BD002170200155CB
:100F5000204600F027F824206067206801684908CF
:100F600049000160204600F077FA0128ECD0606A61
:100F7000002802D0204600F0D9F9206841680922F3
:100F8000D20291434160206881682A2291438160A6
:100F900020680168012211430160204600F02CFA0C
:100FA00010BD000010B586B0044614216846FFF756
:100FB0003AF91149206888421CD11048416B01223E
:100FC000920311434163C16A01221143C162C06AA5
:100FD00069461040059003204002009002200190D5
:100FE00000200290032003900420049005200007B5
:100FF000FFF75AF906B010BD00380140001002405A
:101000000027FF43114EFF24114D01343946B068CB
:1010100000F0F6FB012221462846FFF701FA0122E3
:1010200040212846FFF7FCF9642000F08FFB0022E6
:1010300021462846FFF7F4F9002240212846FFF711
:10104000EFF9642000F082FBE0E7000000000020E0
:1010500000080050FEE7000010B590B000200E9090
:101060000F900A210EA800F07EFB0C4C1C22A06001
:101070000B496846FFF7BEF80021684600F0F2FB16
:10108000074920601C221C3107A8FFF7B3F8002194
:1010900007A800F0E7FB606010B010BD0000002062
:1010A000FC28000870B586B014216846FFF7BBF82D
:1010B0001448C26A80210A43C262C26A0A40059289
:1010C000C26A04210A43C262C26A0A400592C16A26
:1010D00001242143C162C06AFF2520400A4E4135E8
:1010E0000590002229463046FFF79AF90021029127
:1010F00003910095019469463046FFF7D5F806B094
:1011000070BD0000001002400008005010B50C48EF
:101110000A490160E1214902416000218160C1600A
:1011200001618161C1610C22016242614162FFF78C
:1011300003FF002801D0FFF7B5F810BD00380140CB
:10114000C0020020704700008307FF22DB0E9A4098
:101150008907090E994000280BDA0007000F0838AC
:10116000830808489B001818C36993430B43C36165
:101170007047830804489B001B1818689043084375
:101180001860704700ED00E000E400E070470000E8
:101190007D25104CED00284600F0D8FAA06800F03C
:1011A00009FB284600F0D2FAA06800F003FBA06813
:1011B00000F000FB284600F0C9FAA06800F0FAFA37
:1011C000A06800F0F7FAA06800F0F4FA284600F0F2
:1011D000BDFAE0E70000002010B5FEF78FFF0446DF
:1011E00001F036FA002803D00120034900074860C7
:1011F0002046FEF787FF10BD00ED00E030B59DB042
:1012000038216846FFF70FF8142117A8FFF70BF8ED
:1012100024210EA8FFF707F8144801680322D20220
:101220009143C21489180160500101900B90032072
:10123000022180040C900125480500950D900A912B
:101240006846FFF76BFB0F201790002403201890CF
:1012500019941A9401211B9417A8FFF72DFA0EA8D0
:101260000E951194FFF75CF91DB030BD0070004081
:1012700010480168821511430160C1680E4A11408F
:10128000C16001680D4A1140016081684908490048
:10129000816001680122920491430160C168FD22CE
:1012A00012049143C160002101610549C0038860B7
:1012B00070470000001002400C40FF88F6FFF6FE69
:1012C00000ED00E010B50248FFF797FD10BD0000EB
:1012D0004003002070B5026801239B07114C124D9A
:1012E000984203D0A04201D0A84203D17026B24355
:1012F0004E683243984203D0A04201D0A84204D1A4
:1013000003231B029A43CB681A4380239A430B6939
:101310001A4302608A68C2620968816201214161E0
:1013200070BD0000000801400014014010B5818C20
:10133000C90707D001684A6801235B049A43836A9E
:101340001A434A60818C890707D501684A680123DE
:101350001B049A43C36A1A434A60818C490707D524
:1013600001684A6801239B049A43036B1A434A604D
:10137000818C090707D501684A680123DB039A437A
:10138000436B1A434A60818CC90607D5026891688D
:1013900001231B039943836B19439160818C890658
:1013A00007D501688A6801235B039A43C36B1A431C
:1013B0008A60818C490612D503685A6801210905A3
:1013C000046C8A4322435A60026C8A4207D1026845
:1013D000516803235B059943436C19435160818C29
:1013E000090607D501684A680123DB04806C9A432B
:1013F00002434A6010BD0000F8B500260446C667E7
:10140000FFF714F8054620680068124F000709D559
:1014100001212B46002249052046009700F030F9B3
:1014200000280DD12068006840070BD501212B460C
:10143000002289052046009700F022F9002801D0FB
:101440000320F8BD20206067A06760342674002068
:10145000F8BD0000FFFFFF01F8B504462669A26849
:10146000E76932436669102000253E432368324312
:1014700078491E68784F3E4016431E6023685A68BC
:1014800003263603B243E66832435A602368A269F2
:101490008B4201D0266A32439E680B273F02BE432F
:1014A00016439E606D4E23686D4AB3420CD1D268DC
:1014B0009207920F06D0012A38D0022A34D0032A8C
:1014C00020D11EE001201DE0664EB3420AD1D26851
:1014D0000C26324026D0042A28D0082A24D00C2AF0
:1014E00010D10EE08B420DD1D66803229202164035
:1014F00018D001229202B61A18D0B61A14D0964209
:1015000000D10820564A0126403A574FF6038B4235
:1015100036D100280CD002280DD0042812D008287B
:101520001FD11CE00020EDE70220EBE70420E9E7F3
:10153000FFF798F908E01068C00601D5384605E0C5
:101540004A4803E0FFF7AEF9002873D06268510003
:101550005118814205D81103814202D303E030467D
:10156000F4E7012566E0010E06025008002330185A
:101570005941FEF70FFE03210902411A3C4A55E08A
:10158000E169B14232D1030000F0ABF809070A0D5E
:1015900006250606062B0600E3E7FFF763F91CE0C5
:1015A000FFF770F919E010686168C00602D54808B5
:1015B000304A01E0304A48088018FEF7D5FD80B275
:1015C00001462E4A10399142CBD8511C01400007E8
:1015D000400F08432CE0FFF765F9616840004A08B6
:1015E000EAE76168012248081204E5E7030000F019
:1015F00078F809070A0D06260606062C0600B0E74D
:10160000FFF730F91DE0FFF73DF91AE01068616857
:10161000C00602D54808C01902E014484A0810184C
:10162000FEF7A2FD80B20146144A1039914298D8C3
:101630002168C8600020206660662846F8BDFFF774
:1016400031F961684A088018EAE76168480880193A
:10165000E6E7000000480040F369FFEF0038014072
:10166000401002400044004000093D000024F40006
:10167000FFFC0F0000127A000048E801EFFF0000B5
:10168000FFB581B017460E4604460A9D09E0681C66
:1016900007D0FEF7CBFE0499401AA8420CD8002DC3
:1016A0000AD02068C1693046884318D00020B8426B
:1016B000EDD0002005B0F0BD20680168FF22A13206
:1016C00091430160206881684908490081602020B9
:1016D0006067A0670020603420740320EAE70120DF
:1016E000E5E730B47446641E2578641CAB4200D232
:1016F0001D46635D5B00E31830BC184702E008C874
:10170000121F08C1002AFAD170477047002001E07B
:1017100001C1121F002AFBD17047EFF3058000289A
:1017200000D001207047FEF78FFEFFF767FDFFF73F
:10173000B9FCFFF7EBFCFFF78FFC00F00FF8FEE7BA
:1017400001460020842900D0C81C704710B500282D
:1017500000D1012000F0BCFB002010BD10B500F04E
:1017600027FC002010BD38B54268002A0ED00129A0
:1017700003D0084600F0B6FC38BD03201346002213
:1017800000901146012000F0E0FC38BD012903D093
:10179000084600F095FC38BD03220021012000F02E
:1017A000B6FC040004D000231A46194600F023FDBD
:1017B000204638BD38B5002405460094FFF7ADFF3C
:1017C00000280FD06946284600F0A1FD012801D06D
:1017D000FF2038BD009800280DD0012007490007E0
:1017E000486008E000231A461946284600F003FD29
:1017F000012800D0FF24204638BD000000ED00E0A5
:1018000038B5054600200090002D11D00024481C5A
:1018100010D0002900D00C46FFF77FFF002814D01D
:101820006A460021284600F0ACFD012813D104E0EF
:10183000802038BD0024E443EEE7009800280CD057
:10184000012007490007486007E02146284600F0CC
:10185000D4FD012801D0FF2038BD002038BD000094
:1018600000ED00E07FB50D46044641690820205E8A
:10187000002911D0A16900290ED0FFF761FF6B4646
:10188000A269616907C32B4622692168606800F07C
:10189000ACFE039004B070BDFFF752FF03A90191A5
:1018A0000090208A2B4682B22168606800F074FEA6
:1018B000012801D00020EDE70398EBE7F8B5134CC1
:1018C0000F46666905462068001D00F069FA681C2D
:1018D00007D1002F05D021680D48091D00F0A4FA9A
:1018E000F8BD2068751945602168B54204D2A0682A
:1018F000091D00F081FAF8BD6068091D00F07CFA4E
:10190000206B8542F7D22563F8BD0000140000204B
:1019100058040020F8B5054600F092FA294C2069D9
:10192000401C20612068284F002803D0E06900286F
:1019300027D02CE025602069012828D1002614201A
:101940007043C01900F04AFA761C072EF7D31E48E0
:101950008C3000F043FA1C48A03000F03FFA1A48DF
:10196000B43000F03BFA1848C83000F037FA164897
:10197000DC3000F033FA14488C3060601430A06022
:1019800005E02068E96AC06A884200D82560E06AFC
:10199000401CE062E86AA169884200D9A061142174
:1019A0004843C019291D00F03FFA00F055FAE069DC
:1019B000002806D02068E96AC06A884201D200F097
:1019C0007BFAF8BD140000207C03002010B5026CE7
:1019D0000C46002A0CD0C1688B18C36041688B424A
:1019E00001D2194601E00168C1602046FEF702FC01
:1019F00010BDF8B5856B174604460026026C002A18
:101A000011D0002F19D0E068FEF7F4FBE168206CDC
:101A1000091AE1602268914202D26168081AE06006
:101A2000022F17D019E02068002816D1606800F056
:101A30006DFE0646002060600FE0A068FEF7DAFB4E
:101A4000216CA0684018A0606168884205D32068B6
:101A5000A06002E0002D00D06D1E6D1CA563304615
:101A6000F8BD10B504464030407C002805D0012860
:101A700006D0022807D072B6FEE7206B00F0FAF914
:101A8000204600F0F7F910BD03210E4889024207F5
:101A900005D0C01DC0080B4AC000821A891A0A4A24
:101AA0000023411809C20839C908C900183A116051
:101AB0004B600B600B1A0AC093600120C007536093
:101AC000D06070476C040020600000200F4E104C66
:101AD0003746C83F11E000F0B3F9F068C568281D2B
:101AE00000F05EF92069401E2061E068401EE06061
:101AF00000F0B2F92846FFF7B4FFE0680028EAD109
:101B000038680128F9D900F0D7F9F6E74404002035
:101B10001400002010B503460298002906D0026088
:101B2000C3630164012100F030FB10BD0060F7E7E2
:101B3000FFB581B00C9C9000236B001F1818C608DD
:101B40000A9DF600700701D072B6FEE723180A5C02
:101B500020331A750A5C002A02D0401C1028F5D3E5
:101B60002046403000270090C770072D00D306257F
:101B7000E562A764201D656400F03BF9204618303B
:101B800000F037F924610720401B6462A061E7641C
:101B9000009807743046049A019900F0F1F820602B
:101BA0000B98002800D0046005B0F0BD30B5114995
:101BB00000E011460A688242FBD34B685C188442FD
:101BC00003D1406818184860084643681C189442BE
:101BD00009D1084C103C2468A24209D052689A18D6
:101BE00042600A6812680260814200D0086030BD1D
:101BF0000460F9E76000002010B5044600F020F909
:101C0000A06B002804D0002400F026F9204610BD67
:101C10000124F9E7064841680968002905D04168B0
:101C2000C968C9684968016370470021C943FAE778
:101C30001400002003480068401C72B600D0FEE784
:101C4000FEE7000068000020F8B5044600F0F8F850
:101C5000254640350526AE57274624370BE0606AF7
:101C600000280AD0384600F0C1FD002801D000F05D
:101C70004FF9761E76B2002EF1DC0027FF436F711C
:101C800000F0EAF800F0DCF80426AE5720461030E9
:101C900000900BE0206900280AD0009800F0A6FD13
:101CA000002801D000F034F9761E76B2002EF1DC67
:101CB0002F7100F0D1F8F8BDF8B50546002700F007
:101CC000A3F9284E3068002801D1FFF7DDFEF06847
:101CD00005423FD1002D3DD00835680708D0680780
:101CE000400F0821081A4519680701D072B6FEE7AF
:101CF000002D2FD0706885422CD81A48103001462C
:101D00000C6801E020460C466168A94202D22168B5
:101D10000029F7D131688C421CD007682168016026
:101D200060680837411B102908D96019420701D0A3
:101D300072B6FEE741606560FFF738FF6168706862
:101D4000401A7060B268904200D2B060F0680143FF
:101D5000002003C400F07CFD780701D072B6FEE7D6
:101D60003846F8BD5000002004490868002803D018
:101D70000868826C521C8264086870471400002056
:101D800010B50124031F24061C601B1F1960191FB6
:101D9000024B0B60143940380A6010BD351C000836
:101DA0004368826801699A60836842685A604A6839
:101DB000824201D182684A60002202610868401EA6
:101DC0000860086870470000034B036018465430F1
:101DD00008608020106070476C00002001460831C8
:101DE00000224160D243C160826001610021016034
:101DF000704700210161704730B50B685A1C02D052
:101E00000246083202E0026904E02246546825686E
:101E10009D42FAD953684B6099608A6051600861AD
:101E20000168491C016030BD42684A6093688B605C
:101E300093685960916008610168491C01607047AE
:101E400072B604480168491C0160BFF34F8FBFF3AD
:101E50006F8F70476800002005490868002804D08B
:101E6000401E086000D162B6704772B6FEE70000FF
:101E70006800002070B500281AD004460D4D083CBB
:101E80006068E968084201D172B6FEE72268002A5C
:101E900001D072B6FEE78843606000F0B5F8606874
:101EA0006968401868602046FFF780FE00F0D0FCAB
:101EB00070BD000050000020012004490007486068
:101EC000BFF34F8FBFF36F8F7047000000ED00E04E
:101ED00010B502000FD00948806B002801D072B6FF
:101EE000FEE700F091F800211046FFF7E7FC00F054
:101EF000AFFC002801D1FFF7DFFF10BD1400002068
:101F000002498A6A026049694160704714000020F2
:101F100001490120486270471400002010B50C46AA
:101F2000002809D0054909681831FFF765FF01212C
:101F30002046FFF7C3FC10BD72B6FEE71400002078
:101F400070B504002FD0A26C002A0ED0606C8842BD
:101F500000D30146E06A884225D0012A23D1124DE0
:101F60002A68944203D172B6FEE772B6FEE7E162D8
:101F7000A269002A02DB0722511AA16114220B4E2A
:101F800050436169801981420DD1201DFFF708FF80
:101F9000E06AA969884200D9A861142148438019E0
:101FA000211DFFF741FF70BD140000207C030020BD
:101FB00010B586B00024039405AA04A903A80494CC
:101FC000FFF702FF04990398009401910290002307
:101FD00009A10B48059A00F008FB0A49002848634C
:101FE00008D072B60020C04308630120C8614C616C
:101FF00000F03EF806B010BD49444C45000000001A
:10200000CD1A0008140000200248816B491C81632E
:10201000704700001400002010B51348816B0029A0
:1020200002D00121416210BD0021416281690F4A45
:1020300002E0002915D0491E14234B43D358002B2E
:10204000F7D014234B439A18536814465B6808343E
:102050005360A34201D15B685360DA68026081611A
:1020600010BD72B6FEE70000140000207C030020C3
:1020700070B50F48016AFF22120411430162016A20
:102080001202114301620B4C00252561A5610A482B
:102090007D21C9000068FEF767F8401E60610720D7
:1020A000206106480560FEF715F8002070BD0000AD
:1020B00000ED00E000E000E01000002068000020DB
:1020C00010B50C46002803D0844203D972B6FEE74F
:1020D00072B6FEE70222002100F019F8002800D0B5
:1020E000846310BD38B50C46002803D0844203D960
:1020F00072B6FEE772B6FEE7022113460022009197
:10210000114600F022F8002800D0846338BDF8B5ED
:1021100017460E46050014D0002E14D070434830E8
:10212000FFF7CAFD04000AD00021462001552246CF
:1021300048323B46314628460094FFF7EBFC2046E8
:10214000F8BD72B6FEE70020E9E7F8B5069D002865
:1021500006D0002B06D0002A08D0002904D009E0C0
:1021600072B6FEE772B6FEE772B6FEE7002901D04E
:1021700072B6FEE748241C46012640339E712B466A
:102180000094FFF7C7FC2046F8BD70B50D4604006B
:1021900025D0FFF755FE216CE06B484321684118BC
:1021A00061600021A1632168A160E06B216C401E89
:1021B000484321684118E1600021C943204640306E
:1021C000017141713038002D0BD0FFF707FE20461A
:1021D0002430FFF703FEFFF73FFE012070BD72B60B
:1021E000FEE721690029F6D000F000FB0028F2D0BC
:1021F000FFF762FEEFE7FFB5002683B01D4604003F
:1022000003D00498002802D006E072B6FEE7206CE6
:10221000002801D072B6FEE7022D04D1E06B012840
:1022200001D072B6FEE700F003FA0027002804D1BF
:102230000598002801D072B6FEE7FFF701FEA06BFB
:10224000E16B884207D3022D05D00598002817D0EE
:10225000002E18D01BE02A4620460499FFF7C9FB40
:10226000616A002903D02046243000F0BFFA00281C
:1022700001D0FFF721FEFFF7EFFD012007B0F0BD11
:10228000FFF7EAFD22E06846FFF73AFE0126FFF776
:10229000E3FDFFF7B9FEFFF7D3FD204640300421F0
:1022A0004156491C00D1077105214156491C00D1F6
:1022B0004771FFF7D1FD05A9684600F03FF90028F6
:1022C00006D02046FFF7C0FC00F0C2FA0020D5E798
:1022D000FFF7B6FDA06BE16B884210D1FFF7BCFDA4
:1022E000204610300599FFF719FE2046FFF7ACFC99
:1022F00000F0AEFA0028A0D1FFF7DEFD9DE7FFF762
:10230000ABFD2046FFF7A0FC00F0A2FA95E770B500
:102310000D46040004D0206C002803D072B6FEE7FE
:1023200072B6FEE72068002804D16068002801D05A
:1023300072B6FEE7FDF7E2FEA26B0646E06B904246
:1023400019D92146403105200856521CA263421C6F
:1023500003D0401C487101240EE0606A0028FAD0C6
:102360002046243000F042FA0028F4D0002DF2D0AC
:1023700001202860EFE700243046FDF7C3FE204629
:1023800070BDF7B582B0040003D00398002802D0D6
:1023900006E072B6FEE7206C002801D072B6FEE7B8
:1023A000FDF7ACFE0090A66B002E1FD020464030FB
:1023B00004254557074620460399FFF707FB761E7D
:1023C000A663681C03D06D1C3D7101240FE02069D9
:1023D0000028FAD02046103000F008FA0028F4D087
:1023E00004980028F1D001210160EEE70024009854
:1023F000FDF788FE204605B0F0BDF3B5002683B09A
:10240000041E354604D0206C002803D072B6FEE7C7
:1024100072B6FEE700F00CF90027002804D10498FA
:10242000002801D072B6FEE7FFF70AFDA06B002876
:1024300017D0401EA0632068002802D1FFF794FC4B
:1024400060602069002807D02046103000F0CEF9E7
:10245000002801D0FFF730FDFFF7FEFC012005B09A
:10246000F0BD0498002802D0002E07D00AE0002D0D
:1024700001D072B6FEE7FFF7EFFC5CE06846FFF7BD
:102480003FFD0126FFF7E8FCFFF7BEFDFFF7D8FC94
:102490002046403004214156491C00D107710521D6
:1024A0004156491C00D14771FFF7D6FC04A9684684
:1024B00000F044F80028204614D0FFF7C5FB00F0D8
:1024C000C7F92046FFF798FB0028ADD0002D32D089
:1024D000FFF7B6FC606A002828D0206B072100684F
:1024E000091A24E0FFF788FB002819D0206800288B
:1024F00007D1FFF7A5FC606800F03CF90546FFF73F
:10250000ABFC204624300499FFF708FD2046FFF776
:102510009BFB00F09DF9002886D1FFF7CDFC83E7F7
:102520002046FFF791FB00F093F97DE700216068FA
:10253000FFF706FD9FE7002091E70000F8B50C4685
:10254000050012D0002C12D0FFF77AFC114B5A690B
:102550006E682068911B471C0BD02F689B6A9F42B6
:102560000CD096420AD8012404E072B6FEE772B697
:10257000FEE70024FFF770FC2046F8BD884205D92D
:10258000401A20602846FFF7BBFCF2E700202060DD
:10259000E9E7000014000020FFB585B01646900062
:1025A0000F9FFFF789FB05001CD05420FFF784FB29
:1025B000040014D000205121256308550E99009184
:1025C0000390019702943246089B06990598FFF7FD
:1025D000AFFA2046FFF79EF9012009B0F0BD28466A
:1025E000FFF748FC0020C043F7E7F0B585B0074689
:1025F0000B9D0C9C0A98002D15D0002C15D054264C
:102600002563022551263555002504AE009001961C
:10261000039502943846FFF78BFA2046FFF77AF9C4
:10262000049805B0F0BD72B6FEE772B6FEE7000092
:102630000648C169002904D0806B002803D000201F
:1026400070470120704702207047000014000020EE
:10265000F8B52C4C0027A06B002808D0206A401C3D
:102660002062606A002800D001273846F8BD6669FC
:10267000761C66610ED160680068002801D072B6D1
:10268000FEE76068A1686160A060A06A401CA0626B
:10269000FFF7C0FA206B86420AD360680068002802
:1026A00010D06068C068C568686886420DD2206333
:1026B00020681421C06A4843134908580128D0D91A
:1026C0000127CEE70020C043F1E7281DFFF768FB94
:1026D000A86A002803D028461830FFF761FBE86A93
:1026E000A169884200D9A0611421484306494018D5
:1026F000291DFFF799FBE86A2168C96A8842CCD393
:102700000127CAE7140000207C03002070B50021D7
:102710000446002828D0154D2868844201D072B69E
:10272000FEE7A06C002808D0401EA064636CE26A3B
:102730009A4219D0002802D016E072B6FEE7201D9A
:10274000FFF72EFB606C0721E062081AA061E06AC7
:10275000A969884200D9A861142148430449401856
:10276000211DFFF761FB0121084670BD1400002008
:102770007C03002070B504460020002C2AD0194D9F
:10278000E16A2A68D26A914225D2A069002804DB56
:1027900028680721C06A081AA061E06A1422124E54
:1027A000504361698019814210D1201DFFF7F8FA6A
:1027B0002868C06AE062A969884200D9A86114212A
:1027C00048438019211DFFF72FFB02E02868C06AEB
:1027D000E062012070BD616C2A68D26A9142F8D330
:1027E00070BD0000140000207C03002070B5C0689C
:1027F000C468002C0BD0204618300646FFF7D0FAEC
:10280000114DA86B002804D0314610480FE072B675
:10281000FEE7201DFFF7C4FAE06AA969884200D9E3
:10282000A861142148430949B4394018211DFFF714
:10283000FBFAE06A2968C96A884202D90120686205
:1028400070BD002070BD0000140000203004002086
:10285000F8B5284C0025A06B2E46002808D0FFF7BD
:10286000EFFAA06B401EA063A06B002802D03DE0F1
:1028700072B6FEE72169204F00291DD136E0F868C5
:10288000C56828461830FFF78BFA281DFFF788FA2D
:10289000E86AA169884200D9A06114214843164919
:1028A000B4394018291DFFF7BFFAE86A2168C96AE0
:1028B000884201D30120606238680028DFD1002DF2
:1028C00001D0FFF7A7F9256A002D09D00127FFF7EE
:1028D000BFFE002800D067626D1EF8D10020206284
:1028E000606A002802D00126FFF7E6FAFFF7B4FA83
:1028F0003046F8BD14000020300400206029000894
:10290000911100080000000000000000800000009D
:102910000000000000000000582900080110000815
:102920000000000000000000800000000000000027
:10293000000000000000000000000000010203048D
:1029400006070809030406080C10182030000000D0
:10295000000102030400000048616E646C65000021
:1029600053656D47656E000088290008000000204F
:102970006C000000FC160008F42900086C00002020
:10298000041400000C170008000000000000000004
:102990000000000000000000000020000000000017
:1029A0000000000000000000000000000000000027
:1029B0000000000000000000000000000000000017
:1029C0000000000000000000000000000000000007
:1029D00000000000000000000000000000000000F7
:1029E00000000000000000000000000000000000E7
:0429F000AAAAAAAA3B
:04000005080000C12E
:00000001FF
