:020000040800F2
:1000000080340120F1020008490A00084308000872
:10001000450A000839070008131200080000000014
:100020000000000000000000000000003102000895
:1000300055070008000000008D020008A10D00080F
:100040000B0300080B0300080B0300080B03000858
:100050000B0300080B0300080B0300080B03000848
:100060000B0300080B0300080B0300080B03000838
:100070000B0300080B0300080B0300080B03000828
:100080000B0300080B0300080B0300080B03000818
:100090000B0300080B0300080B0300080B03000808
:1000A0000B0300080B0300080B0300080B030008F8
:1000B0000B0300083D0E00080B0300080B030008AB
:1000C0000B0300080B0300080B0300080B030008D8
:1000D0000B030008F50F00080B0300080B030008D2
:1000E0000B0300080B0300080B0300080B030008B8
:1000F0000B0300080B0300080B0300080B030008A8
:100100000B0300080B030008CD0E00080B030008CA
:100110000B0300080B0300080B030008050F000881
:100120000B0300080B0300080B0300080B03000877
:100130000B0300080B0300080B0300080B03000867
:100140000B0300080B0300080B0300080B03000857
:100150000B0300080B0300080B0300080B03000847
:100160000B0300080B0300080B0300080B03000837
:100170000B0300080B0300080B0300080B03000827
:100180000B0300080B03000800F002F800F041F830
:100190000AA090E8000C82448344AAF10107DA45E2
:1001A00001D100F036F8AFF2090EBAE80F0013F0F3
:1001B000010F18BFFB1A43F001031847C8310000B4
:1001C000E8310000103A24BF78C878C1FAD8520745
:1001D00024BF30C830C144BF04680C6070470000C1
:1001E0000023002400250026103A28BF78C1FBD840
:1001F000520728BF30C148BF0B607047642900F028
:10020000D980002070471FB503F0B6F81FBD10B5A8
:1002100010BD00F05FFA1146FFF7F5FF01F072F82C
:1002200000F07DFA03B4FFF7F2FF03BC00F0F3FF28
:100230002C4B19680868B0E8F04F80F30988BFF3C9
:100240006F8F4FF0000080F31188704700000000AE
:1002500008480068006880F308884FF0000080F3C9
:10026000148862B661B6BFF34F8FBFF36F8F00DFA4
:1002700000BF00BF08ED00E0DFF80C00016841F4AA
:1002800070010160704700BF88ED00E0EFF3098066
:10029000BFF36F8F134B1A681EF0100F08BF20EDCD
:1002A000108A20E9F04F106009B44FF0500080F33D
:1002B0001188BFF34F8FBFF36F8F02F0FFF84FF03D
:1002C000000080F3118809BC19680868B0E8F04F95
:1002D0001EF0100F08BFB0EC108A80F30988BFF33E
:1002E0006F8F70474C000020EFF3058070470000CF
:1002F0000948804709480047FEE7FEE7FEE7FEE7BA
:10030000FEE7FEE7FEE7FEE7FEE7FEE704480549F5
:10031000054A064B70470000D50D0008890100080A
:10032000802E012080340120803001208030012087
:10033000704700000FB4044910B503AA029800F0FA
:100340005FF910BC5DF814FB340000202DE9F0418A
:100350000E460446002020622046E168884730B3FC
:10036000252805D0D4E901219047206A401CF2E7F6
:10037000E168204600278847050018D0A5F1410014
:10038000192802D820354FF4006732462946204606
:100390002760FFF733FF40B1012804D0F61D26F097
:1003A00007060836D8E7361DD6E72846DAE7206A7A
:1003B000BDE8F0812DE9F04106460024106875295A
:1003C000314616A510D0AFF30080002802DA404273
:1003D00013A507E031688A0701D512A502E0490795
:1003E00004D511A5012401E0AFF3008000210A2209
:1003F00006F1240709E0B0FBF2FCB0FBF2F302FBCC
:100400001C00303078541846491C0028F3D123468C
:100410002A463046BDE8F04100F080B800000000F8
:100420002D0000002B00000020000000032A40F2F5
:10043000308010F0030C00F0158011F8013BBCF186
:10044000020F624498BF11F801CB00F8013B38BF9E
:1004500011F8013BA2F1040298BF00F801CB38BFAC
:1004600000F8013B11F0030300F0DC80083AC0F013
:10047000088051F8043B083A51F804CBA0E8081072
:10048000F5E7121D5CBF51F8043B40F8043BAFF3A5
:100490000080D20724BF11F8013B11F801CB48BFFF
:1004A00011F8012B24BF00F8013B00F801CB48BF35
:1004B00000F8012B704702F0FF0343EA032242EAEF
:1004C000024200F0E3B84FF0000200B51346944634
:1004D0009646203922BFA0E80C50A0E80C50B1F19C
:1004E0002001BFF4F7AF090728BFA0E80C5048BFB0
:1004F0000CC05DF804EB890028BF40F8042B08BF4E
:10050000704748BF20F8022B11F0804F18BF00F849
:10051000012B704770477047704770472DE9F047CF
:100520000D4699469246044600F124080168880663
:1005300004D5E06921F01001216000E00120A8420B
:1005400001DD471B00E00027A1697A1902EB0900D1
:10055000081AA0612078C00602D42046AFF30080BC
:10056000002608E0D4E901211AF806009047206A25
:10057000401C761C20624E45F4DB2078C0060AD56C
:100580002046AFF3008006E0D4E9012130209047F7
:10059000206A401C2062381EA7F10107F4DC07E046
:1005A000D4E9012118F805009047206A401C206218
:1005B000281EA5F10105F3DC2046AFF3008020786A
:1005C000000602D50220BDE8F0870120FBE700000D
:1005D00001694A1C02610878704700B58FB0CDE907
:1005E00001310021059105497944CDE903101146F7
:1005F0006846FFF7ABFE0FB000BD0000E5FFFFFF50
:10060000074B70B50D467B44FFF7E7FF04462846CD
:1006100000F05CF810B14FF0FF3070BD204670BDA7
:10062000DF0C000010B5203AC0F00B80B1E8185084
:10063000203AA0E81850B1E81850A0E81850BFF4CC
:10064000F5AF5FEA027C24BFB1E81850A0E818506B
:1006500044BF18C918C0BDE810405FEA827C24BFBF
:1006600051F8043B40F8043B08BF7047D20728BF4D
:1006700031F8023B48BF11F8012B28BF20F8023B9C
:1006800048BF00F8012B70474FF000020429C0F06A
:10069000128010F0030C3FF418AFCCF1040CBCF145
:1006A000020F18BF00F8012BA8BF20F8022BA1EB06
:1006B0000C01FFF70ABF5FEAC17C24BF00F8012BE1
:1006C00000F8012B48BF00F8012B7047007B00F0B9
:1006D00080007047754600F02BF8AE46050069466D
:1006E000534620F00700854618B020B5FFF70EFEF0
:1006F000BDE820404FF000064FF000074FF0000823
:100700004FF0000B21F00701AC46ACE8C009ACE8A3
:10071000C009ACE8C009ACE8C0098D46704710B507
:100720000446AFF300802046BDE81040FFF77ABDD5
:1007300000487047202E012000BFFEE710B50021C1
:10074000034A116051605321312000F091FB10BD2C
:10075000280000207047F0B50A460021002300243D
:1007600000BF3DE0012505FA01F3156805EA030421
:100770009C4234D105684F000326BE40B543056056
:1007800015794E00B5400668354305601579012D91
:1007900002D01579022D16D185684F000326BE4080
:1007A000B543856055794E00B54086683543856010
:1007B000456801268E40B5434560456896798E4070
:1007C000B6B235434560C5684F000326BE40B54309
:1007D000C560D5794E00B540C6683543C560491C33
:1007E0001029BFD3F0BDF0B5002300244D07ED0E56
:1007F00002FA05F3CE1000F1200555F826504E07F9
:10080000F70E0F26BE40B543CF1000F1200646F884
:100810002750CE1000F1200555F8265045EA030474
:10082000CE1000F1200545F82640F0BD024600201C
:1008300013690B400BB1012000E0002070470183D9
:10084000704700BFFEE7000008B5012000902FE0D0
:100850004FF0FF336A461946002002F09DFB044624
:10086000012C25D19DF8001012A0FFF763FD9DF823
:10087000000001280CD0022815D0042817D11148F7
:10088000006808B9012000E000200E4908600EE071
:100890000C48001D006808B9012000E0002009494B
:1008A000091D086003E008A0FFF744FD00BF00BF7A
:1008B000CEE700004B4559B5C4D6B5B5C8D3DA2547
:1008C000640A0D0098024042B9FEB9FE0D0A00000C
:1008D00011E0002000F034F804460748006838B101
:1008E00034B10023032221460348006802F006FACF
:1008F0000A2001F099FCECE7080000201CB501215A
:10090000112000F0E9F81C20009000208DF8040070
:1009100003208DF8050001208DF807006946064880
:10092000FFF719FF0120009002208DF807006946AB
:100930000248FFF710FF1CBD0010024000000240FB
:1009400010B5044614B101202C4908702B480078DA
:10095000002837D010212A48FFF768FF78B1082116
:100960002748FFF763FF50B104212548FFF75EFFDA
:1009700028B101212348FFF759FF012822D10A207D
:1009800000F06EFC00201D49087010211C48FFF784
:100990004DFF08B9012010BD08211948FFF746FF97
:1009A00008B90220F7E704211548FFF73FFF08B90F
:1009B0000320F0E701211348FFF738FF01281BD17E
:1009C0000420E8E710210E48FFF730FF012813D17B
:1009D00008210B48FFF72AFF01280DD10421084800
:1009E000FFF724FF012807D101210648FFF71EFF6A
:1009F00010B90120014908700020CCE72000002038
:100A000000100240000002401CB50121084600F021
:100A100063F8C020009001208DF8040000208DF8BC
:100A2000060003208DF8050001208DF807006946B7
:100A30000348FFF790FEC0210148FFF700FF1CBDEF
:100A40000000024000BFFEE77047000070B50021C3
:100A500000230F22C4781CB3174C246804F4E0640C
:100A6000C4F5E064C4F30721C1F10404E3B20A4110
:100A700044789C40E1B28478144021430C07210E55
:100A80000E4C05786155047804F01F050124AC4034
:100A900005786D11AD0005F1E025C5F8004109E0CC
:100AA000047804F01F050124AC40054D067876114A
:100AB00045F8264070BD00000CED00E000E400E0C9
:100AC00080E100E002490143024A116070470000E2
:100AD0000000FA050CED00E029B1064A1268024355
:100AE000044B1A6004E0034A12688243014B1A6007
:100AF000704700003038024029B1064A12680243AC
:100B0000044B1A6004E0034A12688243014B1A60E6
:100B1000704700004038024029B1064A126802437B
:100B2000044B1A6004E0034A12688243014B1A60C6
:100B30007047000044380240F0B500210022002434
:100B4000022500260223324F3F6807F00C0121B135
:100B5000042905D0082937D105E02E4F076036E07B
:100B60002D4F076033E02A4F3F1F3F68C7F3805681
:100B7000274F3F1F3F6807F03F036EB1264FB7FB7B
:100B8000F3F7DFF88CC0ACF1040CDCF800C0CCF358
:100B9000881C07FB0CF40CE01E4FB7FBF3F7DFF8E3
:100BA00070C0ACF1040CDCF800C0CCF3881C07FB6F
:100BB0000CF4174F3F1F3F68C7F301477F1C7D00B0
:100BC000B4FBF5F7076002E0124F076000BF00BFFB
:100BD0000F4F3F6807F0F0010909104F7A5C076872
:100BE000D74047600A4F3F6807F4E051890A0B4F2E
:100BF0007A5C4768D7408760054F3F6807F46041DB
:100C0000490B064F7A5C4768D740C760F0BD0000CB
:100C1000083802400024F40000127A003A00002054
:100C20000CB50020019000903448006840F48030FA
:100C30003249086000BF3148006800F4003000907D
:100C40000198401C0190009818B90198B0F5A04F88
:100C5000F1D12A48006800F4003010B10120009062
:100C600001E0002000900098012846D12348403040
:100C7000006840F0805021494031086020480068F9
:100C800040F440401E4908601C48083000681B4979
:100C9000083108600846006840F4004008600846D3
:100CA000006840F4A05008601648091F0860081F3B
:100CB000006840F08070091F086000BF0F4800689E
:100CC00000F000700028F9D040F205700E4908606D
:100CD0000A480830006820F003000849083108601D
:100CE0000846006840F00200086000BF0348083072
:100CF000006800F00C000828F8D10CBD0038024054
:100D00000070004008544007003C02401CB50446F7
:100D100001F064F90D48022100238022CDE9001082
:100D20000BA10E4801F0BAFF0D48032100238022D9
:100D3000CDE900100BA10E4801F0B0FF0D4800688E
:100D400001F0A0FA01F074F91CBD000004000020BD
:100D50004B4559535461736B00000000D1080008E3
:100D6000080000204B455950524F5461736B0000EE
:100D70004908000800000020042808D14FF0E021B5
:100D8000096941F004014FF0E022116107E04FF0E2
:100D9000E021096921F004014FF0E0221161704760
:100DA00010B500BF502080F31188BFF34F8FBFF301
:100DB0006F8F00BF02F04CF818B14FF0805004491B
:100DC000086000BF002080F3118800BF10BD000044
:100DD00004ED00E010B51548006840F470001349B8
:100DE00008601348006840F00100114908600020C5
:100DF0000F49083108600E4800680E4908400C4948
:100E000008600D48091D0860081F006820F4802054
:100E1000091F0860002006490C310860FFF700FF39
:100E20004FF0006001498039086010BD88ED00E096
:100E300000380240FFFFF6FE1030002410B50121FB
:100E4000094800F07AF8012808D10848026840688B
:100E5000521C40F1000005490A6048600121024827
:100E600000F05CF810BD00000004004028000020E5
:100E70007FB505460C4601210220FFF73DFE029595
:100E8000ADF804400020ADF80600ADF80C0001A953
:100E90000D4800F06DF8012211460B4800F05EF895
:100EA0000121094800F03DF81D208DF800000120C7
:100EB0008DF8010000208DF8020001208DF803005C
:100EC0006846FFF7C3FD7FBD0004004010B5012157
:100ED000064800F032F8012802D105A0FFF72AFAEF
:100EE0000121024800F01AF810BD0000000C00407B
:100EF00054494D35CAE4B3F62E2E2E2E2E2E2E0D2D
:100F00000A00000010B50121034800F016F8012185
:100F1000014800F003F810BD00140040CA430282EB
:100F2000704721B1028842F00102028004E0028889
:100F30004FF6FE731A400280704730B5024600201B
:100F400000230024158A05EA0103958905EA0104B6
:100F500013B10CB1012000E0002030BD1AB183892B
:100F60000B43838102E083898B43838170470000B8
:100F700000220288184B98420ED0184B98420BD092
:100F8000B0F1804F08D0164B984205D0154B9842CF
:100F900002D0154B984204D14FF68F731A404B88FC
:100FA0001A43124B984207D0114B984204D04FF687
:100FB000FF431A400B891A4302804B68C3620B88B7
:100FC0000385054B984202D0044B984201D18B7A9D
:100FD0000386012383827047000001400004014022
:100FE0000004004000080040000C004000100040D9
:100FF0000014004010B540F225511D4800F04AF899
:1010000010B31B4800F000F9C4B21A48008800F47D
:101010000040C8B91748008800F4804060B10A2C2D
:1010200003D000201349088020E01248008840F4D3
:1010300000401049088019E00D2C06D10D480088A9
:1010400040F480400B49088010E00A480088C0F353
:101050000D0009490C5407480088401C05490880C8
:10106000084600881D2801DD0020088010BD000012
:101070000010014038000020D000002021B18289FA
:1010800042F40052828104E082894DF6FF731A40D7
:101090008281704770B5024600240023002500209D
:1010A00040F66A16B14200D100BFC1F3421501F00B
:1010B0001F03012606FA03F3012D02D1968933405E
:1010C00006E0022D02D1168A334001E0968A3340B1
:1010D0000C12012606FA04F41688344013B10CB140
:1010E000012000E0002070BDF0B50346002400267A
:1010F0000025002040F66A17B94200D100BF18460B
:10110000C1F3421401F01F06012707FA06F5012C6E
:1011100001D10C3004E0022C01D1103000E0143079
:101120001AB107682F43076002E00768AF43076002
:10113000F0BD00002DE9FF4705460E460024A146FC
:1011400000BFA046B08900B100BF2C8A24F44054EF
:10115000F08804432C82AC8941F20C608443B0884F
:1011600031890843718908430443AC81AC8A24F473
:101170004074B0890443AC826846FFF7DDFC204828
:10118000854202D01F48854202D1DDF80C9001E073
:10119000DDF80890A88900F4004040B109EBC900CF
:1011A00000EB091031684900B0FBF1F707E009EBEB
:1011B000C90000EB091031688900B0FBF1F7642029
:1011C000B7FBF0F004012009642101FB1078A88925
:1011D00000F4004040B1322000EBC800B0FBF1F059
:1011E00000F00700044308E0322000EB08106421FF
:1011F000B0FBF1F000F00F0004432C81BDE8FF8745
:10120000001001400014014001468888C0F3080026
:10121000704700BFFEE700BF7047000070B504468E
:101220000420FFF7A9FD0C48047025464FF47A709E
:1012300045430120094908804FF0E020006940F053
:1012400002004FF0E021086108464561006940F066
:101250000100086170BD0000300000203200002055
:1012600070B5044601F0DEFD012810D00B4800885F
:10127000844206D309480088B4FBF0F5284600F004
:10128000D3FF06480088B4FBF0F100FB11444FF493
:101290007A7104FB01F000F003F870BD3200002009
:1012A00070B5034600224FF0E02675690D4E367882
:1012B00003FB06F44FF0E026B16910E04FF0E026A2
:1012C000B06988420BD0884202D20E1A324402E042
:1012D0002E1A0E4432440146A24200D300E0EDE74C
:1012E00000BF70BD3000002000BF054A128802F028
:1012F0004002002AF9D0C2B2014B9A807047000028
:10130000001001401CB54FF44070FFF7DBFBA82034
:10131000FFF784FF4FF4E13000F0BEFDFFF774FBF0
:10132000FFF7ECFA0648012100238022CDE90010E6
:1013300004A1074801F0B2FC01F06CF800201CBDCC
:101340000000002053746172745461736B000000DC
:101350000D0D00082DE9F04105460E461C480768B2
:101360001C480068001D00F0EFFD50B919480068E6
:1013700090F82C10012088401749096881431648CD
:101380000160681C38B936B112480168091D13485C
:1013900000F018FE1AE07C190E4800684460BC4258
:1013A00007D20C480168091D0D48006800F0F0FDE7
:1013B0000CE008480168091D0A48006800F0E8FDD3
:1013C00009480068844201D207480460BDE8F08102
:1013D000600000204C00002064000020E401002098
:1013E00054000020500000207C00002010B504466E
:1013F00000F0F4FD24480068401C2349086023489D
:10140000006840B9214804600846006801280DD1F1
:1014100000F0D8F90AE01E48006838B91B48006897
:10142000C06AE16A884201D8184804601948006817
:10143000401C1849086008460068206494F82C1085
:101440000120884014490968084313490860E16A8B
:1014500001EB8101114A02EB8100211D00F0B2FD78
:1014600000F0E6FD0A48006868B108480068C06AF4
:10147000E16A884207D24FF0805009490860BFF303
:101480004F8FBFF36F8F10BD5C0000204C00002019
:101490006800002078000020640000203001002057
:1014A00004ED00E010B500F099FD10480068D0B9D7
:1014B0000F4800F05DFD0F4800F05AFD0C480E4942
:1014C00008600C480D49086000220C210A2001F038
:1014D00023F9064908600846006820B108A10348BE
:1014E000006800F065FE00F0A3FD10BD980000202C
:1014F000F80100200C020020900000209400002041
:10150000546D72510000000010B516E000F066FD49
:101510000C48C068C468201D00F016FD0A48006829
:10152000401E0949086009480068401E07490860D4
:1015300000F07EFD204600F05FF8044800680028B7
:10154000E4D110BDD00100205C0000205800002034
:1015500070B504460D46206C70B1216CE068014402
:10156000E160D4E90210884201D32168E160284695
:10157000226CE168FEF75AFF70BD2DE9F041044688
:101580000F4615464FF00008A66B206C48B920683E
:1015900000282CD1A06801F04FFD80460020A060FB
:1015A00025E07DB93946226C6068FEF73FFF216C6B
:1015B000606808446060D4E90101884217D320685C
:1015C000606014E03946226CE068FEF72FFF216C62
:1015D000E068411AE1602168E068884203D2216C2A
:1015E000A068411AE160022D01D106B1761E701C7F
:1015F000A0634046BDE8F08110B50446206B00F0C2
:1016000035FD204600F032FD10BD00000146084ABD
:10161000126812680AB9012200E000220A600A6812
:1016200022B9034A1268D268106800E000207047AF
:101630009000002030B54FF49633174800F00704AF
:101640002CB1C01D20F00700134C041B1B1B0246CD
:10165000124C22600024114D6C60D018083820F024
:1016600007000F4C206000240D4D2D686C600C4D60
:101670002D682C601146441A4C60094C24680C609B
:10168000084D4C682C60084D4C682C604FF00044AD
:10169000064D2C6030BD000020020020B00000206C
:1016A000B8000020C0000020BC000020CC000020BA
:1016B00000BFFFF729FF064800680128F9D94FF05D
:1016C000805004490860BFF34F8FBFF36F8FF0E77E
:1016D0003001002004ED00E02DE9F04106460D4602
:1016E00017469846069C0DB9246000E02760E66323
:1016F00025640121204601F039F884F84C80BDE8CA
:10170000F0812DE9F05F82460E4690469B460A9F87
:101710000C9C4FEA8801A522206BFEF7CCFEA8F1B5
:101720000100216B01EB800929F0070909F007008E
:1017300008B9012000E0002050B900BF502080F31C
:101740001188BFF34F8FBFF36F8F00BF00BFFEE75D
:1017500086B1002507E0715D04F134004155705DEC
:1017600000B902E06D1C0A2DF5D300BF00213D2019
:10177000015502E0002084F83400052F00D304272F
:10178000E762A7640020E064201D00F0FEFB04F186
:10179000180000F0FAFB2461C7F10500A061646243
:1017A00000202065606584F858005A465146484636
:1017B00000F05CFB20600B9808B10B980460BDE85A
:1017C000F09F000010B5002407E004EB84010F4AED
:1017D00002EB810000F0CCFB641C052CF5D30C4817
:1017E00000F0C6FB0B4800F0C3FB0B4800F0C0FB49
:1017F0000A4800F0BDFB0A4800F0BAFB044809495A
:10180000086004480849086010BD0000300100204D
:1018100094010020A8010020BC010020D00100207C
:10182000E4010020500000205400002010B50146C3
:10183000164800E0006803688B42FBD30246436809
:1018400013448B4204D143684C68234443600146EF
:101850000A464B6813440468A34211D10C4C036838
:101860002468A34208D04B680468646823444B6032
:1018700003681B680B6005E0054B1B680B6001E00B
:1018800003680B60884200D0016010BDB0000020EA
:10189000B80000202DE9F04104460D4616461F46CB
:1018A0004FF0000865602461B5420CD8F01BA169B7
:1018B000884202D34FF0010811E0211D0948006859
:1018C00000F066FB0BE0BE4204D2BD4202D34FF0F3
:1018D000010804E0211D0448006800F059FB40465F
:1018E000BDE8F081940000209000002070B505460E
:1018F00000F074FBA86B08B9012400E0002400F09C
:1019000097FB204670BD70B5054600F067FBA86BDD
:10191000E96B884201D1012400E0002400F088FB3B
:10192000204670BDF8B505460F461A480068C068E5
:10193000C468201D00F008FB94F8280000F00400A3
:10194000E8B1A06941192B463A462046FFF7A2FFAD
:10195000D8B1002003462A4601460090204601F0F7
:10196000C9FC064656B900BF502080F31188BFF36A
:101970004F8FBFF36F8F00BF00BFFEE705E094F805
:10198000280020F0010084F828002046216A8847BA
:10199000F8BD00009000002070B586B08BE0039881
:1019A0000028FBDB059C606908B9012000E00020ED
:1019B00010B9201D00F0C8FA02A800F0DDF80546B5
:1019C00003980A2875D2DFE800F00905073941635A
:1019D00006083A4200BF00BF00BF00BF94F82800CD
:1019E00040F0010084F828000498A2698118034699
:1019F0002A462046FFF74EFFF8B12046216A884765
:101A000094F8280000F00400B8B100200090049879
:101A1000A169421800231946204601F06BFC0646D6
:101A200056B900BF502080F31188BFF34F8FBFF32A
:101A30006F8F00BF00BFFEE700BF3BE000BF94F820
:101A4000280020F0010084F8280033E000BF94F85B
:101A5000280040F0010084F828000498A061A069E3
:101A600008B1012000E0002050B900BF502080F3F1
:101A70001188BFF34F8FBFF36F8F00BF00BFFEE72A
:101A8000A06941192B462A462046FFF703FF11E0C3
:101A900094F8280000F0020018B9204600F0E6FA99
:101AA00005E094F8280020F0010084F8280001E007
:101AB000FFE700BF00BF002203A90448006800F050
:101AC000F3FF00287FF46BAF06B070BD98000020D4
:101AD000F8B505460C4600F0E9FC684600F04CF805
:101AE0000646009820BB44B9B54206D801F054FB25
:101AF00031462846FFF716FF1CE03CB10E4800684F
:101B0000006808B9012000E000200446A91B224615
:101B10000A48006800F062FB01F03EFB50B94FF04C
:101B2000805007490860BFF34F8FBFF36F8F01E00C
:101B300001F032FBF8BD0000940000209800002066
:101B400004ED00E00A490968096809B9012100E0CB
:101B5000002121B14FF0FF31064A116006E004492F
:101B60000968C968C868034A416811607047000085
:101B7000500000207C00002070B5044601F062F99E
:101B8000054607480068854204D200F00BF80120A2
:101B9000206001E00020206001480560284670BDFB
:101BA000A00000202DE9F84334E025480068C06813
:101BB000056823480068C068C468201D00F0C4F9A7
:101BC0002046216A884794F8280000F0040008B3F2
:101BD000A0694619AE4207D966602461211D1848E4
:101BE000006800F0D5F915E0002003462A460146BA
:101BF0000090204601F07EFB074657B900BF5020F9
:101C000080F31188BFF34F8FBFF36F8F00BF00BF0A
:101C1000FEE700BF0A480068006808B9012000E03C
:101C200000200028C1D00648D0F800800548006890
:101C3000034908600348C0F80080BDE8F88300004D
:101C400090000020940000200E480068401C08B955
:101C5000012000E0002050B900BF502080F311881F
:101C6000BFF34F8FBFF36F8F00BF00BFFEE700BF12
:101C7000502080F31188BFF34F8FBFF36F8F00BFE9
:101C800000BFFEE7A400002008B500BF6846FFF7CC
:101C9000BDFC044620460099FFF71AFFFFF77CFEC3
:101CA000F4E770B5044600F099F994F9455010E056
:101CB000606A08B9012000E0002038B904F124006E
:101CC00001F01EFA18B100F063FB00E003E0681EAB
:101CD00045B2002DECDC00BFFF2084F8450000F089
:101CE000A7F900F07BF994F9445010E0206908B995
:101CF000012000E0002048B904F1100001F000FAD2
:101D000008B100F045FB681E45B200E001E0002D7F
:101D1000ECDC00BFFF2084F8440000F089F970BDBE
:101D20002DE9F04104464FF0000800F0BFFB4948A0
:101D3000006808B9FFF77EFC47480068204000288B
:101D400070D1D4B1083404F00700B0B104F007003A
:101D5000C0F10800044404F0070008B9012000E0C5
:101D6000002050B900BF502080F31188BFF34F8F7F
:101D7000BFF36F8F00BF00BFFEE7002C52D0374883
:101D8000006884424ED8364E3046056801E02E4643
:101D90002D686868A04202D228680028F7D12D4833
:101DA000006885423ED0306800F10808286830603D
:101DB0006868001B102819D92F1907F0070008B907
:101DC000012000E0002050B900BF502080F31188AE
:101DD000BFF34F8FBFF36F8F00BF00BFFEE7686890
:101DE000001B78606C603846FFF720FD1B4968686F
:101DF0000968081A194908600846006819490968FD
:101E0000884203D21548006816490860124968687C
:101E10000968084368600020286013480068401C77
:101E20001149086001F0B8F908F0070008B901206D
:101E300000E0002050B900BF502080F31188BFF3AC
:101E40004F8FBFF36F8F00BF00BFFEE74046BDE876
:101E5000F0810000B8000020CC000020BC00002071
:101E6000B0000020C0000020C4000020001F4FF080
:101E700080730360001F21F001030360001F054B06
:101E8000036014380260001F6FF002030360203803
:101E900070470000491C000810B588B004460121B5
:101EA0000846FEF719FE01211020FEF735FE072235
:101EB00009212348FEF797FC07220A212048FEF754
:101EC00092FC4FF4C060069002208DF81C008DF843
:101ED0001D0000208DF81E0001208DF81F0006A9AE
:101EE0001748FEF738FC02940020ADF80C00ADF85E
:101EF0000E00ADF81000ADF814000C20ADF8120083
:101F000002A91048FFF716F901210E48FFF7B6F8AD
:101F1000012240F225510B48FFF7E6F825208DF805
:101F2000040007208DF8050000208DF80600012030
:101F30008DF8070001A8FEF789FD08B010BD00006C
:101F4000000002400010014001460A69D1E9013059
:101F50009860D1E9010358605068884201D18868CF
:101F60005060002008611068401E106010687047C3
:101F700000F1080141604FF0FF31816000F108017C
:101F8000C16001610021016070470021016170475B
:101F900010B502460B685C1C0CB9106907E002F131
:101FA000080000E04068446824689C42FAD944680C
:101FB0004C604C68A160886041600A611468641CD0
:101FC000146010BD42684A6093688B6093685960E2
:101FD0009160086103685B1C0360704700BF50207C
:101FE00080F31188BFF34F8FBFF36F8F00BF0E4890
:101FF0000068401C0C49086008460068012812D19E
:102000000A480068C0B208B9012000E0002050B9B9
:1020100000BF502080F31188BFF34F8FBFF36F8F45
:1020200000BF00BFFEE77047A400002004ED00E001
:102030000D48006850B900BF502080F31188BFF3ED
:102040004F8FBFF36F8F00BF00BFFEE706480068E9
:10205000401E054908600846006820B9002080F34A
:10206000118800BF00BF7047A400002070B506466D
:102070003546002E44D0083D2C4622496068096848
:10208000084008B1012000E0002050B900BF5020F6
:1020900080F31188BFF34F8FBFF36F8F00BF00BF76
:1020A000FEE7206808B9012000E0002050B900BF19
:1020B000502080F31188BFF34F8FBFF36F8F00BFA5
:1020C00000BFFEE70F49606809680840C0B120689A
:1020D000B0B90C49606809688843606000F0E6F9AF
:1020E0000949606809680844074908602046FFF705
:1020F0009DFB06480068401C0449086001F04CF84C
:1021000070BD0000CC000020BC000020C8000020F2
:1021100000204FF0E02108618861064800684FF414
:102120007A71B0FBF1F0401E4FF0E02148610720CA
:10213000086170470C00002070B5FEF7D5F8044622
:10214000102C16D304F1E02090F8F05315480078D5
:10215000854201DB012000E0002050B900BF502083
:1021600080F31188BFF34F8FBFF36F8F00BF00BFA5
:10217000FEE70D48006800F4E0600C4909688842F9
:1021800001D8012000E0002050B900BF502080F3AA
:102190001188BFF34F8FBFF36F8F00BF00BFFEE703
:1021A00070BD0000A80000200CED00E0AC00002095
:1021B000024600200BE0084B53F8303033B9064B91
:1021C00043F8301003EBC0035A6002E0401C0828BB
:1021D000F1D300BF70470000F00000202DE9F0416E
:1021E00005460E4617462C46FFF7F8FE94F94400C4
:1021F000401C10B9002084F8440094F94500401CAC
:1022000010B9002084F84500FFF712FFA06B28B931
:102210003A46314604F1240000F0DCF82046FFF78E
:1022200040FDBDE8F081000070B504460025D4B142
:102230001248006808B9012000E0002050B900BF32
:10224000502080F31188BFF34F8FBFF36F8F00BF13
:1022500000BFFEE700F02AF900212046FFF77AF8D8
:1022600000F09AFF05463DB94FF0805004490860E0
:10227000BFF34F8FBFF36F8F70BD0000840000204D
:1022800004ED00E070B50546FFF7A8FE15B930482B
:10229000006800E028460446201DFFF755FE78B987
:1022A000E06A00EB80002B4951F8200040B994F817
:1022B0002C10012088402849096881432648016084
:1022C000A06A18B104F11800FFF73EFE2348006829
:1022D000401C224908601E480068844209D1211D23
:1022E0001F48FFF76FFE1F480068401C1D4908602B
:1022F00009E01D480068401E1B4908602046FFF7A2
:102300007BF9FFF71FFCFFF793FE18480068E8B160
:102310000F480068844219D11548006808B90120A7
:1023200000E0002050B900BF502080F31188BFF3B7
:102330004F8FBFF36F8F00BF00BFFEE74FF080509D
:102340000C490860BFF34F8FBFF36F8F70BD000063
:102350004C000020300100206400002078000020A4
:10236000D0010020580000205C0000206800002000
:102370008400002004ED00E003490968016003497E
:102380000968416070470000740000206000002070
:1023900001200149086070477000002070B50446B4
:1023A0000D4654B900BF502080F31188BFF34F8F02
:1023B000BFF36F8F00BF00BFFEE70548016818310B
:1023C0002046FFF7E5FD01212846FEF7C3FF70BD5B
:1023D0004C00002070B505460E46144655B900BFA6
:1023E000502080F31188BFF34F8FBFF36F8F00BF72
:1023F00000BFFEE70648016818312846FFF7E2FDF6
:102400000CB14FF0FF3621463046FEF7A3FF70BDFA
:102410004C0000201CB51E4800210B468222CDE94D
:1024200000101CA11D4800F039FC0446012C02D10B
:1024300000F034FF0446012C17D100BF502080F378
:102440001188BFF34F8FBFF36F8F00BF4FF0FF3086
:1024500013490860012013490860002012490860F0
:10246000FEF76CF900F090F810E0601C08B1012054
:1024700000E0002050B900BF502080F31188BFF366
:102480004F8FBFF36F8F00BF00BFFEE71CBD000082
:102490008000002049444C4500000000B1160008AF
:1024A0007C000020680000206000002002480068D6
:1024B000401C014908607047840000202A480068D9
:1024C00018B10120294908604DE000202749086023
:1024D000274908684968274908600846006826496E
:1024E000096888420BD92549096801F150000A6D35
:1024F00020490968204B1B68C91A114401601D4816
:1025000000681D4908601E480068B0FA80F0C0F1FC
:102510001F0101EB81001B4A52F8200008B1012085
:1025200000E0002050B900BF502080F31188BFF3B5
:102530004F8FBFF36F8F00BF00BFFEE701EB81023B
:10254000104B03EB820042685268426000F10802BF
:102550004368934202D14268526842604268D2683E
:10256000064B1A6000BF70478400002070000020F6
:10257000280000208C000020880000204C00002053
:1025800064000020300100201CB55C4800685C49F4
:10259000884201D0012000E0002050B900BF502047
:1025A00080F31188BFF34F8FBFF36F8F00BF00BF61
:1025B000FEE7524800685249491E884201D0012076
:1025C00000E0002050B900BF502080F31188BFF315
:1025D0004F8FBFF36F8F00BF00BFFEE7494908462A
:1025E00000780190FF200A4610700846007800909D
:1025F0009DF8000000F0F0009DF80020904201D10D
:10260000012000E0002050B900BF502080F3118865
:10261000BFF34F8FBFF36F8F00BF00BFFEE79DF882
:10262000000000F05000384A10700720374A106050
:1026300009E036480068401E344A10609DF80000EA
:102640004006000E00909DF8000000F080008028F9
:10265000EFD02E480068C0F10700042801D1012006
:1026600000E0002050B900BF502080F31188BFF374
:102670004F8FBFF36F8F00BF00BFFEE72348006896
:10268000C0F10700042801D1012000E0002050B96A
:1026900000BF502080F31188BFF34F8FBFF36F8FBF
:1026A00000BF00BFFEE7194800680002174A10602B
:1026B0001046008800F4E0601060124A0198107023
:1026C0000E482030006840F470000C49203108604A
:1026D0000846006840F070400860FFF719FD0020D0
:1026E0000B490860FDF7C8FD0A48006840F040400B
:1026F00008490860FDF7ACFD00201CBD00ED00E0BE
:1027000071C20F4100E400E0A8000020AC000020EE
:10271000A400002034EF00E02DE9F84305460E4602
:1027200017460DB1012000E0002050B900BF502035
:1027300080F31188BFF34F8FBFF36F8F00BF00BFCF
:10274000FEE705FB06F808F15000FFF7E9FA04463A
:102750004CB1A14609F150093B464A46314628464C
:102760000094FEF7B9FF2046BDE8F88370B5054632
:102770000E462C4654B900BF502080F31188BFF399
:102780004F8FBFF36F8F00BF00BFFEE7FFF726FC40
:10279000D4E90F12206801FB0200A0600020A063B2
:1027A00020686060E06B401E226C216800FB021113
:1027B000E160FF2084F8440084F845009EB9206958
:1027C00008B9012000E00020A8B904F1100000F0D1
:1027D00097FC80B14FF0805009490860BFF34F8FDC
:1027E000BFF36F8F07E004F11000FFF7C1FB04F1A6
:1027F0002400FFF7BDFBFFF71BFC012070BD0000AC
:1028000004ED00E02DE9FF4383B0064688461D46EF
:102810004FF00009344654B900BF502080F31188AE
:10282000BFF34F8FBFF36F8F00BF00BFFEE7B8F15C
:10283000000F01D1206C08B9012000E0002050B940
:1028400000BF502080F31188BFF34F8FBFF36F8F0D
:1028500000BF00BFFEE7022D02D1E06B012801D1CD
:10286000012000E0002050B900BF502080F3118803
:10287000BFF34F8FBFF36F8F00BF00BFFEE700F0C5
:10288000D1FA08B9059808B9012000E0002050B934
:1028900000BF502080F31188BFF34F8FBFF36F8FBD
:1028A00000BF00BFFEE700BFFFF798FBA06BE16B26
:1028B000884201D3022D28D12A4641462046FEF700
:1028C0005CFE0746606A08B9012000E0002068B994
:1028D00004F1240000F014FC88B14FF0805032491C
:1028E0000860BFF34F8FBFF36F8F08E03FB14FF029
:1028F00080502D490860BFF34F8FBFF36F8FFFF7F4
:1029000097FB012007B0BDE8F083059818B9FFF7E1
:102910008FFB0020F6E7B9F1000F04D101A8FFF703
:102920002BFD4FF00109FFF783FBFFF7BFFDFFF71A
:1029300055FB94F94400401C10B9002084F8440071
:1029400094F94500401C10B9002084F84500FFF7B9
:102950006FFB05A901A800F05BF9F0B92046FEF76E
:10296000D2FFA0B104F110000599FFF717FD204632
:10297000FFF797F900F010FC002895D14FF0805038
:1029800009490860BFF34F8FBFF36F8F8CE7204674
:10299000FFF787F900F000FC86E72046FFF781F992
:1029A00000F0FAFB0020ADE704ED00E02DE9F84F60
:1029B00007468A4690461E463C4654B900BF502002
:1029C00080F31188BFF34F8FBFF36F8F00BF00BF3D
:1029D000FEE7BAF1000F01D1206C08B9012000E038
:1029E000002050B900BF502080F31188BFF34F8FF3
:1029F000BFF36F8F00BF00BFFEE7022E02D1E06B76
:102A0000012801D1012000E0002050B900BF502072
:102A100080F31188BFF34F8FBFF36F8F00BF00BFEC
:102A2000FEE7FFF789FB00BF5021EFF3118081F330
:102A30001188BFF34F8FBFF36F8F00BF0546A06BA8
:102A4000E16B884201D3022E25D194F945B0A06BE9
:102A50000090324651462046FEF78FFD0BF10100F3
:102A600088B9606A08B9012000E0002050B904F17B
:102A7000240000F045FB28B1B8F1000F02D001207E
:102A8000C8F8000004E00BF1010040B284F84500F2
:102A90004FF0010901E04FF0000900BF85F31188F4
:102AA00000BF4846BDE8F88F2DE9F74183B00546E1
:102AB0000E464FF000082C4654B900BF502080F35A
:102AC0001188BFF34F8FBFF36F8F00BF00BFFEE7CA
:102AD0000EB9206C08B9012000E0002050B900BFF9
:102AE000502080F31188BFF34F8FBFF36F8F00BF6B
:102AF00000BFFEE700F096F908B9059808B9012073
:102B000000E0002050B900BF502080F31188BFF3CF
:102B10004F8FBFF36F8F00BF00BFFEE700BFFFF70F
:102B20005DFAA76BF7B131462046FEF711FD781E1E
:102B3000A063206908B9012000E0002060B904F119
:102B4000100000F0DDFA38B14FF080502F490860D6
:102B5000BFF34F8FBFF36F8FFFF76AFA012006B004
:102B6000BDE8F081059818B9FFF762FA0020F6E792
:102B7000B8F1000F04D101A8FFF7FEFB4FF00108E8
:102B8000FFF756FAFFF792FCFFF728FA94F9440092
:102B9000401C10B9002084F8440094F94500401C02
:102BA00010B9002084F84500FFF742FA05A901A8F2
:102BB00000F02EF8F0B92046FEF798FEA0B104F11F
:102BC00024000599FFF7EAFB2046FFF76AF800F0BA
:102BD000E3FA0028A3D14FF080500C490860BFF3FE
:102BE0004F8FBFF36F8F9AE72046FFF75AF800F038
:102BF000D3FA94E72046FFF754F800F0CDFA2046C8
:102C0000FEF774FE00288AD00020A8E704ED00E05B
:102C100070B505460C4655B900BF502080F31188A9
:102C2000BFF34F8FBFF36F8F00BF00BFFEE754B9F4
:102C300000BF502080F31188BFF34F8FBFF36F8F19
:102C400000BF00BFFEE7FFF7C9F9124802686868D5
:102C5000131A2068401C08B9002617E00E4928689E
:102C60000968884204D06868904201D801260DE0C6
:102C70002068984207D92068C01A20602846FFF7CC
:102C80007BFB002602E0002020600126FFF7D0F940
:102C9000304670BD60000020740000202DE9FF4F19
:102CA00085B0804689461746DDE912ABB800FFF7CC
:102CB00037F8064656B15C20FFF732F804460CB1EF
:102CC000266304E03046FFF7D1F900E000247CB130
:102CD0000020CDE900ABCDE902403A4649464046E6
:102CE000089BFEF70EFD2046FEF780FB012501E064
:102CF0004FF0FF35284609B0BDE8F08F2DE9F047C9
:102D000006460D46174698464FF0010A56B900BFD1
:102D1000502080F31188BFF34F8FBFF36F8F00BF38
:102D200000BFFEE73446FFF759F9B8F1000F02D0B3
:102D3000606DC8F8000094F85890022084F858009C
:102D4000052F17D2DFE807F01503070B0D00606DA4
:102D50002843606521E0606D401C60651DE065658D
:102D60001BE0B9F1020F01D0656501E04FF0000AE8
:102D700013E012E0606D401C08B9012000E0002063
:102D800050B900BF502080F31188BFF34F8FBFF3BD
:102D90006F8F00BF00BFFEE700BF00BFB9F1010F9A
:102DA00033D1201DFFF7D0F894F82C100120884073
:102DB00018490968084317490860E16A01EB810175
:102DC000154A02EB8100211DFFF7FCF8A06A08B943
:102DD000012000E0002050B900BF502080F311888E
:102DE000BFF34F8FBFF36F8F00BF00BFFEE70B49EC
:102DF000E06A0968C96A884207D94FF080500849DB
:102E00000860BFF34F8FBFF36F8FFFF711F9504684
:102E1000BDE8F08764000020300100204C00002055
:102E200004ED00E00549096809B9012005E00449FD
:102E3000096809B9022000E00020704768000020FE
:102E400084000020014908687047000060000020ED
:102E50002DE9F0414FF000084448006800287CD17B
:102E600043480068451C4248056015BB414800685E
:102E7000006808B9012000E0002050B900BF5020D0
:102E800080F31188BFF34F8FBFF36F8F00BF00BF78
:102E9000FEE7384807683848006836490860364811
:102EA000076036480068401C34490860FEF74AFE57
:102EB00000BF3348006885423CD300BF2D480068FE
:102EC000006808B9012000E0002020B14FF0FF3079
:102ED0002B4908602DE027480068C068C468666810
:102EE000B54202D22648066023E0201DFFF72CF8E9
:102EF000A06A18B104F11800FFF726F894F82C1016
:102F0000012088401F49096808431E490860E16A9A
:102F100001EB81011C4A02EB8100211DFFF752F8F1
:102F20001A49E06A0968C96A8842C7D34FF00108A4
:102F3000C4E700BF15480068C06A00EB8000124972
:102F400051F82000012801D94FF00108104800680D
:102F500008B14FF0010805E0FFE70E480068401C8B
:102F60000C4908604046BDE8F08100008400002064
:102F70006000002050000020540000207400002059
:102F80007C00002064000020300100204C00002064
:102F9000700000206C0000202DE9F04107468846B3
:102FA00014461D46FFF71AF82148006890F85800AB
:102FB000022818D01E49096801F15400496DB9432F
:102FC000016001201A49096881F858005DB10121AA
:102FD0002846FEF7BFF94FF0805016490860BFF34E
:102FE0004F8FBFF36F8FFFF723F8FEF7F7FF1CB18A
:102FF0000F480068406D20600D48006890F8580048
:10300000022801D0002608E00949096801F15400AE
:10301000496D21EA08010160012600200449096880
:1030200081F85800FFF704F83046BDE8F081000051
:103030004C00002004ED00E070B505462C4600264B
:10304000002D55D02B480068844201D1012000E0BA
:10305000002050B900BF502080F31188BFF34F8F7C
:10306000BFF36F8F00BF00BFFEE7E06C50B900BF39
:10307000502080F31188BFF34F8FBFF36F8F00BFD5
:1030800000BFFEE7E06C401EE064A16CE06A88428D
:103090002ED0E06C60BB201DFEF756FF78B9E06AC9
:1030A00000EB8000144951F8200040B994F82C102E
:1030B0000120884011490968814310480160A06CD3
:1030C000E062E06AC0F10500A06194F82C100120D4
:1030D00088400A490968084308490860E16A01EB29
:1030E0008101054A02EB8100211DFEF76BFF0126DD
:1030F000304670BD4C0000203001002064000020EC
:1031000070B50646F068C46854B900BF502080F31B
:103110001188BFF34F8FBFF36F8F00BF00BFFEE773
:1031200004F11800FEF710FF15480068A8B9201D2B
:10313000FEF70AFF94F82C10012088401149096815
:10314000084310490860E16A01EB81010E4A02EB75
:103150008100211DFEF736FF04E004F118010B4841
:10316000FEF730FF0A49E06A0968C96A884204D953
:10317000012501200749086000E00025284670BDB0
:10318000840000206400002030010020BC010020E9
:103190004C0000207000002070B500240026364846
:1031A000006850B900BF502080F31188BFF34F8FE3
:1031B000BFF36F8F00BF00BFFEE7FEF70FFF2E4883
:1031C0000068401E2C4908600846006800284FD15E
:1031D0002A48006800284BD024E02948C068C46809
:1031E00004F11800FEF7B0FE201DFEF7ADFE94F8C6
:1031F0002C100120884023490968084321490860B0
:10320000E16A01EB8101204A02EB8100211DFEF7FA
:10321000D9FE1E49E06A0968C96A884202D30120C2
:103220001B4908601648006808B9012000E000202A
:103230000028D2D00CB1FEF785FC1648056865B1B0
:1032400000BFFFF705FE10B10120114908606D1E97
:10325000002DF6D100200F4908600D48006838B1F4
:10326000012630070C490860BFF34F8FBFF36F8F03
:10327000FEF7DEFE304670BD840000205C000020BA
:10328000BC01002064000020300100204C00002020
:10329000700000206C00002004ED00E01CB500244C
:1032A000FEF700F90E48006858B10E4802210023CD
:1032B0004FF48272CDE900100BA10D48FFF7EEFC30
:1032C000044654B900BF502080F31188BFF34F8FDC
:1032D000BFF36F8F00BF00BFFEE720461CBD00009C
:1032E000980000209C000020546D722053766300EB
:1032F000891C00082DE9FE4304460D4616461F466C
:10330000DDF828804FF0000954B900BF502080F349
:103310001188BFF34F8FBFF36F8F00BF00BFFEE771
:103320001448006810B3009501960294062D15DA32
:10333000FFF778FD022808D10023424669460D4870
:103340000068FFF75FFA814610E000231A466946DD
:1033500008480068FFF756FA814607E000233A461E
:10336000694604480068FFF721FB81464846BDE8EE
:10337000FE830000980000204FF04070E1EE100A3C
:1033800070470000A433000800000020D0000000B7
:10339000C401000874340008D0000020B0330100DC
:1033A000E001000800000000000000000000000034
:1033B000007A030A0000000000000000010203047C
:1033C00006070809010000000000000000000000DE
:1033D00000000000000000000000000000000000ED
:1033E00000000102030401020304060708090000AB
:1033F00000000000000000000000000000000000CD
:1034000000000000000000000000000000000000BC
:1034100000000000000000000000000000000000AC
:10342000000000000000000000000000000000009C
:10343000000000000000000000000000000000008C
:103440000000000000000000AAAAAAAA00000000D4
:10345000000000000000000000000000000000006C
:10346000000000000000000000000000000000005C
:043470000000000058
:040000050800018965
:00000001FF
