:020000040800F2
:10000000504400205D0200084F130008AD110008A5
:100010004D1300088D030008F917000800000000C8
:100020000000000000000000000000009D0100082A
:100030008F03000800000000F90100089913000870
:1000400077020008770200087702000877020008AC
:10005000770200087702000877020008770200089C
:10006000770200087702000877020008770200088C
:10007000770200087702000877020008770200087C
:10008000770200087702000877020008770200086C
:10009000770200087702000877020008770200085C
:1000A000770200087702000877020008770200084C
:1000B000770200087702000865140008770200083C
:1000C000770200087702000877020008770200082C
:1000D00077020008ED170008770200087702000891
:1000E000770200087702000877020008770200080C
:1000F00077020008770200087702000877020008FC
:1001000077020008770200087702000877020008EB
:1001100077020008770200087702000877020008DB
:1001200077020008770200087702000877020008CB
:1001300077020008770200087702000877020008BB
:1001400077020008770200087702000877020008AB
:10015000770200087702000877020008770200089B
:10016000770200087702000877020008770200088B
:1001700077020008770200087702000800000000FC
:100180007702000877020008DFF80CD000F0ECF8E6
:100190000048004755190008504400202C4B1968AE
:1001A0000868B0E8F04F80F30988BFF36F8F4FF015
:1001B000000080F3118870470000000008480068C4
:1001C000006880F308884FF0000080F3148862B65E
:1001D00061B6BFF34F8FBFF36F8F00DF00BF00BF6B
:1001E00008ED00E0DFF80C00016841F470010160E7
:1001F000704700BF88ED00E0EFF30980BFF36F8F19
:10020000134B1A681EF0100F08BF20ED108A20E96A
:10021000F04F106009B44FF0500080F31188BFF325
:100220004F8FBFF36F8F02F0C5F94FF0000080F3DE
:10023000118809BC19680868B0E8F04F1EF0100F6B
:1002400008BFB0EC108A80F30988BFF36F8F704746
:1002500024000020EFF30580704700000648804727
:1002600006480047FEE7FEE7FEE7FEE7FEE7FEE79B
:10027000FEE7FEE7FEE7FEE74914000889010008F3
:100280002DE9F05F0546002092469B4688460646CB
:10029000814640241BE0284641464746224600F05E
:1002A00053F853465A46C01A914110D31146184686
:1002B000224600F03AF82D1A67EB01084F46224615
:1002C0000120002100F031F817EB00094E41201EFB
:1002D000A4F10104DFDC484631462A464346BDE826
:1002E000F09F40EA01039B0703D009E008C9121FF1
:1002F00008C0042AFAD203E011F8013B00F8013BE0
:10030000521EF9D27047D2B201E000F8012B491E0B
:10031000FBD270470022F6E710B513460A460446A2
:100320001946FFF7F0FF204610BD202A04DB203AD3
:1003300000FA02F1002070479140C2F1200320FA38
:1003400003F3194390407047202A04DB203A21FA36
:1003500002F00021704721FA02F3D040C2F12002DE
:100360009140084319467047064C074D06E0E06887
:1003700040F0010394E8070098471034AC42F6D3EC
:10038000FFF706FF4833000868330008FEE77047B0
:10039000704790F83510022903D080214165012073
:1003A0007047052180F835100068016821F00101CF
:1003B00001600020704700002DE9F84F00224FF047
:1003C000010803254FF00F0E0B6808FA02F42340D2
:1003D000A3426ED14E68012E05D0022E03D0112EFD
:1003E00001D0122E12D186684FEA420C05FA0CF7A2
:1003F000BE43CF6807FA0CF7374387604668A643C9
:100400000C79C4F30014944034434460C668570028
:1004100005FA07FC8C6826EA0C06BC403443C4602D
:100420004C68022C01D0122C13D1D40800EB8404A8
:10043000A346D4F8209054074FEAD46A0EFA0AF67D
:1004400029EA06090E6906FA0AF646EA0906CBF811
:10045000206006680C7926EA0C0604F00304BC4010
:10046000344304604C68E40065D5364C266846F495
:1004700080462660246822F0030604F48044009439
:10048000314C3444A446D4F808489607370F0EFA86
:1004900007F6B4432D4EB04201D1002624E02C4E85
:1004A000B04201D101261FE02A4EB04202D10226FD
:1004B0001AE040E0284EB04201D1032614E0274E56
:1004C000B04201D104260FE0254EB04201D10526ED
:1004D0000AE0244EB04201D1062605E0224EB04289
:1004E00001D1072600E00826BE402643CCF8086864
:1004F0001E4E34684F689C43FF0300D51C43346094
:100500001A4C241D26684F689E43BF0300D51E4326
:100510002660164E083634684F689C43FF0200D5AB
:100520001C433460114E0C3634684F689C43BF0244
:1005300000D51C433460521C102AFFF445AFBDE8BF
:10054000F88F0000443802400030014000000240B3
:100550000004024000080240000C0240001002406B
:100560000014024000180240001C0240003C014000
:10057000426931EA020200D10904816170470AB17F
:10058000816170470904FBE70148806870470000FB
:10059000140000200248816802781144816070478D
:1005A000140000200B4810B5016841F4007101608F
:1005B000016841F480610160016841F4807101606B
:1005C000032000F08DF8002000F006F800F03EF85F
:1005D000002010BD003C024010B5014688B000224A
:1005E0001E2000F05DF81E2000F04CF81348002497
:1005F000016841F004010160006805A900F00400F1
:100600000690684600F018F900F036F90C494000F1
:10061000B0FBF1F10C480B4A491E026040F2E73290
:10062000C0E90324C0E9011400F028FB10B1012047
:1006300008B010BD044800F03DFBF9E74038024027
:1006400040420F00000800401C0300200C4882B00C
:10065000016841F480410160006800F4804000902E
:100660000748001F016841F08051016000680022C6
:1006700000F0805000900F21901E02B000F010B8E2
:1006800044380240002809DB00F01F02012191409C
:100690004009800000F1E020C0F800117047000020
:1006A000F0B40E4B1B680C46C3F30223C3F10705DD
:1006B000042D00D90425191D072901D2002300E0CB
:1006C000DB1E012606FA05F1491E214099409E4095
:1006D000761E16403143F0BC01F0A0B80CED00E0EE
:1006E000064900F0070208684FF6FF03184040EA89
:1006F0000220034A10430860704700000CED00E040
:100700000000FA052DE9F0470E46050065D0DFF838
:100710001481D8F80000F7B200F00F00B04207D201
:1007200088F80070D8F8000000F00F00B04254D1F3
:1007300028683D4C810712D5400703D5206840F456
:10074000E05020602878000703D5206840F460401E
:1007500020602068A96820F0F00008432060287815
:10076000C0072DD0304968680839012812D0022806
:1007700013D0032811D00968890700292DDA2168D0
:1007800021F0030101432160FFF7FEFE814641F2A3
:10079000883A0EE009688903EFE709688901ECE708
:1007A000FFF7F2FEA0EB0901514502D90320BDE895
:1007B000F0872068696800F00C00B0EB810FEFD182
:1007C000D8F80010404601F00F01B14207D9077078
:1007D000006800F00F00B04201D00120E7E7287860
:1007E000400705D52068E96820F4E0500843206000
:1007F0002878000706D52068296920F4604040EA7F
:10080000C100206000F058F82168084AC1F30311C4
:10081000515CC8400649086006480068FFF7DCFEE6
:100820000020C4E7003C0240083802400C330008B6
:1008300020000020180000200F2202600C4A1368DC
:1008400003F003034360136803F0F003836013684D
:1008500003F4E053C36012684FF4E05303EAD2029A
:1008600002610448006800F00F0008607047000053
:1008700008380240003C0240044805490068096805
:10088000044AC1F38221515CC84070472000002017
:10089000083802401C33000804480549006809680C
:1008A000044AC1F34231515CC84070472000002027
:1008B000083802401C330008154810B5006810F0D5
:1008C0000C02144813D01449042A0FD0082A0ED160
:1008D0000F4C241F2268236802F03F025B0207D5F9
:1008E0002068C0F38810A0FB010106E0084610BD97
:1008F0002168C1F38811A1FB00010023FFF7C0FCB0
:100900002168C1F30141491C4900B0FBF1F010BD61
:10091000083802400024F40040787D012DE9F84FAA
:1009200004006ED02078DFF83C93C007A9F10405DD
:100930004AD009F104000168C1F38101012908D0FE
:100940000068C0F3810002280AD1D9F800004002F3
:1009500006D52868800337D560680028E1D033E0E9
:100960006068B0F5803F10D0B0F5A02F286810D097
:1009700020F480302860286820F480202860606897
:10098000A8B1FFF701FE06460DE0286840F480306C
:10099000F4E740F480202860F7E700BFFFF7F4FD9C
:1009A000801B642873D828688003F7D50CE0FFF714
:1009B000EBFD064605E000BFFFF7E6FD801B64285F
:1009C000F0D828688003F7D42078DFF89C8280076D
:1009D0004FF0000A3ED5A348001D016811F00C0F2E
:1009E00008D00068C0F3810002280BD1D9F80000BC
:1009F000400207D42868800716D5E068012800D196
:100A000012E02BE1E068B8B10120C8F80000FFF760
:100A1000BBFD064605E000BFFFF7B6FD801B0228C0
:100A2000C0D828688007F7D52868216920F0F80029
:100A300040EAC10028600DE0C8F800A0FFF7A4FD5F
:100A4000064604E0FFF7A0FD801B02281FD8286897
:100A50008007F7D42078000722D5824E8348616949
:100A6000703671B101210160FFF78EFD074604E089
:100A7000FFF78AFDC01B022809D830688007F7D528
:100A80000EE0C0F800A0FFF77FFD074605E082E01A
:100A9000FFF77AFDC01B02287DD830688007F7D4A5
:100AA0002078400768D5DFF8BCB100270BF13C0B7C
:100AB000DBF80000C0000BD4DBF8001041F08051DF
:100AC000CBF80010DBF80000012700F08050009008
:100AD000674E3068C00510D4306840F480703060D4
:100AE000FFF752FD009005E0FFF74EFD0099401A18
:100AF000022850D83068C005F6D55A4EA0686C362A
:100B000001280FD00528306810D020F00100306097
:100B1000306820F004003060A068B8B1FFF734FD01
:100B200000900FE0306840F00100F4E740F004006E
:100B30003060F7E7FFF728FD0099411A41F288304D
:100B4000814266D830688007F4D50EE0FFF71CFDBF
:100B5000009007E0FFF718FD0099411A41F2883034
:100B6000814256D830688007F4D42FB1DBF80010EA
:100B700021F08051CBF80010A069C8B33949091D94
:100B80000968C1F3810102294AD00228504607D0E2
:100B9000C8F8600000E03CE0FFF7F6FC04463BE0EC
:100BA0004746C8F86000FFF7EFFC064605E000BFC7
:100BB000FFF7EAFC801B02282BD828688001F7D4B5
:100BC000D4E907010843A16A2A4A490802EB014116
:100BD000626A41EA8211084394F82C1040EA0161EC
:100BE000C9F8001001203866FFF7CEFC044606E085
:100BF00036E000BFFFF7C8FC001B022809D82868B0
:100C00008001F7D52CE000BFFFF7BEFC001B0228D7
:100C100002D90320BDE8F88F28688001F4D41FE0D2
:100C20000128F7D0D9F80000E26900F48001914270
:100C300014D1226A00F03F0191420FD147F6C071F2
:100C4000626A0140914209D1A26A00F440319142A6
:100C500004D1E16A00F07060884201D00120D9E738
:100C60000020D7E70438024000004742800E474288
:100C7000007000400000FFFF7047704710B504008F
:100C800003D094F83D0010B107E0012010BD002012
:100C900084F83C00204600F00CF8022084F83D0067
:100CA000211D206800F0E4FB012084F83D000020B5
:100CB00010BD70470168CA6842F00102CA6000684E
:100CC000816801F00701062903D0016841F00101A4
:100CD000016000207047704770B5044600680169E4
:100CE0004FF00005C943890715D4C168C943890776
:100CF00011D4E91E016101202077206880698007F6
:100D0000204602D0FFF7E7FF04E000F098F8204605
:100D100000F096F8257720680169C943490717D480
:100D2000C168C943490713D46FF00401016102206F
:100D300020772068806910F4407F204602D0FFF7BA
:100D4000CAFF04E000F07BF8204600F079F8257730
:100D500020680169C943090716D4C168C943090756
:100D600012D46FF008010161042020772068C06967
:100D70008007204602D0FFF7AEFF04E000F05FF8E6
:100D8000204600F05DF8257720680169C943C9064F
:100D900017D4C168C943C90613D46FF010010161AB
:100DA000082020772068C06910F4407F204602D0D8
:100DB000FFF791FF04E000F042F8204600F040F811
:100DC000257720680169C943C90708D1C168C943AB
:100DD000C90704D1891E0161204600F033F820685C
:100DE0000169C943090609D4C168C943090605D484
:100DF0006FF0800101612046FFF73EFF2068016926
:100E0000C943490609D4C168C943490605D46FF0EE
:100E100040010161204600F01FF820680169C943C4
:100E200089060BD4C168C943890607D46FF0200135
:100E300001612046BDE87040FFF71FBF70BD7047DD
:100E40007047000000680349884201D1FFF7A2BB48
:100E500070470000000800407047704770B5026896
:100E600004461068D168536910F00F0F52D003F098
:100E7000010501F490762E435FD0C20705D0CA0564
:100E800003D5E26B42F00102E263420705D5DA07BF
:100E900003D0E26B42F00202E263820705D5DA0773
:100EA00003D0E26B42F00402E263020707D501F0CF
:100EB00020022A4303D0E26B42F00802E263E26BB5
:100EC000002A33D0800604D5880602D5204600F0DB
:100ED00049FB20684069E16BC0F38010090700D42A
:100EE00028B3204600F030FB2068416949061AD536
:100EF000416921F040014161606BA0B11B4901656E
:100F0000606BFFF746FA002810D0606B016DBDE8FA
:100F100070400847830610D58B060ED52046BDE8E5
:100F2000704000F01FBB2046FFF797FF70BD2046C2
:100F3000FFF793FF0020E06370BD030606D50B06A4
:100F400004D52046BDE8704000F0ECBB4006F3D568
:100F50004806F1D5D168204621F04001D16020211A
:100F600084F8391000F0F2F870BD0000391500085F
:100F700070B5040004D094F83900002510B106E0E3
:100F8000012070BD84F83850204600F023F824205A
:100F900084F839002068C16821F40051C1602046FE
:100FA00000F02CFB2068016921F490410161206868
:100FB000416921F02A0141612068C16841F4005172
:100FC000C160E563202084F8390084F83A000020ED
:100FD00070BD000010B586B0044614216846FFF7C6
:100FE00099F918492068884229D1174800210268D8
:100FF00042F010020260006800F0100005901248F4
:101000001438026842F001020260006800F001003A
:1010100005904FF4C06000900220CDE9010103204B
:1010200003900720049069460848FFF7C5F900229D
:1010300005212520FFF734FB2520FFF723FB06B011
:1010400010BD000000100140443802400000024082
:1010500070472DE9F843044690F839001F461646BC
:101060000D46202850D1B5B1AEB194F83800012812
:101070004AD0012084F838004FF00008C4F83C80C2
:10108000212084F83900FFF77FFAA6848146E684A0
:1010900084F8388026E00120BDE8F883E08C401E0B
:1010A000E084A0684B46B0F5805F4FF000024FF03F
:1010B00080012046009703D000F065FBE8B90DE001
:1010C00000F061FBC8B928882168C0F308004860B7
:1010D000206908B16D1C05E0AD1C03E0216815F81E
:1010E000010B4860E08C0028D8D14B4600224021FB
:1010F0002046009700F047FB08B10320CCE72020F2
:1011000084F839000020C7E70220C5E790F839309D
:10111000202B18D1A9B1A2B190F83830012B12D0F0
:1011200001628284C2840021C163212280F83920B7
:1011300080F838100068C16841F08001C16000206B
:1011400070470120704702207047000010B588B03A
:1011500004461C2208A16846FFF7C3F80D49206821
:10116000884207D10CA000F049FB0F48694600688F
:1011700000F086FC08B010BD5468697320697320C4
:1011800061206D61696C206D657373616765210A0B
:101190000D00000000100140456E746572696E67B5
:1011A00020495352210A0D0000000020FEE70000F4
:1011B00010B59CB0002018901990012118A800F0DB
:1011C000BCFC184C18492061D1E90001CDE915019A
:1011D0001AA81790002115A800F0DCFB1249206026
:1011E0001C220C316846FFF77CF80021684600F0AD
:1011F0001DFD0D4960601C22283107A8FFF771F81A
:10120000002107A800F012FD0749A0601C2244310C
:101210000EA8FFF766F800210EA800F007FDE060B9
:101220001CB010BD00000020AC32000870B586B0C4
:1012300014216846FFF76EF816480024016841F053
:1012400020010160016801F020010591016841F071
:1012500080010160016801F080010591016841F0A1
:101260000101016000680C4E00F001004FF4C06500
:101270000590002229463046FFF781F901200095AC
:10128000CDE90104694630460394FFF795F806B0AE
:1012900070BD000030380240001402400C4810B508
:1012A0000A4901604FF4E1314160002181600C2264
:1012B000C160C0E904128161C161FFF759FE0028D5
:1012C00003D0BDE81040FFF763B810BD0010014027
:1012D000DC020020074E084D4FF400746421306991
:1012E00000F072FC21462846FFF742F9012000F089
:1012F00044FBF3E7000000200014024088B01C22E9
:1013000009A16846FEF7EDFF0E4D4FF47A741922DD
:1013100069460D48FFF7FAFE286900F02DFC2046CB
:1013200000F02BFBF3E7000055534152543120539A
:10133000656E67696E67206D657373616765210A05
:101340000000000000000020DC020020FEE77047E3
:101350000EB5094D64226846296800F049FBDDE9B5
:1013600000042028F6D105A000F048FA214607A085
:1013700000F044FAEEE700000000002052656365CB
:101380006976696E6721210A0D000000766172316D
:10139000203A2025730A0D0010B5502080F31188E3
:1013A000BFF34F8FBFF36F8F01F0EAFD18B104490F
:1013B0004FF080500860002080F3118810BD0000BD
:1013C00004ED00E030B593B030216846FEF7A2FF8F
:1013D00014210CA8FEF79EFF19480025016841F072
:1013E00080510160006800F080501190154801683C
:1013F00041F4804101600068022400F480401190B3
:101400000120039010200490009406940820CDE958
:101410000750A820CDE9090404200B906846FFF787
:101420007DFA0CA90F2081E831004FF4A0500F90F5
:10143000E002109005210CA8FFF764F913B030BD4D
:1014400040380240007000400548016841F47001D6
:10145000016003494FF00060803908607047000068
:1014600088ED00E00148FFF737BC00001C030020B6
:10147000F0B50268254C264D264E274F274B4FF0DE
:10148000804CA04209D0604507D0A84205D0B042A8
:1014900003D0B84201D0984204D122F0700E4A68BD
:1014A00042EA0E02A0421BD0604519D0A84217D0D4
:1014B000B04215D0B84213D0984211D0184DA8426E
:1014C0000ED0184DA8420BD0174DA84208D0174D8A
:1014D000A84205D0164DA84202D0164DA84203D10D
:1014E00022F44075CA682A434D6922F080022A43DB
:1014F00002608A68C2620A688262A04201D0984291
:1015000001D10969016301214161F0BD0000014081
:101510000004004000080040000C004000040140AE
:1015200000400140004401400048014000180040D4
:10153000001C00400020004010B5806B0021C185D8
:10154000C184FFF78AFC10BD0168CA6822F490725A
:10155000CA6001684A6922F001024A61202180F8CC
:101560003A10704710B590F83A10222901D00220A5
:1015700010BD8168B1F5805F11D001690029016853
:101580001FD0496801F07F03816A4A1C82620B7098
:10159000C18D491E0904090CC18518D02BE00269D0
:1015A000816A002A0268526805D0D2B20A80816A34
:1015B000491C8162ECE7C2F308020A80816A891C37
:1015C000F7E74A68816A4B1C83620A70E0E70168AA
:1015D000CA6822F02002CA600168CA6822F48072D8
:1015E000CA6001684A6922F001024A61202180F83C
:1015F0003A10FFF72DFD002010BD00002DE9F0414D
:10160000044600680169E26821F440511143016118
:101610002169A068E26908436169114308432168B0
:10162000CA6849F20C639A430243CA602068416960
:10163000A26921F4407111434161E06919276425D1
:101640003226B0F5004F354A354920684FF0000882
:1016500006D0884201D0904236D1FFF71DF935E01F
:10166000884201D0904202D1FFF716F901E0FFF75E
:1016700003F961684A18A0FB070148EB0803FEF76D
:10168000FFFD0146B0FBF5F00201B1FBF5F06FF094
:101690001803584301EB800006EBC000B0FBF5F0E7
:1016A00000F0F80002EB4002B1FBF5F0584301EB0B
:1016B000800006EBC000B0FBF5F000F007002168E9
:1016C00010448860BDE8F081FFF7D6F861688B0FA1
:1016D0008A00A0FB0701FEF7D3FD0146B0FBF5F041
:1016E0006FF01802504301EB800006EB0010B0FBD6
:1016F000F5F000F0F002B1FBF5F002EB0012B1FBE7
:10170000F5F06FF01803584301EB800006EB001072
:10171000B0FBF5F000F00F00D1E70000001401402D
:101720000010014090F83910212901D002207047A3
:101730008168B1F5805F016A0BD04A1C02620268C1
:1017400009785160C18C491E0904090CC1840ED06E
:1017500017E009880268C1F3080151600169002996
:10176000016A02D0491C0162ECE7891CFBE70168B1
:10177000CA6822F08002CA600068C16841F0400176
:10178000C160002070472DE9F041984617460E468B
:101790000446069D1DE0681C1BD02DB1FEF7F4FE2B
:1017A000A0EB0800A84214D92068C16821F4D071C8
:1017B000C1602068416921F001014161202084F865
:1017C000390084F83A00002084F838000320BDE88E
:1017D000F0812068006836EA000004D00020B8429A
:1017E000D9D00020F3E70120F9E700000148FFF716
:1017F00035BB0000DC020020FEE700000FB4054B03
:1018000010B503A9044A029800F027F810BC5DF84F
:1018100014FB000031190008840000200907090E9C
:10182000002804DB00F1E02080F80014704700F08D
:101830000F0000F1E02080F8141D704702E008C896
:10184000121F08C1002AFAD170477047002001E03A
:1018500001C1121F002AFBD170472DE9F84F9946AC
:10186000924688460546002706E025280AD05146BC
:101870004A4690476D1C7F1C28780028F5D13846D1
:10188000BDE8F88F002315F8011F18462E2915D141
:1018900015F8011F04232A290DD06FF02F02297893
:1018A000A1F13004092C09D800EB800002EB4000C4
:1018B00008446D1CF3E758F8040B6D1C2A78002AC5
:1018C000DDD0632A07D0732A0FD0104651464A460E
:1018D00090477F1C2AE018F8042B8DF80020002187
:1018E0008DF801106E46012103E058F8046B4FF0AB
:1018F000FF315A074FF0000401D409E0641C844210
:101900000BDA8C42FADB325D002AF7D105E0641C69
:101910008C42FCDB305D0028F9D1274404E016F846
:10192000010B51464A469047641EF8D26D1CA3E74E
:1019300013B50A23012269460248FFF78AFB009883
:101940001CBD0000DC020020EFF30580002800D061
:1019500001207047FEF726FEFFF734FDFFF766FC17
:10196000FFF79CFCFFF724FC00F00EF8FEE70146B1
:101970000020842900D0C81C704710B500B9012090
:1019800000F03AFD002010BD10B500F0D5FD00209C
:1019900010BD00003EB5044600200090019002906A
:1019A00020680090606801900C2000F0A9FBA168FD
:1019B0000028086019D0046000220421206800F08B
:1019C000A1FEA16809684860A168096870B168460D
:1019D00000F084F80100A06800688160A0680068D9
:1019E00003D100BF00F09EFC00203EBD0846F9E791
:1019F0002DE9FF410D000646029522D04FF0000868
:101A00004446CDF80C80501C20D002B11446FFF79C
:101A10009BFF20270028686869461CD003AA091D7F
:101A200001F004F9012814D0CDF800800398D8B152
:101A300012494FF080500860BFF34F8FBFF36F8F94
:101A400012E0802000902A4601990FE04FF0FF3409
:101A5000DDE70097EAE72246091D01F04BF801286F
:101A600008D04CB1402000909DE8070086E80700B0
:101A7000BDE8FF810097F7E70020F4E704ED00E000
:101A800013B582B004000FD000200090FFF75CFF78
:101A9000002860684FF0000314D06A4603A900F0E4
:101AA0007DFF012814D102E0802004B010BD009811
:101AB00080B109494FF080500860BFF34F8FBFF3EA
:101AC0006F8F07E0002203A900F0B8FE012801D0C3
:101AD000FF20EAE70020E8E704ED00E02DE9F0410F
:101AE00005464068C01C20F00307142000F008FBE6
:101AF00004001FD0002628682661C4E90207286870
:101B000000F0FEFA606088B12868784300F0F8FAC7
:101B1000206040B1002002E061680E54401C29683A
:101B20008142F9D806E0606800F0FCFB204600F036
:101B3000F9FB00242046BDE8F08138B543684BB17D
:101B4000012909D10320002200901146012000F054
:101B5000FDFD38BD012901D0002038BD0322002140
:101B6000012000F0CFFD040004D000231A461946DE
:101B700000F064FE204638BD38B5002405460094C8
:101B8000FFF7E2FE90B16946284600F065FF0128A4
:101B900001D0FF2038BD009888B10A494FF080502D
:101BA0000860BFF34F8FBFF36F8F08E000231A4622
:101BB0001946284600F042FE012800D0FF242046A6
:101BC00038BD000004ED00E038B505004FF000001E
:101BD00000900FD00024481C0ED001B10C46FFF736
:101BE000B3FEB8B16A460021284601F01FF801286B
:101BF00016D104E0802038BD4FF0FF34EFE70098A5
:101C000080B109494FF080500860BFF34F8FBFF398
:101C10006F8F07E02146284601F056F8012801D0D1
:101C2000FF2038BD002038BD04ED00E07FB50D4633
:101C300004464169B0F9080081B1A16971B1FFF7AB
:101C400096FED4E905128DE80700D4E900102B4672
:101C5000226901F05CF9039004B070BDFFF787FEC4
:101C600003A9CDE90001208A2B4682B2D4E90010F5
:101C700001F020F9012801D00020EDE70398EBE7FF
:101C80002DE9F041184C0F46054666692068001D95
:101C900000F0C4FA38B9206890F82C100120884070
:101CA000A1698143A161681C07D137B12168BDE8F2
:101CB000F0410E48091D00F0F5BA20683544B542E0
:101CC0004560216805D2A068BDE8F041091D00F01B
:101CD000D1BA6068091D00F0CDFA206B854200D2B0
:101CE0002563BDE8F08100002400002038040020B6
:101CF0002DE9F041054600F0E1FA2E4C2069401C28
:101D0000206120682C4F10B1E06940B32DE02560C0
:101D10002069012829D1002606EB860007EB800008
:101D200000F09AFA761C072EF6D323488C3000F088
:101D300093FA2148A03000F08FFA1F48B43000F029
:101D40008BFA1D48C83000F087FA1B48DC3000F0E1
:101D500083FA19488C3060601430A06005E0206878
:101D6000E96AC06A884200D82560E06A401CE062E7
:101D7000E96A0120A26988401043A06101EB81005B
:101D800007EB8000291D00F08DFA00F0B7FAE0693A
:101D900000280CD02068E96AC06A884207D2074947
:101DA0004FF080500860BFF34F8FBFF36F8FBDE8D7
:101DB000F0810000240000205C03002004ED00E01E
:101DC00030B4026C0B46002A0BD0C1681144C160CC
:101DD0008468A14201D30168C16030BC1846FEF797
:101DE00080BA30BC70472DE9F041856B1746044638
:101DF0000026026C82B1C7B1E068FEF772FAE168B2
:101E0000206C091AE1602268914202D2A168081A86
:101E1000E060022F16D017E02068A8B9A06801F092
:101E200013F906460020A0600EE06068FEF759FA3C
:101E3000216C606808446060A168884204D320680F
:101E4000606001E005B16D1E6D1CA5633046BDE804
:101E5000F08110B5044690F8510058B101280CD01B
:101E600002280FD0502080F31188BFF34F8FBFF3AB
:101E70006F8FFEE7206B00F055FA2046BDE810405A
:101E800000F050BA10BD000010484FF470514207E6
:101E900006D0C01D0D4920F00700411AC1F5705150
:101EA0000B4A00230144C2E900030839103A21F02B
:101EB000070111604B600B600B1AC0E900139360BF
:101EC0004FF000405360D060704700004C04002089
:101ED00070000020144E154CA6F1C8074FF0805832
:101EE000DFF84C9012E000BF00F0E8F9F068C56838
:101EF000281D00F093F92069401E2061E068401E13
:101F0000E06000F0FBF92846FFF7A3FFE068002837
:101F1000EAD138680128F9D9C9F80080BFF34F8F9A
:101F2000BFF36F8FF2E7000024040020240000209C
:101F300004ED00E00346009829B10260C0E90F31CA
:101F4000012100F037BC0060F8E72DE9F0479A4620
:101F5000DDE9098481466FF00303206B03EB820205
:101F60001044089E20F00707780707D0502080F320
:101F70001188BFF34F8FBFF36F8FFEE7002561B16C
:101F8000002023180A5C83F834200A5C12B1401C3C
:101F90001028F6D384F8435001E084F83450072E1B
:101FA00000D30626E662C4E91165201D00F05FF942
:101FB00004F1180000F05BF92461C6F107006462C7
:101FC000A061E56484F8505052464946384600F016
:101FD0000FF92060B8F1000F01D0C8F80040BDE84B
:101FE000F087000030B5114900E011460A688242CE
:101FF000FBD34B685C18844203D1406818444860A6
:10200000084643681C18944209D1084C103C2468C7
:10201000A24209D052681A4442600A6812680260FB
:10202000814200D0086030BD0460F9E770000020F4
:1020300010B5044600F042F9A06B28B15FF000042F
:1020400000F05CF9204610BD0124F9E7064841681C
:10205000096829B14168C968C9684968016370475E
:102060004FF0FF31FAE700002400002008484068E4
:10207000401C4FF0500080F3118804D0BFF34F8F05
:10208000BFF36F8FFEE7BFF34F8FBFF36F8FFEE796
:10209000780000202DE9F041044600F00FF994F992
:1020A000455004F1240609E0606A48B1304601F069
:1020B00061F808B100F0CEF96D1E6DB2002DF3DCB1
:1020C0004FF0FF3684F8456000F018F900F0F6F89C
:1020D00094F9445004F1100709E0206948B13846EA
:1020E00001F048F808B100F0B5F96D1E6DB2002D91
:1020F000F3DC84F84460BDE8F04100F0FFB8000074
:102100002DE9F0410546002700F04CFA314E3068C9
:1021100008B9FFF7B9FEF06805424BD1C5B30835E1
:1021200068070ED005F00700C0F1080005446807F5
:1021300007D0502080F31188BFF34F8FBFF36F8F0C
:10214000FEE72DB37068854234D82248103001462E
:102150000C6801E020460C466168A94202D2216861
:102160000029F7D131688C4224D0076821680160CA
:1021700060680837411B10290FD96019420708D041
:10218000502080F31188BFF34F8FBFF36F8FFEE7AE
:1021900010E041606560FFF725FF61687068401AD4
:1021A0007060B268904200D2B060F06801430020D5
:1021B000C4E9000101F018F8780707D0502080F337
:1021C0001188BFF34F8FBFF36F8FFEE73846BDE82E
:1021D000F0810000600000200449086818B1086818
:1021E000826C521C82640868704700002400002042
:1021F00010B5031F4FF080741C601B1F21F00101FC
:102200001960191F044B0B6014390A60091F6FF025
:10221000020244380A6010BD6D200008D0E9013286
:1022200001699A60D0E901235A604A68824201D16B
:1022300082684A60002202610868401E08600868DF
:1022400070470000034B036003F1540008608020D6
:10225000106070478800002000F108014FF0FF3245
:10226000C0E90112C16001610021016070470021D5
:102270000161704730B50B685A1C02D000F10802AA
:1022800002E0026904E02246546825689D42FAD9BA
:1022900053684B6099608A60516008610168491C0D
:1022A000016030BD42684A6093688B6093685960F2
:1022B000916008610168491C01607047502080F3FB
:1022C0001188BFF34F8FBFF36F8F0A494868401CD6
:1022D000486001280CD10848006810F0FF0F07D0B3
:1022E000502080F31188BFF34F8FBFF36F8FFEE74D
:1022F000704700007800002004ED00E008494868BD
:1023000028B1401E486001D180F3118870475020E9
:1023100080F31188BFF34F8FBFF36F8FFEE700008C
:102320007800002070B5002827D0144DA0F10804D3
:102330006168E868014207D1502080F31188BFF33B
:102340004F8FBFF36F8FFEE722683AB1502080F3C2
:102350001188BFF34F8FBFF36F8FFEE7814361603A
:1023600000F020F960686968084468602046FFF75B
:1023700039FEBDE8704000F037BF70BD600000203E
:102380004FF0E02000210161816105494FF47A722C
:102390000968B1FBF2F1491E4161072101617047F3
:1023A0002000002010B5FDF755FF114910280ED36D
:1023B00000F1E02090F8F0030A78904207D2502014
:1023C00080F31188BFF34F8FBFF36F8FFEE709488B
:1023D0000068896800F4E060884207D9502080F3E3
:1023E0001188BFF34F8FBFF36F8FFEE710BD000062
:1023F000780000200CED00E010B5020014D00F486A
:10240000806B38B1502080F31188BFF34F8FBFF33A
:102410006F8FFEE700F0C6F800211046FFF730FC92
:1024200000F0E2FE002807D105494FF08050086017
:10243000BFF34F8FBFF36F8F10BD0000240000204B
:1024400004ED00E002498A6A026049694160704710
:102450002400002001490120486270472400002028
:1024600010B50C4650B1094909681831FFF702FF51
:102470002046BDE810400121FFF702BC502080F348
:102480001188BFF34F8FBFF36F8FFEE7240000204A
:1024900070B504004BD0A26CA2B1606C884200D32E
:1024A0000146E06A884242D0012A40D1204D2A6884
:1024B00094420FD1502080F31188BFF34F8FBFF3A8
:1024C0006F8FFEE7502080F31188BFF34F8FBFF36B
:1024D0006F8FFEE7E162A269002A02DBC1F107010A
:1024E000A161144E00EB8000616906EB800081421F
:1024F0001DD1201DFFF792FE012150B9E06A00EBCB
:10250000800256F8222022B9AA6901FA00F082431B
:10251000AA61E06AAA6981401143A96100EB8000C9
:1025200006EB8000211DBDE87040FFF7BBBE70BD0B
:10253000240000205C03002010B586B00024039422
:1025400005AA04A903A80494FFF77CFEDDE90301B2
:102550000094CDE9011000230EA11048059A00F067
:10256000D6FC0F490028486311D0502080F3118811
:10257000BFF34F8FBFF36F8F4FF0FF300863012021
:10258000C8614C6106B0BDE8104000F041B806B02B
:1025900010BD000049444C4500000000D51E000855
:1025A000240000200248816B491C816370470000B1
:1025B000240000201448816B11B101214162704751
:1025C000002141628169B1FA81F1C1F11F0101EB82
:1025D00081020E4951F822306BB101EB820101F109
:1025E00008034A6852684A609A4201D152684A60B8
:1025F000D16801607047502080F31188BFF34F8F7E
:10260000BFF36F8FFEE70000240000205C03002072
:102610001CB537480168374A914207D1502080F3F2
:102620001188BFF34F8FBFF36F8FFEE7006831490A
:10263000491E884207D1502080F31188BFF34F8F85
:10264000BFF36F8FFEE72C4908780190FF200870D8
:1026500008788DF800009DF800009DF8002000F03B
:10266000F000904207D0502080F31188BFF34F8FC5
:10267000BFF36F8FFEE79DF80000204B00F0500085
:1026800018700720986005E09DF8002052008DF832
:102690000020401E9DF800201206F5D49860032803
:1026A00007D0502080F31188BFF34F8FBFF36F8F97
:1026B000FEE74FF440709860019808700C48203095
:1026C000016841F470010160016841F070410160EE
:1026D000FFF756FE00205860FDF784FD08480168AA
:1026E00041F040410160FDF769FD00201CBD000084
:1026F00000ED00E071C20F4100E400E0780000202E
:1027000034EF00E0F8B517460E46050014D0DEB1F0
:1027100005FB06F04830FFF7F3FC04000AD0002068
:1027200084F8460004F148023B46314628460094AE
:10273000FFF700FC2046F8BD502080F31188BFF35E
:102740004F8FBFF36F8FFEE70020E3E738B5049D9E
:1027500018B153B1CAB181B120E0502080F3118883
:10276000BFF34F8FBFF36F8FFEE7502080F31188C8
:10277000BFF34F8FBFF36F8FFEE7502080F31188B8
:10278000BFF34F8FBFF36F8FFEE739B1502080F357
:102790001188BFF34F8FBFF36F8FFEE748241C46AD
:1027A000012384F846302B460094FFF7C3FB2046F4
:1027B00038BD000070B50D46040025D0FFF77EFD42
:1027C000D4E90F20216802FB0011A1600021A16360
:1027D000216861600A46D4E90F01401E00FB012117
:1027E000E16021464FF0FF3001F8440F487004F1DA
:1027F00010008DB1FFF730FD04F12400FFF72CFD30
:10280000FFF77CFD012070BD502080F31188BFF3DD
:102810004F8FBFF36F8FFEE721690029F0D000F0E2
:10282000A9FC0028ECD004494FF080500860BFF3A9
:102830004F8FBFF36F8FE3E704ED00E02DE9FF4713
:1028400082B01D468A464FF00008040003D0BAF15A
:10285000000F08D011E0502080F31188BFF34F8F94
:10286000BFF36F8FFEE7206C38B1502080F31188E2
:10287000BFF34F8FBFF36F8FFEE7022D0AD1E06BDE
:10288000012807D0502080F31188BFF34F8FBFF38A
:102890006F8FFEE700F066FB3F4F4FF000094FF0EF
:1028A000805648B9049838B1502080F31188BFF39E
:1028B0004F8FBFF36F8FFEE7FFF700FDA06BE16B5B
:1028C000884207D3022D05D00498D0B1B8F1000F8B
:1028D0001AD01EE02A4651462046FFF784FA616A64
:1028E00019B104F1240000F045FC20B13E60BFF3B3
:1028F0004F8FBFF36F8FFFF701FD012006B0BDE8DA
:10290000F087FFF7FBFC22E06846FFF79BFD4FF0E6
:102910000108FFF7F3FCFFF745FEFFF7CFFC94F942
:102920004400401C01D184F8449094F94500401CB7
:1029300001D184F84590FFF7E1FC04A9684600F056
:102940007FFA30B12046FFF7A5FB00F04DFC0020D8
:10295000D4E7FFF7B3FCA06BE16B884213D1FFF71C
:10296000CDFC04F110000499FFF77AFD2046FFF733
:1029700091FB00F039FC00289ED13E60BFF34F8FE1
:10298000BFF36F8F98E7FFF7B9FC2046FFF782FB94
:1029900000F02AFC90E7000004ED00E02DE9F0478C
:1029A0001F4690468946040003D0B9F1000F08D0B5
:1029B00011E0502080F31188BFF34F8FBFF36F8F6A
:1029C000FEE7206C38B1502080F31188BFF34F8FA1
:1029D000BFF36F8FFEE7022F0AD1E06B012807D00B
:1029E000502080F31188BFF34F8FBFF36F8FFEE746
:1029F000FFF7D8FC5020EFF3118680F31188BFF366
:102A00004F8FBFF36F8FA06BE16B884206D3022F0D
:102A100004D0002086F31188BDE8F08794F9455072
:102A20003A4649462046FFF7DEF9681C04D06D1C83
:102A300084F845500120EDE7606A0028FAD004F1DF
:102A4000240000F097FB0028F4D0B8F1000FF1D07B
:102A50000121C8F80010EDE770B50E46040009D05A
:102A6000206C78B1502080F31188BFF34F8FBFF3F3
:102A70006F8FFEE7502080F31188BFF34F8FBFF3B5
:102A80006F8FFEE7206848B9A06838B1502080F306
:102A90001188BFF34F8FBFF36F8FFEE7FFF782FC04
:102AA0005020EFF3118580F31188BFF34F8FBFF3F0
:102AB0006F8FA16BE06B884218D994F94500491CCF
:102AC000A163411C04D0401C84F8450001200EE0A5
:102AD000606A0028FAD004F1240000F04BFB0028C3
:102AE000F4D0002EF2D001203060EFE7002085F313
:102AF000118870BD2DE9F747002683B08A4604008F
:102B000003D0BAF1000F08D011E0502080F31188F3
:102B1000BFF34F8FBFF36F8FFEE7206C38B15020AB
:102B200080F31188BFF34F8FBFF36F8FFEE700F084
:102B300019FADFF8F4804FF000094FF0805748B9D8
:102B4000059838B1502080F31188BFF34F8FBFF341
:102B50006F8FFEE7FFF7B2FBA56BC5B1514620466C
:102B6000FFF72EF96D1EA563206950B104F1100026
:102B700000F000FB28B1C8F80070BFF34F8FBFF31F
:102B80006F8FFFF7BBFB012006B0BDE8F08705980B
:102B900008B11EB106E0FFF7B1FB27E06846FFF77A
:102BA00051FC0126FFF7AAFBFFF7FCFCFFF786FBB1
:102BB00094F94400401C01D184F8449094F94500F4
:102BC000401C01D184F84590FFF798FB05A96846A1
:102BD00000F036F9002820460AD0FFF75BFA00F033
:102BE00003FB2046FFF724FA0028B3D00020CBE7F0
:102BF000FFF71EFA90B104F124000599FFF730FCAD
:102C00002046FFF747FA00F0EFFA0028A2D1C8F8F3
:102C10000070BFF34F8FBFF36F8F9BE72046FFF726
:102C200039FA00F0E1FA95E704ED00E02DE9F0470C
:102C300090468946040003D0B9F1000F08D011E096
:102C4000502080F31188BFF34F8FBFF36F8FFEE7E3
:102C5000206C38B1502080F31188BFF34F8FBFF341
:102C60006F8FFEE7FFF79EFB5020EFF3118680F396
:102C70001188BFF34F8FBFF36F8FA76BF7B194F934
:102C8000445049462046FFF79BF87F1EA763681C07
:102C900004D06D1C84F84450012010E02069002805
:102CA000FAD004F1100000F065FA0028F4D0B8F171
:102CB000000FF1D00121C8F80010EDE7002086F3E5
:102CC0001188BDE8F08700002DE9F343002683B0AA
:102CD0000400354609D0206C78B1502080F311886B
:102CE000BFF34F8FBFF36F8FFEE7502080F3118843
:102CF000BFF34F8FBFF36F8FFEE700F033F9DFF8BC
:102D00003C814FF000094FF0805748B9049838B122
:102D1000502080F31188BFF34F8FBFF36F8FFEE712
:102D2000FFF7CCFAA06BC8B1401EA063206810B9B1
:102D3000FFF752FAA060206950B104F1100000F0D2
:102D400019FA28B1C8F80070BFF34F8FBFF36F8F27
:102D5000FFF7D4FA012005B0BDE8F083049808B16C
:102D600066B10FE03DB1502080F31188BFF34F8F63
:102D7000BFF36F8FFEE7FFF7C1FA5DE06846FFF72C
:102D800061FB0126FFF7BAFAFFF70CFCFFF796FA92
:102D900094F94400401C01D184F8449094F9450012
:102DA000401C01D184F84590FFF7A8FA04A96846B1
:102DB00000F046F80028204612D0FFF76BF900F02B
:102DC00013FA2046FFF734F90028A9D09DB3FFF786
:102DD00075FA606A50B3206B0068C0F1070126E005
:102DE000FFF726F9E0B1206838B9FFF767FAA06865
:102DF00000F076F90546FFF781FA04F12400049902
:102E0000FFF72EFB2046FFF745F900F0EDF900280B
:102E100086D1C8F80070BFF34F8FBFF36F8F7FE785
:102E20002046FFF737F900F0DFF979E70021A068C5
:102E3000FFF72EFB9FE7FFE700208CE704ED00E0A3
:102E40002DE9F0410C46050011D0C4B1FFF736FA68
:102E5000174B5A696E682068911B471C17D02F6862
:102E60009B6A9F4219D0964217D8012410E0502047
:102E700080F31188BFF34F8FBFF36F8FFEE75020B1
:102E800080F31188BFF34F8FBFF36F8FFEE70024ED
:102E9000FFF734FA2046BDE8F081884205D9401A90
:102EA00020602846FFF7CEFAF1E700202060DCE73B
:102EB000240000202DE9FF5F8346DDE90E87994657
:102EC00016468A469000FFF71BF905001CD05420D7
:102ED000FFF716F9040014D00020256384F8510090
:102EE000CDE90240CDE900874B463246514658466F
:102EF000FFF72BF82046FEF7FBFE012004B0BDE8EB
:102F0000F09F2846FFF70EFA4FF0FF30F6E7F0B5D6
:102F100085B0DDE90B640A9DA6B1DCB154270097AA
:102F20002663022684F85160002604AFCDE90246EC
:102F3000CDE90057FFF709F82046FEF7D9FE0498BF
:102F400005B0F0BD502080F31188BFF34F8FBFF361
:102F50006F8FFEE7502080F31188BFF34F8FBFF3D0
:102F60006F8FFEE70548C16919B1806B18B1002069
:102F700070470120704702207047000024000020A5
:102F80002DE9F0412E4C0027A06B40B1206A401C77
:102F90002062606A00B101273846BDE8F0816669A9
:102FA000761C666113D16068006838B1502080F3E8
:102FB0001188BFF34F8FBFF36F8FFEE76068A16882
:102FC0006160A060A06A401CA062FFF73FF8206B20
:102FD000DFF87080864209D36068006880B160685D
:102FE000C068C568686886420DD220632068C06AE0
:102FF00000EB800158F821000128CAD90127C8E751
:103000004FF0FF30F1E7281DFFF708F9A86A18B163
:1030100005F11800FFF702F9E86A0121A269814071
:103020001143A16100EB800108EB8100291DFFF72E
:1030300039F9E86A2168C96A8842CDD30127CBE70C
:10304000240000205C03002070B504004FF0000154
:1030500040D0214D2868844207D0502080F3118849
:10306000BFF34F8FBFF36F8FFEE7A06C38B1401EE8
:10307000A064636CE26A9A422CD040B12AE05020EE
:1030800080F31188BFF34F8FBFF36F8FFEE7201DD2
:10309000FFF7C4F8114A012150B9E06A00EB800340
:1030A00052F8233023B9AB6901FA00F08343AB61D6
:1030B000606CE062C0F10700A061E06AAB6981402A
:1030C0001943A96100EB800002EB8000211DFFF78E
:1030D000E9F80121084670BD240000205C030020AF
:1030E00070B504004FF0000038D0204DE16A2A6826
:1030F000D26A914233D2A069002804DB2868C06AF2
:10310000C0F10700A0611A4E01EB8101606906EB76
:10311000810188421ED1201DFFF780F8012150B99E
:10312000E06A00EB800256F8222022B9AA6901FA6F
:1031300000F08243AA612868C06AE062AA698140FF
:103140001143A96100EB800006EB8000211DFFF711
:10315000A9F802E02868C06AE062012070BD616CD5
:103160002A68D26A9142F8D370BD00002400002082
:103170005C0300202DE9F041C068C468ACB104F1E3
:1031800018000746FFF74AF8154DA86B0126A0B1B5
:1031900039461448FFF786F8E06A2968C96A884208
:1031A0001CD901206E62BDE8F081502080F31188A7
:1031B000BFF34F8FBFF36F8FFEE7201DFFF72EF891
:1031C000E16AAA6906FA01F01043A86101EB8100E7
:1031D0000449B43901EB8000211DDBE70020E2E760
:1031E00024000020100400202DE9F0472C4D00247D
:1031F0002746A86B38B1FFF761F8A86B401EA8639B
:10320000A86B40B146E0502080F31188BFF34F8F88
:10321000BFF36F8FFEE72969224E0120D1B3A6F1DB
:10322000B40980463068E8B1F068C46804F1180059
:10323000FEF7F4FF201DFEF7F1FFE06AAA6908FA25
:1032400000F11143A96100EB800109EB8100211D10
:10325000FFF728F8E06A2968C96A8842E2D3C5F80E
:103260002480DFE70CB1FEF7F1FE2C6A44B146463C
:10327000FFF786FE00B16E62641EF9D1002028625D
:10328000686A38B10849012738070860BFF34F8FD3
:10329000BFF36F8FFFF732F83846BDE8F0870000C4
:1032A000240000201004002004ED00E010000000C5
:1032B000020000000000000030330008FD1200088A
:1032C000000000000000000080000000000000007E
:1032D0000000000038330008D5120008000000008C
:1032E000000000008000000000000000000000005E
:1032F0002433000851130008FDFF00000000000007
:10330000800000000000000000000000000000003D
:103310000000000001020304060708090000000085
:10332000010203046D795461736B303300000000B7
:103330004D61696C000000004D61696C436F6E73F4
:10334000756D657200000000683300080000002001
:10335000880000003C180008F033000888000020B6
:10336000C84300004C1800080000000000000000E6
:10337000000000000000000000000000010000004C
:1033800010000000000000000024F4000000000015
:10339000000000000000000000000000000000002D
:1033A000000000000000000000000000000000001D
:1033B000000000000000000000000000000000000D
:1033C00000000000000000000000000000000000FD
:1033D00000000000000000000000000000000000ED
:1033E00000000000AAAAAAAA000000000000000035
:040000050800018965
:00000001FF
