:020000040800F2
:10000000B8360120FD020008690B000887090008C6
:10001000650B00087D0800089F1300080000000021
:100020000000000000000000000000003D02000889
:10003000990800080000000099020008450F000818
:100040001703000817030008170300081703000828
:100050001703000817030008170300081703000818
:100060001703000817030008170300081703000808
:1000700017030008170300081703000817030008F8
:1000800017030008170300081703000817030008E8
:1000900017030008170300081703000817030008D8
:1000A00017030008170300081703000817030008C8
:1000B00017030008E10F00081703000817030008E2
:1000C00017030008170300081703000817030008A8
:1000D0001703000881110008170300081703000820
:1000E0001703000817030008170300081703000888
:1000F0001703000817030008170300081703000878
:100100001703000817030008711000081703000800
:100110001703000817030008170300081703000857
:100120001703000817030008170300081703000847
:100130001703000817030008170300081703000837
:100140001703000817030008170300081703000827
:100150001703000817030008170300081703000817
:100160001703000817030008170300081703000807
:1001700017030008170300081703000817030008F7
:10018000170300081703000800F002F800F047F812
:100190000AA090E8000C82448344AAF10107DA45E2
:1001A00001D100F03CF8AFF2090EBAE80F0013F0ED
:1001B000010F18BFFB1A43F001031847CC340000AD
:1001C000EC340000103A24BF78C878C1FAD852073E
:1001D00024BF30C830C144BF04680C6070470000C1
:1001E0000023002400250026103A28BF78C1FBD840
:1001F000520728BF30C148BF0B607047642900F028
:100200001D81752900F01A81732900F09682002063
:1002100070471FB503F032FA1FBD10B510BD00F0D6
:10022000FBFA1146FFF7F5FF01F07CF900F019FB2E
:1002300003B4FFF7F2FF03BC01F0B3F82C4B1968CD
:100240000868B0E8F04F80F30988BFF36F8F4FF074
:10025000000080F311887047000000000848006823
:10026000006880F308884FF0000080F3148862B6BD
:1002700061B6BFF34F8FBFF36F8F00DF00BF00BFCA
:1002800008ED00E0DFF80C00016841F47001016046
:10029000704700BF88ED00E0EFF30980BFF36F8F78
:1002A000134B1A681EF0100F08BF20ED108A20E9CA
:1002B000F04F106009B44FF0500080F31188BFF385
:1002C0004F8FBFF36F8F02F05FFB4FF0000080F3A2
:1002D000118809BC19680868B0E8F04F1EF0100FCB
:1002E00008BFB0EC108A80F30988BFF36F8F7047A6
:1002F0004C000020EFF3058070470000094880475C
:1003000009480047FEE7FEE7FEE7FEE7FEE7FEE7F7
:10031000FEE7FEE7FEE7FEE704480549054A064B0F
:1003200070470000790F000889010008B8300120EB
:10033000B8360120B8320120B832012070470000E1
:100340000FB4044910B503AA029800F0FBF910BCE1
:100350005DF814FB340000200FB41CB5074B06AA4F
:100360007B4469460090059800F0BDF9002069467D
:1003700000F0CCF91CBC5DF814FB0000A9030000E0
:100380002DE9F0410E460446002020622046E16837
:10039000884730B3252805D0D4E901219047206A49
:1003A000401CF2E7E168204600278847050018D086
:1003B000A5F14100192802D820354FF400673246D4
:1003C000294620462760FFF719FF40B1012804D0D5
:1003D000F61D26F007060836D8E7361DD6E728466C
:1003E000DAE7206ABDE8F08170B50C460546012ABF
:1003F00005D02878800600D5EA69002302E00123B1
:1004000005E05B1C934202D2E05C0028F9D1A869A8
:10041000E618C01AA861286A184428622846AFF373
:10042000008004E0D5E9012114F8010B9047B442A3
:10043000F8D32846AFF3008070BD00002DE9F041ED
:100440000646002410687529314616A510D0AFF372
:100450000080002802DA404213A507E031688A07CD
:1004600001D512A502E0490704D511A5012401E038
:10047000AFF3008000210A2206F1240709E0B0FB57
:10048000F2FCB0FBF2F302FB1C003030785418464B
:10049000491C0028F3D123462A463046BDE8F041E6
:1004A00000F0C3B8000000002D0000002B00000089
:1004B0002000000040EA0103024630B59B0710D13E
:1004C0004FF0013400E008C208C91D1B9D4315EA26
:1004D000C41FF8D013F0FF0102F8011B0DD01B0A56
:1004E000F8E711F8013B002B02F8013B05D011F8A9
:1004F000013B002B02F8013BF3D130BD10B5431C8A
:1005000002E010F8011B71B18107FAD14FF00132FE
:1005100002C88C1A8C4314EAC211F9D0C01A0A0618
:1005200003D0C01E10BDC01A10BD0A0401D0801E29
:1005300010BD0902FCD0401E10BD032A40F23080DD
:1005400010F0030C00F0158011F8013BBCF1020F14
:10055000624498BF11F801CB00F8013B38BF11F895
:10056000013BA2F1040298BF00F801CB38BF00F8AC
:10057000013B11F0030300F0F780083AC0F0088057
:1005800051F8043B083A51F804CBA0E80810F5E70D
:10059000121D5CBF51F8043B40F8043BAFF30080F0
:1005A000D20724BF11F8013B11F801CB48BF11F865
:1005B000012B24BF00F8013B00F801CB48BF00F835
:1005C000012B704702F0FF0343EA032242EA024292
:1005D00000F0FEB84FF0000200B513469446964670
:1005E000203922BFA0E80C50A0E80C50B1F1200146
:1005F000BFF4F7AF090728BFA0E80C5048BF0CC0F4
:100600005DF804EB890028BF40F8042B08BF704751
:1006100048BF20F8022B11F0804F18BF00F8012BC3
:10062000704770477047704770472DE9F0470D4697
:1006300099469246044600F124080168880604D5CC
:10064000E06921F01001216000E00120A84201DDF5
:10065000471B00E00027A1697A1902EB0900081A7C
:10066000A0612078C00602D42046AFF300800026A7
:1006700008E0D4E901211AF806009047206A401CDE
:10068000761C20624E45F4DB2078C0060AD5204651
:10069000AFF3008006E0D4E9012130209047206AC2
:1006A000401C2062381EA7F10107F4DC07E0D4E902
:1006B000012118F805009047206A401C2062281E7E
:1006C000A5F10105F3DC2046AFF300802078000699
:1006D00002D50220BDE8F0870120FBE701694A1C32
:1006E00002610878704700B58FB0CDE90131002173
:1006F000059105497944CDE9031011466846FFF795
:100700003FFE0FB000BD0000E5FFFFFF0A6802F8E2
:10071000010B0A60704710B5436913B1AFF3008055
:1007200001E0FFF761FE012010BD127800F1240105
:100730000A7000224A700122EDE711684FF0FF3283
:10074000E9E70000074B70B50D467B44FFF7CBFF90
:100750000446284600F05CF810B14FF0FF3070BD41
:10076000204670BDBB0D000010B5203AC0F00B80D4
:10077000B1E81850203AA0E81850B1E81850A0E8A5
:100780001850BFF4F5AF5FEA027C24BFB1E81850FF
:10079000A0E8185044BF18C918C0BDE810405FEA6F
:1007A000827C24BF51F8043B40F8043B08BF7047EB
:1007B000D20728BF31F8023B48BF11F8012B28BFF0
:1007C00020F8023B48BF00F8012B70474FF00002B1
:1007D0000429C0F0128010F0030C3FF4FDAECCF100
:1007E000040CBCF1020F18BF00F8012BA8BF20F8C1
:1007F000022BA1EB0C01FFF7EFBE5FEAC17C24BF27
:1008000000F8012B00F8012B48BF00F8012B7047BE
:10081000007B00F080007047754600F02BF8AE4674
:1008200005006946534620F00700854618B020B5FC
:10083000FFF772FDBDE820404FF000064FF00007C3
:100840004FF000084FF0000B21F00701AC46ACE878
:10085000C009ACE8C009ACE8C009ACE8C0098D46E5
:10086000704710B50446AFF300802046BDE8104045
:10087000FFF7DEBC004870475830012000BFFEE79C
:1008800010B50021034A116051605321312000F05E
:10089000C1FB10BD280000207047F0B50A460021BA
:1008A0000023002400BF3DE0012505FA01F315688F
:1008B00005EA03049C4234D105684F000326BE407C
:1008C000B543056015794E00B540066835430560AF
:1008D0001579012D02D01579022D16D185684F00AA
:1008E0000326BE40B543856055794E00B540866805
:1008F00035438560456801268E40B54345604568AF
:1009000096798E40B6B235434560C5684F000326E0
:10091000BE40B543C560D5794E00B540C668354385
:10092000C560491C1029BFD3F0BDF0B500230024D9
:100930004D07ED0E02FA05F3CE1000F1200555F833
:1009400026504E07F70E0F26BE40B543CF1000F1DC
:10095000200646F82750CE1000F1200555F8265005
:1009600045EA0304CE1000F1200545F82640F0BD0D
:100970000246002013690B400BB1012000E000206B
:1009800070470183704700BFFEE700001CB50121DE
:10099000112000F031F91C20009000208DF8040097
:1009A00003208DF8050001208DF8070069460648F0
:1009B000FFF773FF0120009002208DF807006946C1
:1009C0000248FFF76AFF1CBD001002400000024011
:1009D00010B5044614B101202C4908702B4800784A
:1009E000002837D010212A48FFF7C2FF78B108212C
:1009F0002748FFF7BDFF50B104212548FFF7B8FF96
:100A000028B101212348FFF7B3FF012822D10A2092
:100A100000F0ECFC00201D49087010211C48FFF775
:100A2000A7FF08B9012010BD08211948FFF7A0FF52
:100A300008B90220F7E704211548FFF799FF08B924
:100A40000320F0E701211348FFF792FF01281BD193
:100A50000420E8E710210E48FFF78AFF012813D190
:100A600008210B48FFF784FF01280DD10421084815
:100A7000FFF77EFF012807D101210648FFF778FF25
:100A800010B90120014908700020CCE724000020A3
:100A90000010024000000240002411E0601C84B2FB
:100AA0000848006808B9012000E0002005490860F6
:100AB0004FF47A7001F07AFD214603A0FFF740FC65
:100AC000ECE70000980240424C454430C8CECEF1DD
:100AD000D6B4D0D020256420B4CE0A0D000000008A
:100AE000002411E0601C84B20848006808B90120A5
:100AF00000E00020054908604FF47A7001F056FDCF
:100B0000214603A0FFF71CFCECE700009C024042DA
:100B10004C454431C8CECEF1D6B4D0D02025642087
:100B2000B4CE0A0D000000001CB50121084600F0FB
:100B300063F8C020009001208DF8040000208DF89B
:100B4000060003208DF8050001208DF80700694696
:100B50000348FFF7A2FEC0210148FFF712FF1CBDAA
:100B60000000024000BFFEE77047000070B50021A2
:100B700000230F22C4781CB3174C246804F4E064EB
:100B8000C4F5E064C4F30721C1F10404E3B20A41EF
:100B900044789C40E1B28478144021430C07210E34
:100BA0000E4C05786155047804F01F050124AC4013
:100BB00005786D11AD0005F1E025C5F8004109E0AB
:100BC000047804F01F050124AC40054D0678761129
:100BD00045F8264070BD00000CED00E000E400E0A8
:100BE00080E100E002490143024A116070470000C1
:100BF0000000FA050CED00E029B1064A1268024334
:100C0000044B1A6004E0034A12688243014B1A60E5
:100C1000704700003038024029B1064A126802438A
:100C2000044B1A6004E0034A12688243014B1A60C5
:100C3000704700004038024029B1064A126802435A
:100C4000044B1A6004E0034A12688243014B1A60A5
:100C50007047000044380240F0B500210022002413
:100C6000022500260223324F3F6807F00C0121B114
:100C7000042905D0082937D105E02E4F076036E05A
:100C80002D4F076033E02A4F3F1F3F68C7F3805660
:100C9000274F3F1F3F6807F03F036EB1264FB7FB5A
:100CA000F3F7DFF88CC0ACF1040CDCF800C0CCF337
:100CB000881C07FB0CF40CE01E4FB7FBF3F7DFF8C2
:100CC00070C0ACF1040CDCF800C0CCF3881C07FB4E
:100CD0000CF4174F3F1F3F68C7F301477F1C7D008F
:100CE000B4FBF5F7076002E0124F076000BF00BFDA
:100CF0000F4F3F6807F0F0010909104F7A5C076851
:100D0000D74047600A4F3F6807F4E051890A0B4F0C
:100D10007A5C4768D7408760054F3F6807F46041B9
:100D2000490B064F7A5C4768D740C760F0BD0000AA
:100D3000083802400024F40000127A003A00002033
:100D4000002412E00020FFF743FE0446042C09D1E2
:100D5000064801F015FD06A0FFF7F2FA03490DA0C1
:100D6000FFF7EEFA0A2001F021FCEBE7D0000020AB
:100D7000C8CECEF1C3FB090909D4CBD0D0CAB1BCCF
:100D8000E409D4CBD0D0CBF9D5BCB0D9B7D6B0D943
:100D9000090D0A0025730D0A000000000CB50020A3
:100DA000019000903448006840F480303249086077
:100DB00000BF3148006800F4003000900198401CEA
:100DC0000190009818B90198B0F5A04FF1D12A48C8
:100DD000006800F4003010B10120009001E0002014
:100DE00000900098012846D123484030006840F028
:100DF00080502149403108602048006840F440405C
:100E00001E4908601C48083000681B49083108600A
:100E10000846006840F4004008600846006840F456
:100E2000A05008601648091F0860081F006840F0BD
:100E30008070091F086000BF0F48006800F0007054
:100E40000028F9D040F205700E4908600A480830C1
:100E5000006820F00300084908310860084600686F
:100E600040F00200086000BF03480830006800F04E
:100E70000C000828F8D10CBD00380240007000407A
:100E800008544007003C02401CB5044601F068FAD3
:100E90001248022100238022CDE9001010A113483E
:100EA00002F062F91248032100238022CDE90010EC
:100EB00010A1134802F058F912480421002380229F
:100EC000CDE9001010A1134802F04EF91248006855
:100ED00001F09AFB01F06EFA1CBD00000400002036
:100EE0004C4544305461736B00000000990A0008BF
:100EF000080000204C4544315461736B0000000031
:100F0000E10A00080C00002052554E54494D45544A
:100F100061736B00410D000800000020042808D117
:100F20004FF0E021096941F004014FF0E022116126
:100F300007E04FF0E021096921F004014FF0E022C1
:100F40001161704710B500BF502080F31188BFF3C6
:100F50004F8FBFF36F8F00BF02F04CF918B14FF005
:100F600080500449086000BF002080F3118800BF52
:100F700010BD000004ED00E010B51548006840F415
:100F80007000134908601348006840F001001149DF
:100F9000086000200F49083108600E4800680E49BB
:100FA00008400C4908600D48091D0860081F0068CA
:100FB00020F48020091F0860002006490C310860D9
:100FC000FFF7ECFE4FF0006001498039086010BD6A
:100FD00088ED00E000380240FFFFF6FE10300024EC
:100FE00010B50121094800F06EF8012808D1084821
:100FF00002684068521C40F1000005490A604860E0
:101000000121024800F050F810BD0000000400402B
:10101000280000207FB505460C4601210220FFF77D
:10102000FBFD0295ADF804400020ADF80600ADF8D8
:101030000C0001A90D4800F061F8012211460B488F
:1010400000F052F80121094800F031F81D208DF818
:10105000000004208DF8010000208DF8020001201E
:101060008DF803006846FFF781FD7FBD0004004056
:1010700010B50121064800F026F8012802D105A08C
:10108000FFF75EF90121024800F00EF810BD0000E4
:10109000000C004054494D35CAE4B3F62E2E2E2ED6
:1010A0002E2E2E0D0A000000CA430282704721B185
:1010B000028842F00102028004E002884FF6FE73CB
:1010C0001A400280704730B50246002000230024F9
:1010D000158A05EA0103958905EA010413B10CB1EB
:1010E000012000E0002030BD1AB183890B438381C9
:1010F00002E083898B4383817047000000220288CD
:10110000184B98420ED0184B98420BD0B0F1804F3C
:1011100008D0164B984205D0154B984202D0154B7B
:10112000984204D14FF68F731A404B881A43124BE2
:10113000984207D0114B984204D04FF6FF431A4013
:101140000B891A4302804B68C3620B880385054BE9
:10115000984202D0044B984201D18B7A0386012336
:1011600083827047000001400004014000040040F9
:1011700000080040000C0040001000400014004037
:1011800010B540F225511D4800F04AF810B31B4835
:1011900000F000F9C4B21A48008800F40040C8B951
:1011A0001748008800F4804060B10A2C03D000206A
:1011B0001349088020E01248008840F4004010499C
:1011C000088019E00D2C06D10D48008840F48040BD
:1011D0000B49088010E00A480088C0F30D00094957
:1011E0000C5407480088401C0549088008460088C0
:1011F000C72801DD0020088010BD0000001001405C
:10120000380000206002002021B1828942F400529F
:10121000828104E082894DF6FF731A408281704713
:1012200070B50246002400230025002040F66A160F
:10123000B14200D100BFC1F3421501F01F030126E6
:1012400006FA03F3012D02D19689334006E0022D00
:1012500002D1168A334001E0968A33400C120126EF
:1012600006FA04F41688344013B10CB1012000E0F2
:10127000002070BDF0B503460024002600250020A4
:1012800040F66A17B94200D100BF1846C1F34214B4
:1012900001F01F06012707FA06F5012C01D10C30D9
:1012A00004E0022C01D1103000E014301AB10768BC
:1012B0002F43076002E00768AF430760F0BD0000FE
:1012C0002DE9FF4705460E460024A14600BFA04673
:1012D000B08900B100BF2C8A24F44054F088044344
:1012E0002C82AC8941F20C608443B0883189084378
:1012F000718908430443AC81AC8A24F44074B089FA
:101300000443AC826846FFF7A7FC2048854202D020
:101310001F48854202D1DDF80C9001E0DDF808900D
:10132000A88900F4004040B109EBC90000EB0910A6
:1013300031684900B0FBF1F707E009EBC90000EBA9
:10134000091031688900B0FBF1F76420B7FBF0F0B9
:1013500004012009642101FB1078A88900F40040F1
:1013600040B1322000EBC800B0FBF1F000F0070004
:10137000044308E0322000EB08106421B0FBF1F0D8
:1013800000F00F0004432C81BDE8FF8700100140EE
:101390000014014001468888C0F30800704700BF70
:1013A000FEE700BF7047000070B504460420FFF759
:1013B000B5FD0C48047025464FF47A704543012072
:1013C000094908804FF0E020006940F002004FF02A
:1013D000E021086108464561006940F001000861AC
:1013E00070BD0000300000203200002070B50446BF
:1013F00001F0EAFE012810D00B480088844206D391
:1014000009480088B4FBF0F5284601F0CFF80648FB
:101410000088B4FBF0F100FB11444FF47A7104FB37
:1014200001F000F003F870BD3200002070B50346F3
:1014300000224FF0E02675690D4E367803FB06F466
:101440004FF0E026B16910E04FF0E026B069884225
:101450000BD0884202D20E1A324402E02E1A0E44F9
:1014600032440146A24200D300E0EDE700BF70BD68
:10147000300000202DE9F04707463E4656B900BF30
:10148000502080F31188BFF34F8FBFF36F8F00BFE1
:1014900000BFFEE717480068864201D1002426E01D
:1014A00000F05EFF75691448D0F800801348D0F84A
:1014B000009000F07FFF454501D04D4501D1022449
:1014C00015E00F4885420BD1B06A38B996F858003C
:1014D000012801D102240AE0032408E0022406E0E6
:1014E0000848854200D00DB9042400E001242046BC
:1014F000BDE8F0874C000020500000205400002080
:101500001C0400200804002000BF054A128802F0D5
:101510004002002AF9D0C2B2014B9A807047000005
:10152000001001401CB54FF44070FFF75BFBA82092
:10153000FFF73AFF4FF4E13000F016FEFFF7F4FA40
:10154000FFF724FA0648012100238022CDE900108C
:1015500004A1074801F008FE01F0C2F900201CBDFB
:101560000000002053746172745461736B000000BA
:10157000890E00082DE9F04105460E461C48076813
:101580001C480068001D00F045FE50B9194800686D
:1015900090F82C10012088401749096881431648AB
:1015A0000160681C38B936B112480168091D13483A
:1015B00000F0CAFE1AE07C190E4800684460BC4284
:1015C00007D20C480168091D0D48006800F0A2FE12
:1015D0000CE008480168091D0A48006800F09AFEFE
:1015E00009480068844201D207480460BDE8F081E0
:1015F000600000204C000020640000201C0400203B
:1016000054000020500000207C00002010B504464B
:1016100000F0A6FE24480068401C234908602348C7
:10162000006840B9214804600846006801280DD1CF
:1016300000F0D8F90AE01E48006838B91B48006875
:10164000C06AE16A884201D81848046019480068F5
:10165000401C1849086008460068206494F82C1063
:101660000120884014490968084313490860E16A69
:1016700001EB8101114A02EB8100211D00F064FEA3
:1016800000F098FE0A48006868B108480068C06A1F
:10169000E16A884207D24FF0805009490860BFF3E1
:1016A0004F8FBFF36F8F10BD5C0000204C000020F7
:1016B00068000020780000206400002068030020FB
:1016C00004ED00E010B500F04BFE10480068D0B902
:1016D0000F4800F00FFE0F4800F00CFE0C480E49BA
:1016E00008600C480D49086000220C210A2001F016
:1016F00079FA064908600846006820B108A1034845
:10170000006800F017FF00F055FE10BD98000020A3
:1017100030040020440400209000002094000020A9
:10172000546D72510000000010B516E000F018FE74
:101730000C48C068C468201D00F06CFD0A480068B1
:10174000401E0949086009480068401E07490860B2
:1017500000F030FE204600F05FF8044800680028E2
:10176000E4D110BD080400205C00002058000020D7
:1017700070B504460D46206C70B1216CE0680144E0
:10178000E160D4E90210884201D32168E160284673
:10179000226CE168FEF7D1FE70BD2DE9F0410446F0
:1017A0000F4615464FF00008A66B206C48B920681C
:1017B00000282CD1A06801F0C1FD80460020A06067
:1017C00025E07DB93946226C6068FEF7B6FE216CD3
:1017D000606808446060D4E90101884217D320683A
:1017E000606014E03946226CE068FEF7A6FE216CCA
:1017F000E068411AE1602168E068884203D2216C08
:10180000A068411AE160022D01D106B1761E701C5C
:10181000A0634046BDE8F08110B50446206B00F09F
:10182000E7FD204600F0E4FD10BD00000146084A37
:10183000126812680AB9012200E000220A600A68F0
:1018400022B9034A1268D268106800E0002070478D
:101850009000002030B54FF49633174800F007048D
:101860002CB1C01D20F00700134C041B1B1B0246AB
:10187000124C22600024114D6C60D018083820F002
:1018800007000F4C206000240D4D2D686C600C4D3E
:101890002D682C601146441A4C60094C24680C6079
:1018A000084D4C682C60084D4C682C604FF000448B
:1018B000064D2C6030BD000058040020B000002010
:1018C000B8000020C0000020BC000020CC00002098
:1018D00000BFFFF729FF064800680128F9D94FF03B
:1018E000805004490860BFF34F8FBFF36F8FF0E75C
:1018F0006803002004ED00E02DE9F04106460D46A6
:1019000017469846069C0DB9246000E02760E66300
:1019100025640121204601F08FF984F84C80BDE850
:10192000F0812DE9F05F82460E4690469B460A9F65
:101930000C9C4FEA8801A522206BFEF743FEA8F11C
:101940000100216B01EB800929F0070909F007006C
:1019500008B9012000E0002050B900BF502080F3FA
:101960001188BFF34F8FBFF36F8F00BF00BFFEE73B
:1019700086B1002507E0715D04F134004155705DCA
:1019800000B902E06D1C0A2DF5D300BF00213D20F7
:10199000015502E0002084F83400052F00D304270D
:1019A000E762A7640020E064201D00F0B0FC04F1B1
:1019B000180000F0ACFC2461C7F10500A06164626E
:1019C00000202065606584F858005A465146484614
:1019D00000F0B4FB20600B9808B10B980460BDE8E0
:1019E000F09F000010B5002407E004EB84010F4ACB
:1019F00002EB810000F07EFC641C052CF5D30C4842
:101A000000F078FC0B4800F075FC0B4800F072FC0D
:101A10000A4800F06FFC0A4800F06CFC04480949D1
:101A2000086004480849086010BD000068030020F1
:101A3000CC030020E0030020F40300200804002071
:101A40001C040020500000205400002010B5014666
:101A5000164800E0006803688B42FBD302464368E7
:101A600013448B4204D143684C68234443600146CD
:101A70000A464B6813440468A34211D10C4C036816
:101A80002468A34208D04B680468646823444B6010
:101A900003681B680B6005E0054B1B680B6001E0E9
:101AA00003680B60884200D0016010BDB0000020C8
:101AB000B80000202DE9F04104460D4616461F46A9
:101AC0004FF0000865602461B5420CD8F01BA16995
:101AD000884202D34FF0010811E0211D0948006837
:101AE00000F018FC0BE0BE4204D2BD4202D34FF01E
:101AF000010804E0211D0448006800F00BFC40468A
:101B0000BDE8F081940000209000002070B50546EB
:101B100000F026FCA86B08B9012400E0002400F0C6
:101B200049FC204670BD70B5054600F019FCA86B55
:101B3000E96B884201D1012400E0002400F03AFC66
:101B4000204670BD2DE9F04707460C46904600261A
:101B5000206848B3204641684968416000F10801A7
:101B600042688A4202D14168496841604168D1F8BF
:101B70000C9000BF204641684968416000F10801AF
:101B800042688A4202D14168496841604168CD6833
:101B900006EBC60007EB800143460122284600F011
:101BA000ADFD761C4D45E5D13046BDE8F08700001F
:101BB000F8B505460F461A480068C068C468201D7D
:101BC00000F028FB94F8280000F00400E8B1A069B8
:101BD00041192B463A462046FFF76CFFD8B100204A
:101BE00003462A4601460090204601F005FD0646C0
:101BF00056B900BF502080F31188BFF34F8FBFF359
:101C00006F8F00BF00BFFEE705E094F8280020F0CA
:101C1000010084F828002046216A8847F8BD0000AA
:101C20009000002070B586B08BE003980028FBDBA5
:101C3000059C606908B9012000E0002010B9201D52
:101C400000F0E8FA02A800F0DDF8054603980A283B
:101C500075D2DFE800F009050739416306083A420A
:101C600000BF00BF00BF00BF94F8280040F0010093
:101C700084F828000498A269811803462A46204661
:101C8000FFF718FFF8B12046216A884794F828002A
:101C900000F00400B8B1002000900498A169421837
:101CA00000231946204601F0A7FC064656B900BF9E
:101CB000502080F31188BFF34F8FBFF36F8F00BFA9
:101CC00000BFFEE700BF3BE000BF94F8280020F013
:101CD000010084F8280033E000BF94F8280040F0A9
:101CE000010084F828000498A061A06908B10120CF
:101CF00000E0002050B900BF502080F31188BFF3EE
:101D00004F8FBFF36F8F00BF00BFFEE7A06941197F
:101D10002B462A462046FFF7CDFE11E094F8280016
:101D200000F0020018B9204600F062FB05E094F8CC
:101D3000280020F0010084F8280001E0FFE700BF40
:101D400000BF002203A90448006801F013F900282D
:101D50007FF46BAF06B070BD98000020F8B5054663
:101D60000C4600F009FE684600F04CF80646009864
:101D700020BB44B9B54206D801F090FB3146284655
:101D8000FFF716FF1CE03CB10E480068006808B978
:101D9000012000E000200446A91B22460A480068F2
:101DA00000F0DEFB01F07AFB50B94FF0805007499C
:101DB0000860BFF34F8FBFF36F8F01E001F06EFB40
:101DC000F8BD0000940000209800002004ED00E021
:101DD0000A490968096809B9012100E0002121B117
:101DE0004FF0FF31064A116006E004490968C968EE
:101DF000C868034A41681160704700005000002025
:101E00007C00002070B5044601F0EEF90546074855
:101E10000068854204D200F00BF80120206001E048
:101E20000020206001480560284670BDA000002009
:101E30002DE9F84334E025480068C0680568234868
:101E40000068C068C468201D00F0E4F92046216ADB
:101E5000884794F8280000F0040008B3A0694619E8
:101E6000AE4207D966602461211D1848006800F061
:101E700051FA15E0002003462A460146009020460C
:101E800001F0BAFB074657B900BF502080F3118814
:101E9000BFF34F8FBFF36F8F00BF00BFFEE700BFE0
:101EA0000A480068006808B9012000E00020002806
:101EB000C1D00648D0F80080054800680349086092
:101EC0000348C0F80080BDE8F883000090000020BF
:101ED000940000200246002101E0521C491C1078A9
:101EE000A528FAD0890888B2704700000E4800681B
:101EF000401C08B9012000E0002050B900BF50206C
:101F000080F31188BFF34F8FBFF36F8F00BF00BF07
:101F1000FEE700BF502080F31188BFF34F8FBFF35F
:101F20006F8F00BF00BFFEE7A400002008B500BF10
:101F30006846FFF77BFC044620460099FFF70EFF3A
:101F4000FFF770FEF4E770B5044600F009FA94F963
:101F5000455010E0606A08B9012000E0002038B95F
:101F600004F1240001F04EFA18B100F077FC00E013
:101F700003E0681E45B2002DECDC00BFFF2084F8B2
:101F8000450000F017FA00F0EBF994F9445010E026
:101F9000206908B9012000E0002048B904F11000D0
:101FA00001F030FA08B100F059FC681E45B200E0BB
:101FB00001E0002DECDC00BFFF2084F8440000F0BD
:101FC000F9F970BD70B505460E4631462846FEF754
:101FD00071FA2846FEF792FA044602E020202855BE
:101FE000641C092CFAD300202855281970BD000064
:101FF0002DE9F04104464FF0000800F0BDFC4948CF
:10200000006808B9FFF726FC474800682040002810
:1020100070D1D4B1083404F00700B0B104F0070067
:10202000C0F10800044404F0070008B9012000E0F2
:10203000002050B900BF502080F31188BFF34F8FAC
:10204000BFF36F8F00BF00BFFEE7002C52D03748B0
:10205000006884424ED8364E3046056801E02E4670
:102060002D686868A04202D228680028F7D12D4860
:10207000006885423ED0306800F10808286830606A
:102080006868001B102819D92F1907F0070008B934
:10209000012000E0002050B900BF502080F31188DB
:1020A000BFF34F8FBFF36F8F00BF00BFFEE76868BD
:1020B000001B78606C603846FFF7C8FC1B496868F5
:1020C0000968081A1949086008460068194909682A
:1020D000884203D2154800681649086012496868AA
:1020E0000968084368600020286013480068401CA5
:1020F0001149086001F0D2F908F0070008B9012081
:1021000000E0002050B900BF502080F31188BFF3D9
:102110004F8FBFF36F8F00BF00BFFEE74046BDE8A3
:10212000F0810000B8000020CC000020BC0000209E
:10213000B0000020C0000020C4000020001F4FF0AD
:1021400080730360001F21F001030360001F054B33
:10215000036014380260001F6FF002030360203830
:1021600070470000ED1E000810B588B0044601213C
:102170000846FEF741FD01211020FEF75DFD072214
:1021800009212248FEF7D1FB07220A211F48FEF74A
:10219000CCFB4FF4C060069002208DF81C008DF837
:1021A0001D0000208DF81E0001208DF81F0006A9DB
:1021B0001648FEF772FB02940020ADF80C00ADF853
:1021C0000E00ADF81000ADF814000C20ADF81200B0
:1021D00002A90F48FFF774F801210D48FFF714F822
:1021E000012240F225510A48FFF744F825208DF8D6
:1021F000040003208DF805008DF8060001208DF8FD
:10220000070001A8FEF7B2FC08B010BD00000240B4
:102210000010014001460A69D1E901309860D1E916
:10222000010358605068884201D1886850600020DE
:1022300008611068401E1060106870472DE9F04179
:102240000546884616460024052700F095FB2248DF
:10225000006880453BD300BF7F1E07EB87021F4B02
:1022600003EB820104EBC40205EB82000122FFF7BD
:1022700069FC0444002FEFD104EBC40105EB81009D
:10228000022217490968FFF75DFC044404EBC4010E
:1022900005EB8100022213490968FFF753FC04444F
:1022A00004EBC40105EB810004220F49FFF74AFC4F
:1022B000044404EBC40105EB810003220B49FFF742
:1022C00041FC04441EB10A4908684968306001F0C5
:1022D000E5F82046BDE8F0815C000020680300209E
:1022E0005000002054000020080400201C0400209E
:1022F0002800002000F1080141604FF0FF318160AB
:1023000000F10801C16001610021016070470021F6
:102310000161704710B502460B685C1C0CB910696E
:1023200007E002F1080000E04068446824689C422D
:10233000FAD944684C604C68A160886041600A61C9
:102340001468641C146010BD42684A6093688B6016
:10235000936859609160086103685B1C0360704773
:1023600000BF502080F31188BFF34F8FBFF36F8FF2
:1023700000BF0E480068401C0C4908600846006811
:10238000012812D10A480068C0B208B9012000E053
:10239000002050B900BF502080F31188BFF34F8F49
:1023A000BFF36F8F00BF00BFFEE77047A40000209F
:1023B00004ED00E00D48006850B900BF502080F3E4
:1023C0001188BFF34F8FBFF36F8F00BF00BFFEE7D1
:1023D00006480068401E054908600846006820B9A4
:1023E000002080F3118800BF00BF7047A4000020C8
:1023F00070B506463546002E44D0083D2C4622498D
:1024000060680968084008B1012000E0002050B968
:1024100000BF502080F31188BFF34F8FBFF36F8F41
:1024200000BF00BFFEE7206808B9012000E00020DF
:1024300050B900BF502080F31188BFF34F8FBFF316
:102440006F8F00BF00BFFEE70F4960680968084052
:10245000C0B12068B0B90C49606809688843606001
:1024600000F08AFA09496068096808440749086069
:102470002046FFF7EBFA06480068401C0449086054
:1024800001F00CF870BD0000CC000020BC00002062
:10249000C800002000204FF0E02108618861064854
:1024A00000684FF47A71B0FBF1F0401E4FF0E0216C
:1024B00048610720086170471000002070B5FDF7E3
:1024C00019FF0446102C16D304F1E02090F8F053C5
:1024D00015480078854201DB012000E0002050B95A
:1024E00000BF502080F31188BFF34F8FBFF36F8F71
:1024F00000BF00BFFEE70D48006800F4E0600C4933
:102500000968884201D8012000E0002050B900BFCE
:10251000502080F31188BFF34F8FBFF36F8F00BF40
:1025200000BFFEE770BD0000A80000200CED00E039
:10253000AC000020024600200BE0084B53F830307E
:1025400033B9064B43F8301003EBC0035A6002E086
:10255000401C0828F1D300BF70470000280300206A
:102560002DE9F04105460E4617462C46FFF7F8FECA
:1025700094F94400401C10B9002084F8440094F9F8
:102580004500401C10B9002084F84500FFF712FFF9
:10259000A06B28B93A46314604F1240000F080F9D6
:1025A0002046FFF7D0FCBDE8F081000070B504467E
:1025B0000025D4B11248006808B9012000E00020CD
:1025C00050B900BF502080F31188BFF34F8FBFF385
:1025D0006F8F00BF00BFFEE700F0CEF9002120465C
:1025E000FEF7C8FF00F05AFF05463DB94FF0805096
:1025F00004490860BFF34F8FBFF36F8F70BD0000B9
:102600008400002004ED00E070B50546FFF7A8FE49
:1026100015B93048006800E028460446201DFFF741
:10262000F9FD78B9E06A00EB80002B4951F82000F1
:1026300040B994F82C10012088402849096881434A
:1026400026480160A06A18B104F11800FFF7E2FD06
:1026500023480068401C224908601E4800688442E4
:1026600009D1211D1F48FFF76FFE1F480068401C5D
:102670001D49086009E01D480068401E1B490860AC
:102680002046FFF7C9F8FFF7A3FBFFF793FE1848B2
:102690000068E8B10F480068844219D11548006805
:1026A00008B9012000E0002050B900BF502080F39D
:1026B0001188BFF34F8FBFF36F8F00BF00BFFEE7DE
:1026C0004FF080500C490860BFF34F8FBFF36F8FFE
:1026D00070BD00004C000020680300206400002052
:1026E0007800002008040020580000205C00002032
:1026F000680000208400002004ED00E02DE9F04196
:1027000007460C4690461E4617B91C48006800E074
:1027100038460546256005F134006060E86A2061AE
:10272000286BE061286CA060A86C6061286DA061D6
:10273000052E12D011480068854202D10020207376
:102740000FE02673032E0CD100F016F9A86A08B129
:102750000220207300F0A2FE03E02846FEF78AFE66
:102760002073B8F1000F04D0286BFFF7B3FB20846F
:1027700001E000202084BDE8F08100004C00002032
:102780002DE9F8430646002030702748D0F8008035
:102790000146096801EBC1018800FFF729FC0546E5
:1027A000002D3FD06A4641462846FFF747FD804648
:1027B00064210098B0FBF1F00090009800282ED022
:1027C00000242AE004EBC40005EB80008069009936
:1027D000B0FBF1F704EBC40005EB80004168304624
:1027E000FFF7F0FB064657B104EBC40005EB800091
:1027F0003B460EA182693046FDF7AEFD08E004EBD2
:10280000C40005EB80000CA182693046FDF7A4FDF1
:102810003046FDF773FE0644641C4445D2D3284677
:10282000FFF7E6FDBDE8F8835C0000200925750987
:1028300009257525250D0A0009257509093C31254D
:10284000250D0A00034909680160034909684160D0
:102850007047000074000020600000200120014942
:10286000086070477000002070B504460D4654B9EA
:1028700000BF502080F31188BFF34F8FBFF36F8FDD
:1028800000BF00BFFEE70548016818312046FFF78A
:1028900041FD01212846FEF76DFE70BD4C00002071
:1028A00070B505460E46144655B900BF502080F35A
:1028B0001188BFF34F8FBFF36F8F00BF00BFFEE7DC
:1028C0000648016818312846FFF73EFD0CB14FF06D
:1028D000FF3621463046FEF74DFE70BD4C0000200D
:1028E0001CB51E4800210B468222CDE900101CA118
:1028F0001D4800F039FC0446012C02D100F050FEC6
:102900000446012C17D100BF502080F31188BFF37B
:102910004F8FBFF36F8F00BF4FF0FF301349086038
:10292000012013490860002012490860FDF7A8FF44
:1029300000F090F810E0601C08B1012000E00020D9
:1029400050B900BF502080F31188BFF34F8FBFF301
:102950006F8F00BF00BFFEE71CBD0000800000209D
:1029600049444C4500000000D11800087C000020BC
:10297000680000206000002002480068401C0149F7
:1029800008607047840000202A48006818B10120C0
:10299000294908604DE00020274908602749086858
:1029A000496827490860084600682649096888423E
:1029B0000BD92549096801F150000A6D20490968C1
:1029C000204B1B68C91A114401601D4800681D494D
:1029D00008601E480068B0FA80F0C0F11F0101EBEA
:1029E00081001B4A52F8200008B1012000E00020BD
:1029F00050B900BF502080F31188BFF34F8FBFF351
:102A00006F8F00BF00BFFEE701EB8102104B03EBAD
:102A1000820042685268426000F1080243689342B3
:102A200002D14268526842604268D268064B1A601E
:102A300000BF7047840000207000002028000020A4
:102A40008C000020880000204C0000206400002042
:102A5000680300201CB55C4800685C49884201D0CE
:102A6000012000E0002050B900BF502080F3118801
:102A7000BFF34F8FBFF36F8F00BF00BFFEE7524819
:102A800000685249491E884201D0012000E0002020
:102A900050B900BF502080F31188BFF34F8FBFF3B0
:102AA0006F8F00BF00BFFEE74949084600780190DC
:102AB000FF200A4610700846007800909DF800003C
:102AC00000F0F0009DF80020904201D1012000E0CC
:102AD000002050B900BF502080F31188BFF34F8F02
:102AE000BFF36F8F00BF00BFFEE79DF8000000F04E
:102AF0005000384A10700720374A106009E0364805
:102B00000068401E344A10609DF800004006000E28
:102B100000909DF8000000F080008028EFD02E4843
:102B20000068C0F10700042801D1012000E0002066
:102B300050B900BF502080F31188BFF34F8FBFF30F
:102B40006F8F00BF00BFFEE723480068C0F1070099
:102B5000042801D1012000E0002050B900BF50201E
:102B600080F31188BFF34F8FBFF36F8F00BF00BF9B
:102B7000FEE7194800680002174A106010460088F6
:102B800000F4E0601060124A019810700E48203086
:102B9000006840F470000C49203108600846006865
:102BA00040F070400860FFF775FC00200B4908609A
:102BB000FDF768FB0A48006840F04040084908609B
:102BC000FDF74CFB00201CBD00ED00E071C20F4181
:102BD00000E400E0A8000020AC000020A4000020D9
:102BE00034EF00E02DE9F84305460E4617460DB1D7
:102BF000012000E0002050B900BF502080F3118870
:102C0000BFF34F8FBFF36F8F00BF00BFFEE705FB21
:102C100006F808F15000FFF7EBF904464CB1A14665
:102C200009F150093B464A46314628460094FEF7D2
:102C300063FE2046BDE8F88370B505460E462C4677
:102C400054B900BF502080F31188BFF34F8FBFF3FA
:102C50006F8F00BF00BFFEE7FFF782FBD4E90F12C2
:102C6000206801FB0200A0600020A0632068606073
:102C7000E06B401E226C216800FB0211E160FF2026
:102C800084F8440084F845009EB9206908B9012001
:102C900000E00020A8B904F1100000F0B3FB80B1FF
:102CA0004FF0805009490860BFF34F8FBFF36F8F1B
:102CB00007E004F11000FFF71DFB04F12400FFF70B
:102CC00019FBFFF777FB012070BD000004ED00E069
:102CD0002DE9FF4383B0064688461D464FF00009A4
:102CE000344654B900BF502080F31188BFF34F8F92
:102CF000BFF36F8F00BF00BFFEE7B8F1000F01D137
:102D0000206C08B9012000E0002050B900BF50201D
:102D100080F31188BFF34F8FBFF36F8F00BF00BFE9
:102D2000FEE7022D02D1E06B012801D1012000E075
:102D3000002050B900BF502080F31188BFF34F8F9F
:102D4000BFF36F8F00BF00BFFEE700F03DFA08B988
:102D5000059808B9012000E0002050B900BF5020BC
:102D600080F31188BFF34F8FBFF36F8F00BF00BF99
:102D7000FEE700BFFFF7F4FAA06BE16B884201D3D6
:102D8000022D28D12A4641462046FEF706FD074679
:102D9000606A08B9012000E0002068B904F124004D
:102DA00000F030FB88B14FF0805032490860BFF32B
:102DB0004F8FBFF36F8F08E03FB14FF080502D4928
:102DC0000860BFF34F8FBFF36F8FFFF7F3FA012057
:102DD00007B0BDE8F083059818B9FFF7EBFA0020BB
:102DE000F6E7B9F1000F04D101A8FFF72BFD4FF072
:102DF0000109FFF7DFFAFFF7BFFDFFF7B1FA94F91A
:102E00004400401C10B9002084F8440094F94500A7
:102E1000401C10B9002084F84500FFF7CBFA05A943
:102E200001A800F05BF9F0B92046FEF77CFEA0B1E6
:102E300004F110000599FFF717FD2046FFF783F80E
:102E400000F02CFB002895D14FF080500949086014
:102E5000BFF34F8FBFF36F8F8CE72046FFF773F8F8
:102E600000F01CFB86E72046FFF76DF800F016FB2C
:102E70000020ADE704ED00E02DE9F84F07468A4653
:102E800090461E463C4654B900BF502080F311883E
:102E9000BFF34F8FBFF36F8F00BF00BFFEE7BAF1E4
:102EA000000F01D1206C08B9012000E0002050B9CA
:102EB00000BF502080F31188BFF34F8FBFF36F8F97
:102EC00000BF00BFFEE7022E02D1E06B012801D156
:102ED000012000E0002050B900BF502080F311888D
:102EE000BFF34F8FBFF36F8F00BF00BFFEE7FFF749
:102EF000E5FA00BF5021EFF3118081F31188BFF391
:102F00004F8FBFF36F8F00BF0546A06BE16B884208
:102F100001D3022E25D194F945B0A06B0090324622
:102F200051462046FEF739FC0BF1010088B9606A72
:102F300008B9012000E0002050B904F1240000F09D
:102F400061FA28B1B8F1000F02D00120C8F80000E2
:102F500004E00BF1010040B284F845004FF0010994
:102F600001E04FF0000900BF85F3118800BF48461B
:102F7000BDE8F88F2DE9F74183B005460E464FF0C6
:102F800000082C4654B900BF502080F31188BFF3CD
:102F90004F8FBFF36F8F00BF00BFFEE70EB9206CED
:102FA00008B9012000E0002050B900BF502080F394
:102FB0001188BFF34F8FBFF36F8F00BF00BFFEE7D5
:102FC00000F002F908B9059808B9012000E00020D6
:102FD00050B900BF502080F31188BFF34F8FBFF36B
:102FE0006F8F00BF00BFFEE700BFFFF7B9F9A76B07
:102FF000F7B131462046FEF7BBFB781EA06320697F
:1030000008B9012000E0002060B904F1100000F0D0
:10301000F9F938B14FF080502F490860BFF34F8F56
:10302000BFF36F8FFFF7C6F9012006B0BDE8F0814E
:10303000059818B9FFF7BEF90020F6E7B8F1000FC0
:1030400004D101A8FFF7FEFB4FF00108FFF7B2F92A
:10305000FFF792FCFFF784F994F94400401C10B983
:10306000002084F8440094F94500401C10B9002069
:1030700084F84500FFF79EF905A901A800F02EF895
:10308000F0B92046FEF742FDA0B104F124000599F5
:10309000FFF7EAFB2046FEF756FF00F0FFF9002895
:1030A000A3D14FF080500C490860BFF34F8FBFF39E
:1030B0006F8F9AE72046FEF746FF00F0EFF994E79E
:1030C0002046FEF740FF00F0E9F92046FEF71EFD1E
:1030D00000288AD00020A8E704ED00E070B505467E
:1030E0000C4655B900BF502080F31188BFF34F8FB5
:1030F000BFF36F8F00BF00BFFEE754B900BF502081
:1031000080F31188BFF34F8FBFF36F8F00BF00BFF5
:10311000FEE7FFF725F9124802686868131A20686D
:10312000401C08B9002617E00E4928680968884243
:1031300004D06868904201D801260DE020689842CA
:1031400007D92068C01A20602846FFF77BFB0026BD
:1031500002E0002020600126FFF72CF9304670BD08
:1031600060000020740000202DE9FF4F85B08046EC
:1031700089461746DDE912ABB800FEF739FF06466F
:1031800056B15C20FEF734FF04460CB1266304E020
:103190003046FFF72DF900E000247CB10020CDE996
:1031A00000ABCDE902403A4649464046089BFEF74F
:1031B000B8FB2046FEF72AFA012501E04FF0FF3563
:1031C000284609B0BDE8F08F0549096809B9012012
:1031D00005E00449096809B9022000E000207047B1
:1031E0006800002084000020014908687047000042
:1031F000600000202DE9F0414FF0000844480068CD
:1032000000287CD143480068451C4248056015BB36
:1032100041480068006808B9012000E0002050B96A
:1032200000BF502080F31188BFF34F8FBFF36F8F23
:1032300000BF00BFFEE738480768384800683649D5
:1032400008603648076036480068401C344908600A
:10325000FEF7BEFD00BF3348006885423CD300BF87
:103260002D480068006808B9012000E0002020B166
:103270004FF0FF302B4908602DE027480068C068F8
:10328000C4686668B54202D22648066023E0201D65
:10329000FEF7C0FFA06A18B104F11800FEF7BAFFEC
:1032A00094F82C10012088401F49096808431E49E2
:1032B0000860E16A01EB81011C4A02EB8100211DDB
:1032C000FFF742F81A49E06A0968C96A8842C7D319
:1032D0004FF00108C4E700BF15480068C06A00EB62
:1032E0008000124951F82000012801D94FF001084F
:1032F0001048006808B14FF0010805E0FFE70E48EC
:103300000068401C0C4908604046BDE8F0810000A0
:1033100084000020600000205000002054000020A5
:10332000740000207C00002064000020680300205E
:103330004C000020700000206C00002070B5054695
:103340002C460026002D55D02B480068844201D120
:10335000012000E0002050B900BF502080F3118808
:10336000BFF34F8FBFF36F8F00BF00BFFEE7E06C6E
:1033700050B900BF502080F31188BFF34F8FBFF3C7
:103380006F8F00BF00BFFEE7E06C401EE064A16CE1
:10339000E06A88422ED0E06C60BB201DFEF73AFF49
:1033A00078B9E06A00EB8000144951F8200040B978
:1033B00094F82C1001208840114909688143104875
:1033C0000160A06CE062E06AC0F10500A06194F8C1
:1033D0002C10012088400A49096808430849086000
:1033E000E16A01EB8101054A02EB8100211DFEF734
:1033F000ABFF0126304670BD4C0000206803002062
:103400006400002070B50646F068C46854B900BF77
:10341000502080F31188BFF34F8FBFF36F8F00BF31
:1034200000BFFEE704F11800FEF7F4FE154800683F
:10343000A8B9201DFEF7EEFE94F82C10012088405C
:1034400011490968084310490860E16A01EB8101EC
:103450000E4A02EB8100211DFEF776FF04E004F125
:1034600018010B48FEF770FF0A49E06A0968C96A4B
:10347000884204D9012501200749086000E00025A1
:10348000284670BD840000206400002068030020EE
:10349000F40300204C0000207000002070B50024D0
:1034A00000263648006850B900BF502080F31188CC
:1034B000BFF34F8FBFF36F8F00BF00BFFEE7FEF774
:1034C0004FFF2E480068401E2C49086008460068DF
:1034D00000284FD12A48006800284BD024E0294812
:1034E000C068C46804F11800FEF794FE201DFEF7C2
:1034F00091FE94F82C100120884023490968084364
:1035000021490860E16A01EB8101204A02EB810058
:10351000211DFEF719FF1E49E06A0968C96A884241
:1035200002D301201B4908601648006808B9012031
:1035300000E000200028D2D00CB1FEF749FC16486C
:10354000056865B100BFFFF755FE10B101201149B4
:1035500008606D1E002DF6D100200F4908600D484F
:10356000006838B1012630070C490860BFF34F8F5F
:10357000BFF36F8FFEF71EFF304670BD8400002042
:103580005C000020F4030020640000206803002099
:103590004C000020700000206C00002004ED00E0D2
:1035A0001CB50024FEF78EF80E48006858B10E488E
:1035B000022100234FF48272CDE900100BA10D48C7
:1035C000FFF7D2FD044654B900BF502080F31188A4
:1035D000BFF34F8FBFF36F8F00BF00BFFEE72046E2
:1035E0001CBD0000980000209C000020546D72203B
:1035F000537663002D1F00082DE9FE4304460D4657
:1036000016461F46DDF828804FF0000954B900BF68
:10361000502080F31188BFF34F8FBFF36F8F00BF2F
:1036200000BFFEE71448006810B3009501960294AD
:10363000062D15DAFFF7C8FD022808D100234246FF
:1036400069460D480068FFF743FB814610E0002300
:103650001A46694608480068FFF73AFB814607E0CA
:1036600000233A46694604480068FFF705FC814696
:103670004846BDE8FE830000980000204FF04070EF
:10368000E1EE100A70470000A83600080000002094
:10369000D0000000C401000878370008D0000020E6
:1036A000E8350100E0010008000000000000000013
:1036B0000000000000000000007A030A0000000083
:1036C00000000000010203040607080901000000D1
:1036D00000000000000000000000000000000000EA
:1036E00000000000000001020304010203040607B9
:1036F00008090000000000000000000000000000B9
:1037000000000000000000000000000000000000B9
:1037100000000000000000000000000000000000A9
:103720000000000000000000000000000000000099
:103730000000000000000000000000000000000089
:10374000000000000000000000000000AAAAAAAAD1
:103750000000000000000000000000000000000069
:103760000000000000000000000000000000000059
:08377000000000000000000051
:040000050800018965
:00000001FF
