:020000040800F2
:10000000404400205D020008FB0F0008010F0008BB
:10001000F90F00088D030008CD1200080000000051
:100020000000000000000000000000009D0100082A
:100030008F03000800000000F90100080510000807
:1000400077020008770200087702000877020008AC
:10005000770200087702000877020008770200089C
:10006000770200087702000877020008770200088C
:10007000770200087702000877020008770200087C
:10008000770200087702000877020008770200086C
:10009000770200087702000877020008770200085C
:1000A000770200087702000877020008770200084C
:1000B0007702000877020008D110000877020008D4
:1000C000770200087702000877020008770200082C
:1000D000770200087702000877020008770200081C
:1000E000770200087702000877020008770200080C
:1000F00077020008770200087702000877020008FC
:1001000077020008770200087702000877020008EB
:1001100077020008770200087702000877020008DB
:1001200077020008770200087702000877020008CB
:1001300077020008770200087702000877020008BB
:1001400077020008770200087702000877020008AB
:10015000770200087702000877020008770200089B
:10016000770200087702000877020008770200088B
:1001700077020008770200087702000800000000FC
:100180007702000877020008DFF80CD000F0ECF8E6
:10019000004800470D130008404400202C4B19680C
:1001A0000868B0E8F04F80F30988BFF36F8F4FF015
:1001B000000080F3118870470000000008480068C4
:1001C000006880F308884FF0000080F3148862B65E
:1001D00061B6BFF34F8FBFF36F8F00DF00BF00BF6B
:1001E00008ED00E0DFF80C00016841F470010160E7
:1001F000704700BF88ED00E0EFF30980BFF36F8F19
:10020000134B1A681EF0100F08BF20ED108A20E96A
:10021000F04F106009B44FF0500080F31188BFF325
:100220004F8FBFF36F8F01F0C7FC4FF0000080F3DA
:10023000118809BC19680868B0E8F04F1EF0100F6B
:1002400008BFB0EC108A80F30988BFF36F8F704746
:100250001C000020EFF3058070470000064880472F
:1002600006480047FEE7FEE7FEE7FEE7FEE7FEE79B
:10027000FEE7FEE7FEE7FEE7B5100008890100088B
:100280002DE9F05F0546002092469B4688460646CB
:10029000814640241BE0284641464746224600F05E
:1002A00053F853465A46C01A914110D31146184686
:1002B000224600F03AF82D1A67EB01084F46224615
:1002C0000120002100F031F817EB00094E41201EFB
:1002D000A4F10104DFDC484631462A464346BDE826
:1002E000F09F40EA01039B0703D009E008C9121FF1
:1002F00008C0042AFAD203E011F8013B00F8013BE0
:10030000521EF9D27047D2B201E000F8012B491E0B
:10031000FBD270470022F6E710B513460A460446A2
:100320001946FFF7F0FF204610BD202A04DB203AD3
:1003300000FA02F1002070479140C2F1200320FA38
:1003400003F3194390407047202A04DB203A21FA36
:1003500002F00021704721FA02F3D040C2F12002DE
:100360009140084319467047064C074D06E0E06887
:1003700040F0010394E8070098471034AC42F6D3EC
:10038000FFF706FFDC230008FC230008FEE77047A8
:10039000704700002DE9F84F00224FF001080325B7
:1003A0004FF00F0E0B6808FA02F42340A3426ED1FF
:1003B0004E68012E05D0022E03D0112E01D0122E30
:1003C00012D186684FEA420C05FA0CF7BE43CF689B
:1003D00007FA0CF7374387604668A6430C79C4F3E5
:1003E0000014944034434460C668570005FA07FC83
:1003F0008C6826EA0C06BC403443C4604C68022C6E
:1004000001D0122C13D1D40800EB8404A346D4F8F5
:10041000209054074FEAD46A0EFA0AF629EA060930
:100420000E6906FA0AF646EA0906CBF82060066865
:100430000C7926EA0C0604F00304BC403443046043
:100440004C68E40065D5364C266846F48046266044
:10045000246822F0030604F480440094314C3444B0
:10046000A446D4F808489607370F0EFA07F6B443A7
:100470002D4EB04201D1002624E02C4EB04201D1D5
:1004800001261FE02A4EB04202D102261AE040E0C7
:10049000284EB04201D1032614E0274EB04201D1CC
:1004A00004260FE0254EB04201D105260AE0244E75
:1004B000B04201D1062605E0224EB04201D1072606
:1004C00000E00826BE402643CCF808681E4E34687B
:1004D0004F689C43FF0300D51C4334601A4C241D15
:1004E00026684F689E43BF0300D51E432660164E04
:1004F000083634684F689C43FF0200D51C433460C3
:10050000114E0C3634684F689C43BF0200D51C4323
:100510003460521C102AFFF445AFBDE8F88F00008C
:100520004438024000300140000002400004024014
:1005300000080240000C024000100240001402407B
:1005400000180240001C0240003C01400AB18161D9
:1005500070470904FBE7000001488068704700000D
:100560000C000020024881680278114481607047C5
:100570000C0000200B4810B5016841F400710160C7
:10058000016841F480610160016841F4807101609B
:10059000032000F08DF8002000F006F800F03EF88F
:1005A000002010BD003C024010B5014688B000227A
:1005B0001E2000F05DF81E2000F04CF813480024C7
:1005C000016841F004010160006805A900F0040021
:1005D0000690684600F018F900F036F90C49400022
:1005E000B0FBF1F10C480B4A491E026040F2E732C1
:1005F000C0E90324C0E9011400F028FB10B1012078
:1006000008B010BD044800F03DFBF9E74038024057
:1006100040420F0000080040100300200C4882B048
:10062000016841F480410160006800F4804000905E
:100630000748001F016841F08051016000680022F6
:1006400000F0805000900F21901E02B000F010B812
:1006500044380240002809DB00F01F0201219140CC
:100660004009800000F1E020C0F800117047000050
:10067000F0B40E4B1B680C46C3F30223C3F107050D
:10068000042D00D90425191D072901D2002300E0FB
:10069000DB1E012606FA05F1491E214099409E40C5
:1006A000761E16403143F0BC00F011BE0CED00E0A8
:1006B000064900F0070208684FF6FF03184040EAB9
:1006C0000220034A10430860704700000CED00E070
:1006D0000000FA052DE9F0470E46050065D0DFF869
:1006E0001481D8F80000F7B200F00F00B04207D232
:1006F00088F80070D8F8000000F00F00B04254D124
:1007000028683D4C810712D5400703D5206840F486
:10071000E05020602878000703D5206840F460404E
:1007200020602068A96820F0F00008432060287845
:10073000C0072DD0304968680839012812D0022836
:1007400013D0032811D00968890700292DDA216800
:1007500021F0030101432160FFF7FEFE814641F2D3
:10076000883A0EE009688903EFE709688901ECE738
:10077000FFF7F2FEA0EB0901514502D90320BDE8C5
:10078000F0872068696800F00C00B0EB810FEFD1B2
:10079000D8F80010404601F00F01B14207D90770A8
:1007A000006800F00F00B04201D00120E7E7287890
:1007B000400705D52068E96820F4E0500843206030
:1007C0002878000706D52068296920F4604040EAAF
:1007D000C100206000F058F82168084AC1F30311F5
:1007E000515CC8400649086006480068FFF7DCFE17
:1007F0000020C4E7003C024008380240B023000853
:1008000018000020100000200F2202600C4A13681C
:1008100003F003034360136803F0F003836013687D
:1008200003F4E053C36012684FF4E05303EAD202CA
:1008300002610448006800F00F0008607047000083
:1008400008380240003C0240044805490068096835
:10085000044AC1F38221515CC8407047180000204F
:1008600008380240C02300080448054900680968A8
:10087000044AC1F34231515CC8407047180000205F
:1008800008380240C0230008154810B5006810F071
:100890000C02144813D01449042A0FD0082A0ED190
:1008A0000F4C241F2268236802F03F025B0207D529
:1008B0002068C0F38810A0FB010106E0084610BDC7
:1008C0002168C1F38811A1FB00010023FFF7D8FCC8
:1008D0002168C1F30141491C4900B0FBF1F010BD92
:1008E000083802400024F40040787D012DE9F84FDB
:1008F00004006ED02078DFF83C93C007A9F104050E
:100900004AD009F104000168C1F38101012908D02E
:100910000068C0F3810002280AD1D9F80000400223
:1009200006D52868800337D560680028E1D033E019
:100930006068B0F5803F10D0B0F5A02F286810D0C7
:1009400020F480302860286820F4802028606068C7
:10095000A8B1FFF701FE06460DE0286840F480309C
:10096000F4E740F480202860F7E700BFFFF7F4FDCC
:10097000801B642873D828688003F7D50CE0FFF744
:10098000EBFD064605E000BFFFF7E6FD801B64288F
:10099000F0D828688003F7D42078DFF89C8280079D
:1009A0004FF0000A3ED5A348001D016811F00C0F5E
:1009B00008D00068C0F3810002280BD1D9F80000EC
:1009C000400207D42868800716D5E068012800D1C6
:1009D00012E02BE1E068B8B10120C8F80000FFF791
:1009E000BBFD064605E000BFFFF7B6FD801B0228F1
:1009F000C0D828688007F7D52868216920F0F8005A
:100A000040EAC10028600DE0C8F800A0FFF7A4FD8F
:100A1000064604E0FFF7A0FD801B02281FD82868C7
:100A20008007F7D42078000722D5824E8348616979
:100A3000703671B101210160FFF78EFD074604E0B9
:100A4000FFF78AFDC01B022809D830688007F7D558
:100A50000EE0C0F800A0FFF77FFD074605E082E04A
:100A6000FFF77AFDC01B02287DD830688007F7D4D5
:100A70002078400768D5DFF8BCB100270BF13C0BAC
:100A8000DBF80000C0000BD4DBF8001041F080510F
:100A9000CBF80010DBF80000012700F08050009038
:100AA000674E3068C00510D4306840F48070306004
:100AB000FFF752FD009005E0FFF74EFD0099401A48
:100AC000022850D83068C005F6D55A4EA0686C365A
:100AD00001280FD00528306810D020F001003060C8
:100AE000306820F004003060A068B8B1FFF734FD32
:100AF00000900FE0306840F00100F4E740F004009F
:100B00003060F7E7FFF728FD0099411A41F288307D
:100B1000814266D830688007F4D50EE0FFF71CFDEF
:100B2000009007E0FFF718FD0099411A41F2883064
:100B3000814256D830688007F4D42FB1DBF800101A
:100B400021F08051CBF80010A069C8B33949091DC4
:100B50000968C1F3810102294AD00228504607D012
:100B6000C8F8600000E03CE0FFF7F6FC04463BE01C
:100B70004746C8F86000FFF7EFFC064605E000BFF7
:100B8000FFF7EAFC801B02282BD828688001F7D4E5
:100B9000D4E907010843A16A2A4A490802EB014146
:100BA000626A41EA8211084394F82C1040EA01611C
:100BB000C9F8001001203866FFF7CEFC044606E0B5
:100BC00036E000BFFFF7C8FC001B022809D82868E0
:100BD0008001F7D52CE000BFFFF7BEFC001B022808
:100BE00002D90320BDE8F88F28688001F4D41FE003
:100BF0000128F7D0D9F80000E26900F480019142A1
:100C000014D1226A00F03F0191420FD147F6C07122
:100C1000626A0140914209D1A26A00F440319142D6
:100C200004D1E16A00F07060884201D00120D9E768
:100C30000020D7E70438024000004742800E4742B8
:100C4000007000400000FFFF7047704710B50400BF
:100C500003D094F83D0010B107E0012010BD002042
:100C600084F83C00204600F00CF8022084F83D0097
:100C7000211D206800F032FA012084F83D00002098
:100C800010BD70470168CA6842F00102CA6000687E
:100C9000816801F00701062903D0016841F00101D4
:100CA000016000207047704770B504460068016914
:100CB0004FF00005C943890715D4C168C9438907A6
:100CC00011D4E91E01610120207720688069800726
:100CD000204602D0FFF7E7FF04E000F098F8204636
:100CE00000F096F8257720680169C943490717D4B1
:100CF000C168C943490713D46FF0040101610220A0
:100D000020772068806910F4407F204602D0FFF7EA
:100D1000CAFF04E000F07BF8204600F079F8257760
:100D200020680169C943090716D4C168C943090786
:100D300012D46FF008010161042020772068C06997
:100D40008007204602D0FFF7AEFF04E000F05FF816
:100D5000204600F05DF8257720680169C943C9067F
:100D600017D4C168C943C90613D46FF010010161DB
:100D7000082020772068C06910F4407F204602D008
:100D8000FFF791FF04E000F042F8204600F040F841
:100D9000257720680169C943C90708D1C168C943DB
:100DA000C90704D1891E0161204600F033F820688C
:100DB0000169C943090609D4C168C943090605D4B4
:100DC0006FF0800101612046FFF73EFF2068016956
:100DD000C943490609D4C168C943490605D46FF01F
:100DE00040010161204600F01FF820680169C943F5
:100DF00089060BD4C168C943890607D46FF0200166
:100E000001612046BDE87040FFF71FBF70BD70470D
:100E10007047000000680349884201D1FFF7A2BB78
:100E20007047000000080040704770B5040004D00F
:100E300094F83900002510B106E0012070BD84F857
:100E40003850204600F022F8242084F83900206829
:100E5000C16821F40051C160204600F0A3F9206868
:100E6000016921F4904101612068416921F02A0162
:100E700041612068C16841F40051C160E5632020F0
:100E800084F8390084F83A00002070BD10B586B0AF
:100E9000044614216846FFF73DFA14492068884249
:100EA00021D113480021026842F01002026000685C
:100EB00000F0100005900E481438026842F001025C
:100EC0000260006800F0010005904FF4C0600090DF
:100ED0000220CDE901010320039007200490694618
:100EE0000448FFF757FA06B010BD0000001001409B
:100EF0004438024000000240012000F01AFAFBE7EB
:100F0000FEE7000010B590B000200E900F90012178
:100F10000EA800F01AFA0C4C1C220C49A06068467E
:100F2000FFF7DFF90021684600F02EFA074920603C
:100F30001C221C3107A8FFF7D4F9002107A800F0F4
:100F400023FA606010B010BD000000207823000874
:100F500070B586B014216846FFF7DCF91648002406
:100F6000016841F020010160016801F02001059154
:100F7000016841F080010160016801F08001059184
:100F8000016841F00101016000680C4E00F00100B1
:100F90004FF4C0650590002229463046FFF7D6FA87
:100FA00001200095CDE90104694630460394FFF71E
:100FB000F1F906B070BD0000303802400014024064
:100FC0000C4810B50A4901604FF4E131416000213D
:100FD00081600C22C160C0E904128161C161FFF728
:100FE00024FF002803D0BDE81040FFF7D1B910BDA1
:100FF00000100140D0020020FEE77047012000F001
:1010000098F9FBE710B5502080F31188BFF34F8F9C
:10101000BFF36F8F01F064F818B104494FF08050AE
:101020000860002080F3118810BD000004ED00E08E
:1010300030B593B030216846FFF76CF914210CA845
:10104000FFF768F919480025016841F080510160F7
:10105000006800F0805011901548016841F480410B
:1010600001600068022400F4804011900120039088
:1010700010200490009406940820CDE90750A82081
:10108000CDE9090404200B906846FFF72FFC0CA95A
:101090000F2081E831004FF4A0500F90E002109033
:1010A00005210CA8FFF716FB13B030BD40380240F5
:1010B000007000400548016841F470010160034977
:1010C0004FF00060803908607047000088ED00E054
:1010D0000148FFF7E9BD000010030020F0B50268E9
:1010E000254C264D264E274F274B4FF0804CA042D3
:1010F00009D0604507D0A84205D0B04203D0B8421D
:1011000001D0984204D122F0700E4A6842EA0E02E1
:10111000A0421BD0604519D0A84217D0B04215D0CC
:10112000B84213D0984211D0184DA8420ED0184D95
:10113000A8420BD0174DA84208D0174DA84205D0A1
:10114000164DA84202D0164DA84203D122F4407594
:10115000CA682A434D6922F080022A4302608A68E5
:10116000C2620A688262A04201D0984201D1096934
:10117000016301214161F0BD000001400004004015
:1011800000080040000C0040000401400040014005
:10119000004401400048014000180040001C00408D
:1011A000002000402DE9F041044600680169E26832
:1011B00021F44051114301612169A068E2690843AB
:1011C0006169114308432168CA6849F20C639A4374
:1011D0000243CA6020684169A26921F44071114349
:1011E0004161E069192764253226B0F5004F354A80
:1011F000354920684FF0000806D0884201D090425F
:1012000036D1FFF731FB35E0884201D0904202D160
:10121000FFF72AFB01E0FFF717FB61684A18A0FB04
:10122000070148EB0803FFF72BF80146B0FBF5F088
:101230000201B1FBF5F06FF01803584301EB800099
:1012400006EBC000B0FBF5F000F0F80002EB400246
:10125000B1FBF5F0584301EB800006EBC000B0FB9A
:10126000F5F000F00700216810448860BDE8F081C7
:10127000FFF7EAFA61688B0F8A00A0FB0701FEF70F
:10128000FFFF0146B0FBF5F06FF01802504301EB91
:10129000800006EB0010B0FBF5F000F0F002B1FBAF
:1012A000F5F002EB0012B1FBF5F06FF018035843B4
:1012B00001EB800006EB0010B0FBF5F000F00F0032
:1012C000D1E700000014014000100140FEE70907CB
:1012D000090E002804DB00F1E02080F800147047BC
:1012E00000F00F0000F1E02080F8141D704702E0CC
:1012F00008C8121F08C1002AFAD1704770470020A1
:1013000001E001C1121F002AFBD17047FFF732F93B
:10131000FFF78EFEFFF71CFEFFF752FEFFF7F2FD10
:1013200000F00EF8FEE701460020842900D0C81C1A
:10133000704710B500B9012000F0B4FB002010BDCB
:1013400010B500F0FBFB002010BD38B543684BB171
:10135000012909D10320002200901146012000F04C
:10136000F7FC38BD012901D0002038BD032200213F
:10137000012000F0C9FC040004D000231A461946DD
:1013800000F05EFD204638BD7FB50D46044641693C
:10139000B0F9080081B1A16971B1FFF7C4FFD4E9C8
:1013A00005128DE80700D4E900102B46226900F0F1
:1013B0005EFE039004B070BDFFF7B5FF03A9CDE951
:1013C0000001208A2B4682B2D4E9001000F022FEF0
:1013D000012801D00020EDE70398EBE72DE9F0416B
:1013E000184C0F46054666692068001D00F096FA05
:1013F00038B9206890F82C1001208840A1698143F9
:10140000A161681C07D137B12168BDE8F0410E48E1
:10141000091D00F0C7BA20683544B542456021680F
:1014200005D2A068BDE8F041091D00F0A3BA6068CC
:10143000091D00F09FFA206B854200D22563BDE8AC
:10144000F08100001C0000202C0400202DE9F04158
:10145000054600F0B3FA2E4C2069401C206120683C
:101460002C4F10B1E06940B32DE0256020690128C0
:1014700029D1002606EB860007EB800000F06CFA0D
:10148000761C072EF6D323488C3000F065FA2148ED
:10149000A03000F061FA1F48B43000F05DFA1D483A
:1014A000C83000F059FA1B48DC3000F055FA1948F2
:1014B0008C3060601430A06005E02068E96AC06A82
:1014C000884200D82560E06A401CE062E96A012099
:1014D000A26988401043A06101EB810007EB800006
:1014E000291D00F05FFA00F089FAE06900280CD0AD
:1014F0002068E96AC06A884207D207494FF08050E5
:101500000860BFF34F8FBFF36F8FBDE8F08100001D
:101510001C0000205003002004ED00E02DE9F04104
:10152000856B174604460026026C82B1C7B1E0689D
:10153000FEF7D7FEE168206C091AE160226891424B
:1015400002D2A168081AE060022F16D017E02068C6
:10155000A8B9A06800F028FE06460020A0600EE0B2
:101560006068FEF7BEFE216C606808446060A16898
:10157000884204D32068606001E005B16D1E6D1CD7
:10158000A5633046BDE8F08110B5044690F85100DF
:1015900058B101280CD002280FD0502080F31188B8
:1015A000BFF34F8FBFF36F8FFEE7206B00F03AFA67
:1015B0002046BDE8104000F035BA10BD10484FF489
:1015C0007051420706D0C01D0D4920F00700411A96
:1015D000C1F570510B4A00230144C2E900030839E8
:1015E000103A21F0070111604B600B600B1AC0E943
:1015F000001393604FF000405360D06070470000CC
:101600004004002068000020144E154CA6F1C807C5
:101610004FF08058DFF84C9012E000BF00F0CEF998
:10162000F068C568281D00F079F92069401E206126
:10163000E068401EE06000F0E1F92846FFF7A4FFF3
:10164000E0680028EAD138680128F9D9C9F8008093
:10165000BFF34F8FBFF36F8FF2E700001804002035
:101660001C00002004ED00E00346009829B1026050
:10167000C0E90F31012100F09FBB0060F8E72DE9C0
:10168000F0479A46DDE9098481466FF00303206B39
:1016900003EB82021044089E20F00707780707D06A
:1016A000502080F31188BFF34F8FBFF36F8FFEE799
:1016B000002561B1002023180A5C83F834200A5CFD
:1016C00012B1401C1028F6D384F8435001E084F88E
:1016D0003450072E00D30626E662C4E91165201DAA
:1016E00000F045F904F1180000F041F92461C6F159
:1016F00007006462A061E56484F850505246494690
:10170000384600F0F5F82060B8F1000F01D0C8F8B5
:101710000040BDE8F087000030B5114900E01146F7
:101720000A688242FBD34B685C18844203D140684C
:1017300018444860084643681C18944209D1084C74
:10174000103C2468A24209D052681A4442600A68D8
:1017500012680260814200D0086030BD0460F9E781
:101760006800002006484168096829B14168C968D5
:10177000C9684968016370474FF0FF31FAE700001C
:101780001C00002008484068401C4FF0500080F3C7
:10179000118804D0BFF34F8FBFF36F8FFEE7BFF305
:1017A0004F8FBFF36F8FFEE7700000202DE9F041EF
:1017B000044600F003F994F9455004F1240609E0C9
:1017C000606A48B1304600F03BFD08B100F098F97E
:1017D0006D1E6DB2002DF3DC4FF0FF3684F84560CE
:1017E00000F00CF900F0EAF894F9445004F1100705
:1017F00009E0206948B1384600F022FD08B100F048
:101800007FF96D1E6DB2002DF3DC84F84460BDE8F5
:10181000F04100F0F3B800002DE9F0410546002743
:1018200000F0C2F9314E306808B9FFF7C7FEF06822
:1018300005424BD1C5B3083568070ED005F0070047
:10184000C0F108000544680707D0502080F31188D4
:10185000BFF34F8FBFF36F8FFEE72DB370688542E4
:1018600034D82248103001460C6801E020460C466E
:101870006168A94202D221680029F7D131688C42FF
:1018800024D007682168016060680837411B10296F
:101890000FD96019420708D0502080F31188BFF398
:1018A0004F8FBFF36F8FFEE710E041606560FFF779
:1018B00033FF61687068401A7060B268904200D26D
:1018C000B060F06801430020C4E9000100F0F2FCC0
:1018D000780707D0502080F31188BFF34F8FBFF3F4
:1018E0006F8FFEE73846BDE8F08100005800002009
:1018F00010B5031F4FF080741C601B1F21F0010105
:101900001960191F044B0B6014390A60091F6FF02E
:10191000020244380A6010BD85170008D0E9013280
:1019200001699A60D0E901235A604A68824201D174
:1019300082684A60002202610868401E08600868E8
:1019400070470000034B036003F1540008608020DF
:10195000106070477C00002000F108014FF0FF325A
:10196000C0E90112C16001610021016070470021DE
:101970000161704730B50B685A1C02D000F10802B3
:1019800002E0026904E02246546825689D42FAD9C3
:1019900053684B6099608A60516008610168491C16
:1019A000016030BD42684A6093688B6093685960FB
:1019B000916008610168491C01607047502080F304
:1019C0001188BFF34F8FBFF36F8F0A494868401CDF
:1019D000486001280CD10848006810F0FF0F07D0BC
:1019E000502080F31188BFF34F8FBFF36F8FFEE756
:1019F000704700007000002004ED00E008494868CE
:101A000028B1401E486001D180F3118870475020F2
:101A100080F31188BFF34F8FBFF36F8FFEE7000095
:101A20007000002070B5002827D0144DA0F10804E4
:101A30006168E868014207D1502080F31188BFF344
:101A40004F8FBFF36F8FFEE722683AB1502080F3CB
:101A50001188BFF34F8FBFF36F8FFEE78143616043
:101A600000F0A2F860686968084468602046FFF7E3
:101A700053FEBDE8704000F01DBC70BD5800002052
:101A80004FF0E02000210161816105494FF47A7235
:101A90000968B1FBF2F1491E4161072101617047FC
:101AA0001800002010B5020014D00F48806B38B128
:101AB000502080F31188BFF34F8FBFF36F8FFEE785
:101AC00000F072F800211046FFF788FC00F0F2FBEE
:101AD000002807D105494FF080500860BFF34F8FB1
:101AE000BFF36F8F10BD00001C00002004ED00E06C
:101AF00002498A6A02604969416070471C000020FF
:101B000001490120486270471C00002010B50C46B6
:101B100050B1094909681831FFF72CFF2046BDE88C
:101B200010400121FFF75ABC502080F31188BFF309
:101B30004F8FBFF36F8FFEE71C00002010B586B0FB
:101B40000024039405AA04A903A80494FFF7FAFE4D
:101B5000DDE903010094CDE9011000230EA1104836
:101B6000059A00F084FA0F490028486311D05020EC
:101B700080F31188BFF34F8FBFF36F8F4FF0FF30AB
:101B800008630120C8614C6106B0BDE8104000F058
:101B900041B806B010BD000049444C4500000000AB
:101BA000091600081C0000200248816B491C816353
:101BB000704700001C0000201448816B11B1012106
:101BC00041627047002141628169B1FA81F1C1F13E
:101BD0001F0101EB81020E4951F822306BB101EB7C
:101BE000820101F108034A6852684A609A4201D1B1
:101BF00052684A60D16801607047502080F31188B4
:101C0000BFF34F8FBFF36F8FFEE700001C00002073
:101C1000500300201CB537480168374A914207D16C
:101C2000502080F31188BFF34F8FBFF36F8FFEE713
:101C300000683149491E884207D1502080F311883D
:101C4000BFF34F8FBFF36F8FFEE72C4908780190E9
:101C5000FF20087008788DF800009DF800009DF8BE
:101C6000002000F0F000904207D0502080F311884F
:101C7000BFF34F8FBFF36F8FFEE79DF80000204B3F
:101C800000F0500018700720986005E09DF80020D3
:101C900052008DF80020401E9DF800201206F5D459
:101CA0009860032807D0502080F31188BFF34F8F2E
:101CB000BFF36F8FFEE74FF4407098600198087093
:101CC0000C482030016841F470010160016841F066
:101CD00070410160FFF7D4FE00205860FEF782FAE1
:101CE0000848016841F040410160FEF767FA0020B2
:101CF0001CBD000000ED00E071C20F4100E400E0F7
:101D00007000002034EF00E0F8B517460E460500DD
:101D100014D0DEB105FB06F04830FFF77DFD04006E
:101D20000AD0002084F8460004F148023B463146C0
:101D300028460094FFF798FC2046F8BD502080F319
:101D40001188BFF34F8FBFF36F8FFEE70020E3E7EB
:101D500038B5049D18B153B1CAB181B120E050200B
:101D600080F31188BFF34F8FBFF36F8FFEE75020D2
:101D700080F31188BFF34F8FBFF36F8FFEE75020C2
:101D800080F31188BFF34F8FBFF36F8FFEE739B138
:101D9000502080F31188BFF34F8FBFF36F8FFEE7A2
:101DA00048241C46012384F846302B460094FFF754
:101DB0005BFC204638BD000070B50D46040025D000
:101DC000FFF7FCFDD4E90F20216802FB0011A160A0
:101DD0000021A163216861600A46D4E90F01401E19
:101DE00000FB0121E16021464FF0FF3001F8440F74
:101DF000487004F110008DB1FFF7AEFD04F124002E
:101E0000FFF7AAFDFFF7FAFD012070BD502080F317
:101E10001188BFF34F8FBFF36F8FFEE72169002951
:101E2000F0D000F00DFA0028ECD004494FF08050BB
:101E30000860BFF34F8FBFF36F8FE3E704ED00E05F
:101E40002DE9FF4782B01D468A464FF00008040086
:101E500003D0BAF1000F08D011E0502080F31188B0
:101E6000BFF34F8FBFF36F8FFEE7206C38B1502068
:101E700080F31188BFF34F8FBFF36F8FFEE7022D02
:101E80000AD1E06B012807D0502080F31188BFF3FE
:101E90004F8FBFF36F8FFEE700F014F93F4F4FF005
:101EA00000094FF0805648B9049838B1502080F3AB
:101EB0001188BFF34F8FBFF36F8FFEE7FFF77EFDF3
:101EC000A06BE16B884207D3022D05D00498D0B1F6
:101ED000B8F1000F1AD01EE02A4651462046FFF7FF
:101EE0001DFB616A19B104F1240000F0A9F920B1C9
:101EF0003E60BFF34F8FBFF36F8FFFF77FFD012071
:101F000006B0BDE8F087FFF779FD22E06846FFF7ED
:101F1000EFFD4FF00108FFF771FDFFF745FEFFF7FA
:101F20004DFD94F94400401C01D184F8449094F98B
:101F30004500401C01D184F84590FFF75FFD04A9DE
:101F4000684600F02DF830B12046FFF72FFC00F076
:101F5000B1F90020D4E7FFF731FDA06BE16B8842B7
:101F600013D1FFF74BFD04F110000499FFF7CEFDEC
:101F70002046FFF71BFC00F09DF900289ED13E6033
:101F8000BFF34F8FBFF36F8F98E7FFF737FD204602
:101F9000FFF70CFC00F08EF990E7000004ED00E084
:101FA0002DE9F0410C46050011D0C4B1FFF706FD44
:101FB000174B5A696E682068911B471C17D02F6811
:101FC0009B6A9F4219D0964217D8012410E05020F6
:101FD00080F31188BFF34F8FBFF36F8FFEE7502060
:101FE00080F31188BFF34F8FBFF36F8FFEE700249C
:101FF000FFF704FD2046BDE8F081884205D9401A6C
:1020000020602846FFF774FDF1E700202060DCE740
:102010001C0000202DE9FF5F8346DDE90E8799460D
:1020200016468A469000FFF7F7FB05001CD05420A7
:10203000FFF7F2FB040014D00020256384F8510060
:10204000CDE90240CDE900874B463246514658461D
:10205000FFF715FB2046FFF7F9F9012004B0BDE8B2
:10206000F09F2846FFF7DEFC4FF0FF30F6E7F0B5B3
:1020700085B0DDE90B640A9DA6B1DCB15427009759
:102080002663022684F85160002604AFCDE902469B
:10209000CDE90057FFF7F3FA2046FFF7D7F9049888
:1020A00005B0F0BD502080F31188BFF34F8FBFF310
:1020B0006F8FFEE7502080F31188BFF34F8FBFF37F
:1020C0006F8FFEE70548C16919B1806B18B1002018
:1020D0007047012070470220704700001C0000205C
:1020E0002DE9F0412E4C0027A06B40B1206A401C26
:1020F0002062606A00B101273846BDE8F081666958
:10210000761C666113D16068006838B1502080F396
:102110001188BFF34F8FBFF36F8FFEE76068A16830
:102120006160A060A06A401CA062FFF71BFB206BEF
:10213000DFF87080864209D36068006880B160680B
:10214000C068C568686886420DD220632068C06A8E
:1021500000EB800158F821000128CAD90127C8E7FF
:102160004FF0FF30F1E7281DFFF7D8FBA86A18B140
:1021700005F11800FFF7D2FBE86A0121A26981404E
:102180001143A16100EB800108EB8100291DFFF7DD
:1021900009FCE86A2168C96A8842CDD30127CBE7E8
:1021A0001C0000205003002070B504004FF0000117
:1021B00040D0214D2868844207D0502080F31188F8
:1021C000BFF34F8FBFF36F8FFEE7A06C38B1401E97
:1021D000A064636CE26A9A422CD040B12AE050209D
:1021E00080F31188BFF34F8FBFF36F8FFEE7201D81
:1021F000FFF794FB114A012150B9E06A00EB80031C
:1022000052F8233023B9AB6901FA00F08343AB6184
:10221000606CE062C0F10700A061E06AAB698140D8
:102220001943A96100EB800002EB8000211DFFF73C
:10223000B9FB0121084670BD1C000020500300209E
:102240002DE9F041C068C468ACB104F1180007463C
:10225000FFF764FB154DA86B0126A0B13946144861
:10226000FFF7A0FBE06A2968C96A88421CD90120EF
:102270006E62BDE8F081502080F31188BFF34F8F6C
:10228000BFF36F8FFEE7201DFFF748FBE16AAA69E5
:1022900006FA01F01043A86101EB81000449B4394A
:1022A00001EB8000211DDBE70020E2E71C0000209D
:1022B000040400202DE9F0472C4D00242746A86B8C
:1022C00038B1FFF77BFBA86B401EA863A86B40B139
:1022D00046E0502080F31188BFF34F8FBFF36F8F1C
:1022E000FEE72969224E0120D1B3A6F1B409804648
:1022F0003068E8B1F068C46804F11800FFF70EFB1D
:10230000201DFFF70BFBE06AAA6908FA00F11143F0
:10231000A96100EB800109EB8100211DFFF742FB61
:10232000E06A2968C96A8842E2D3C5F82480DFE7F9
:102330000CB1FFF717FA2C6A44B14646FFF7D0FEFE
:1023400000B16E62641EF9D100202862686A38B15B
:102350000849012738070860BFF34F8FBFF36F8F1D
:10236000FFF74CFB3846BDE8F08700001C0000205A
:102370000404002004ED00E0C8230008FD0F00085D
:1023800000000000000000008000000000000000CD
:1023900000000000D4230008F90E0008000000002F
:1023A00000000000800000000000000000000000AD
:1023B00000000000000000000102030406070809F5
:1023C0000000000001020304506572696F646963D4
:1023D0000000000048616E646C650000FC2300088A
:1023E000000000207C000000EE12000878240008A5
:1023F0007C000020C4430000FE1200080000000022
:1024000000000000000000000100000010000000BB
:10241000000000000024F4000000000000000000A4
:1024200000000000000000000000000000000000AC
:10243000000000000000000000000000000000009C
:10244000000000000000000000000000000000008C
:10245000000000000000000000000000000000007C
:10246000000000000000000000000000000000006C
:08247000AAAAAAAA00000000BC
:040000050800018965
:00000001FF
