:020000040800F2
:10000000285B0020F1020008430A0008BB09000831
:10001000410A0008B90700088D1000080000000020
:10002000000000000000000000000000390200088D
:10003000BB070008000000008D020008910C0008BA
:100040000B0300080B0300080B0300080B03000858
:100050000B0300080B0300080B0300080B03000848
:100060000B0300080B030008BD0700080B03000882
:100070000B0300080B0300080B0300080B03000828
:100080000B0300080B0300080B0300080B03000818
:100090000B0300080B0300080B0300080B03000808
:1000A0000B0300080B0300080B0300080B030008F8
:1000B0000B030008010D00080B0300080B030008E8
:1000C0000B0300080B0300080B0300080B030008D8
:1000D0000B030008F10E00080B0300080B030008D7
:1000E0000B0300080B0300080B0300080B030008B8
:1000F0000B0300080B0300080B0300080B030008A8
:100100000B0300080B030008990D00080B030008FF
:100110000B0300080B0300080B0300080B03000887
:100120000B0300080B0300080B0300080B03000877
:100130000B0300080B0300080B0300080B03000867
:100140000B0300080B0300080B0300080B03000857
:100150000B0300080B0300080B0300080B03000847
:100160000B0300080B0300080B0300080B03000837
:100170000B0300080B0300080B0300080B03000827
:100180000B0300080B03000800F002F800F044F82D
:100190000AA090E8000C82448344AAF10107DA45E2
:1001A00001D100F039F8AFF2090EBAE80F0013F0F0
:1001B000010F18BFFB1A43F001031847D02D0000B0
:1001C000F02D0000103A24BF78C878C1FAD8520741
:1001D00024BF30C830C144BF04680C6070470000C1
:1001E0000023002400250026103A28BF78C1FBD840
:1001F000520728BF30C148BF0B607047642900F028
:100200000381732900F01082002070471FB502F0AF
:10021000B7FE1FBD10B510BD00F09BFA1146FFF7E9
:10022000F5FF00F091FF00F0B9FA03B4FFF7F2FF19
:1002300003BC00F02CFF00002A4B19680868B0E8E6
:10024000F04F80F30988BFF36F8F4FF0000080F309
:10025000118870470000000006480068006880F3BD
:10026000088862B661B6BFF34F8FBFF36F8F00DFB0
:1002700000BF00BF08ED00E0DFF80C00016841F4AA
:1002800070010160704700BF88ED00E0EFF3098066
:10029000BFF36F8F134B1A681EF0100F08BF20EDCD
:1002A000108A20E9F04F106008B44FF0500080F33E
:1002B0001188BFF34F8FBFF36F8F02F031F84FF00B
:1002C000000080F3118808BC19680868B0E8F04F96
:1002D0001EF0100F08BFB0EC108A80F30988BFF33E
:1002E0006F8F70473C000020EFF3058070470000DF
:1002F0000948804709480047FEE7FEE7FEE7FEE7BA
:10030000FEE7FEE7FEE7FEE7FEE7FEE704480549F5
:10031000054A064B70470000A50C0008890100083B
:1003200028550020285B002028570020285700204F
:10033000704700000FB4044910B503AA029800F0FA
:1003400077F910BC5DF814FB280000202DE9F0417E
:100350000E460446002020622046E168884730B3FC
:10036000252805D0D4E901219047206A401CF2E7F6
:10037000E168204600278847050018D0A5F1410014
:10038000192802D820354FF4006732462946204606
:100390002760FFF733FF40B1012804D0F61D26F097
:1003A00007060836D8E7361DD6E72846DAE7206A7A
:1003B000BDE8F08170B50C460546012A05D02878C5
:1003C000800600D5EA69002302E0012305E05B1CFA
:1003D000934202D2E05C0028F9D1A869E618C01A5D
:1003E000A861286A184428622846AFF3008004E018
:1003F000D5E9012114F8010B9047B442F8D32846FF
:10040000AFF3008070BD00002DE9F04106460024E6
:1004100010687529314616A510D0AFF3008000286A
:1004200002DA404213A507E031688A0701D512A518
:1004300002E0490704D511A5012401E0AFF30080D3
:1004400000210A2206F1240709E0B0FBF2FCB0FB10
:10045000F2F302FB1C00303078541846491C002887
:10046000F3D123462A463046BDE8F04100F059B8A2
:10047000000000002D0000002B0000002000000004
:10048000032A40F2308010F0030C00F0158011F8C0
:10049000013BBCF1020F624498BF11F801CB00F898
:1004A000013B38BF11F8013BA2F1040298BF00F8EC
:1004B00001CB38BF00F8013B11F0030300F0CA8004
:1004C000083AC0F0088051F8043B083A51F804CBD0
:1004D000A0E80810F5E7121D5CBF51F8043B40F896
:1004E000043BAFF30080D20724BF11F8013B11F8A1
:1004F00001CB48BF11F8012B24BF00F8013B00F8E5
:1005000001CB48BF00F8012B704702F0FF0343EA1C
:10051000032242EA024200F0D1B8704770477047A8
:1005200070472DE9F0470D4699469246044600F182
:1005300024080168880604D5E06921F010012160D3
:1005400000E00120A84201DD471B00E00027A1696F
:100550007A1902EB0900081AA0612078C00602D4BB
:100560002046AFF30080002608E0D4E901211AF804
:1005700006009047206A401C761C20624E45F4DB42
:100580002078C0060AD52046AFF3008006E0D4E903
:10059000012130209047206A401C2062381EA7F1BC
:1005A0000107F4DC07E0D4E9012118F805009047C1
:1005B000206A401C2062281EA5F10105F3DC2046BC
:1005C000AFF300802078000602D50220BDE8F08756
:1005D0000120FBE701694A1C02610878704700B5F9
:1005E0008FB0CDE901310021059105497944CDE96C
:1005F000031011466846FFF7A9FE0FB000BD0000CA
:10060000E5FFFFFF10B5436913B1AFF3008001E0D0
:10061000FFF7D0FE012010BD127800F124010A700E
:1006200000224A700122EDE711684FF0FF32E9E73E
:10063000074B70B50D467B44FFF7D1FF04462846B3
:1006400000F05CF810B14FF0FF3070BD204670BD77
:10065000DF0A000010B5203AC0F00B80B1E8185056
:10066000203AA0E81850B1E81850A0E81850BFF49C
:10067000F5AF5FEA027C24BFB1E81850A0E818503B
:1006800044BF18C918C0BDE810405FEA827C24BF8F
:1006900051F8043B40F8043B08BF7047D20728BF1D
:1006A00031F8023B48BF11F8012B28BF20F8023B6C
:1006B00048BF00F8012B70474FF000020429C0F03A
:1006C000128010F0030C00F01F80CCF1040CBCF180
:1006D000020F18BF00F8012BA8BF20F8022BA1EBD6
:1006E0000C0100F011B85FEAC17C24BF00F8012BB7
:1006F00000F8012B48BF00F8012B7047007B00F089
:10070000800070474FF0000200B5134694469646AD
:10071000203922BFA0E80C50A0E80C50B1F1200114
:10072000BFF4F7AF090728BFA0E80C5048BF0CC0C2
:100730005DF804EB890028BF40F8042B08BF704720
:1007400048BF20F8022B11F0804F18BF00F8012B92
:100750007047754600F02CF8AE46050069465346D2
:1007600020F00700854618B020B5FFF7CFFDBDE8A3
:1007700020404FF000064FF000074FF000084FF008
:10078000000B21F00701AC46ACE8C009ACE8C00999
:10079000ACE8C009ACE8C0098D46704710B5044606
:1007A000AFF300802046BDE81040FFF73EBD0000DB
:1007B00000487047C4540020FEE7704770B596208B
:1007C00000F09CFC1021164800F0EEF818BB154C08
:1007D000207850B1002080F3118813A0FFF7AAFD04
:1007E00000202070012D0ED015E05020EFF3118570
:1007F00080F31188BFF34F8FBFF36F8F0DA0FFF70A
:1008000099FD0120EDE70E494FF080500860BFF3DD
:100810004F8FBFF36F8FBDE87040102000F03AB8E3
:100820000010024020000020B4F2BFAAD6D0B6CFFC
:100830000D0A0000B9D8B1D5D6D0B6CF0D0A000048
:1008400004ED00E03EB500F0B9F80121880300F0A6
:100850004DF90421084600F09DF910200025009074
:100860008DF804500C208DF8050001248DF8064009
:10087000684600F015F80A208DF8080004208DF86D
:1008800009008DF80A508DF80B4002A800F0DAF844
:100890003EBD00000149086070470000143C014063
:1008A00030B51A4A8379016853B313688B431360D8
:1008B000111D0B680468A3430B60017911440B6898
:1008C000046823430B60114B083319680468A14383
:1008D00019601C1D21680568A94321604179102910
:1008E00005D011440A68006802430A6030BD1968E7
:1008F000026811431960216800680143216030BD1E
:100900000079104402688A43026030BD003C014017
:10091000F0B5002201274FF0030C0B6807FA02F52F
:100920002B40AB422CD1066853000CFA03F4A643CB
:1009300006600E79D0F800E09E4046EA0E0606609A
:100940000E79012E01D0022E12D18668A643866050
:100950004E79D0F808E09E4046EA0E06866046686A
:10096000AE43466045688E799640B6B235434560E1
:10097000C568A543C560CC799C40C3681C43C4606E
:10098000521C102AC9D3F0BD4B07DB0E9A40C90890
:1009900010B500EB8100016A0F249C40A143016265
:1009A000016A1143016210BD0246002012690A4229
:1009B00000D00120704701837047FEE71CB501217C
:1009C000112000F07BF81C20009000208DF804001E
:1009D00003208DF8050001248DF80740694606487C
:1009E000FFF796FF02208DF8070000946946034840
:1009F000FFF78EFF1CBD0000001002400000024007
:100A00007CB50121202000F059F801208DF8040068
:100A100000228DF8062003218DF80510074D4FF4B4
:100A2000C0648DF80700009469462846FFF770FF00
:100A300021462846FFF7BFFF7CBD0000001402409E
:100A4000FEE7704730B50F23C27801780125FAB16F
:100A5000144A126801F1E02102F4E062C2F5E0629A
:100A6000C2F30722C2F10404D3404278A240847842
:100A70001C401443220181F80024007800F01F017B
:100A80008D404009800000F1E020C0F8005130BDE9
:100A900001F01F0085404809800000F1E020C0F807
:100AA000805130BD0CED00E0024908430249086066
:100AB000704700000000FA050CED00E0044A002930
:100AC000116801D0014300E08143116070470000CC
:100AD00030380240044A0029116801D0014300E087
:100AE000814311607047000040380240044A0029E9
:100AF000116801D0014300E081431160704700009C
:100B00004438024070B5204B1968204C11F00C019C
:100B100004D06610042903D0082903D004601BE028
:100B2000066019E0184A121F1168C1F38055116858
:100B300001F03F0115B1B6FBF1F101E0B4FBF1F1B9
:100B400014681268C4F388146143C2F30142521C52
:100B50005200B1FBF2F1016019680F2202EA111193
:100B60000B4A545C0168E14041601C68072505EAB6
:100B70009424145D21FA04F484601B6805EA53335D
:100B8000D25CD140C16070BD083802400024F4003E
:100B90002C00002010B58A0721F003040849120F29
:100BA00021440F23D1F8084893409C43C1F80848DA
:100BB000D1F8083890400343C1F8083810BD000050
:100BC000003001400CB500222749009201920868CC
:100BD00040F4803008604FF4A043086800F400300F
:100BE00001900098401C0090019810B9009898421C
:100BF000F3D10868800334D5012001901A484030B1
:100C0000026842F0805202601848026842F4404292
:100C100002601548083002680260026842F400422F
:100C20000260026842F4A0520260031F104A1A6078
:100C30000A6842F080720A600A689201FCD50D4988
:100C400040F205720A60016821F003010160016849
:100C500041F0020101600168C1F381010229FAD16A
:100C60000CBD01920CBD0000003802400070004035
:100C700008544007003C02404FF0E0210428086976
:100C800003D020F004000861704740F00400FAE748
:100C900010B501F019FF012803D0BDE8104001F0A4
:100CA00007BC10BD124810B5016841F47001016025
:100CB0001048016841F0010101600E4A002108322C
:100CC000116002680C4B1A400260031D0B4A1A6047
:100CD000026822F48022026006480C300160FFF7AF
:100CE00071FF03494FF000608039086010BD0000BB
:100CF00088ED00E000380240FFFFF6FE10300024CF
:100D000010B5084C0121204600F09FF8012802D1BF
:100D100005A0FFF70FFB2046BDE81040012100F0C1
:100D200087B800000004004054494D33CAE4B3F6CC
:100D30002E2E2E2E2E2E2E0D0A0000007FB50D46D3
:100D4000044601210220FFF7C5FE0194ADF80050D2
:100D50000024104DADF80240ADF808406946284621
:100D600000F088F801221146284600F07AF80121A7
:100D7000284600F060F81D208DF80C0003208DF847
:100D80000D008DF80E4001208DF80F0003A8FFF72D
:100D900059FE7FBD0004004010B5084C01212046DB
:100DA00000F053F8012802D105A0FFF7C3FA20464E
:100DB000BDE81040012100F03BB80000000C0040ED
:100DC00054494D35CAE4B3F62E2E2E2E2E2E2E0D5E
:100DD0000A0000007FB50D46044601210820FFF7F8
:100DE00079FE0194ADF800500024104DADF802409A
:100DF000ADF808406946284600F03CF8012211464B
:100E0000284600F02EF80121284600F014F8322080
:100E10008DF80C0005208DF80D008DF80E40012096
:100E20008DF80F0003A8FFF70DFE7FBD000C0040FA
:100E3000C943018270470029018802D041F00101B5
:100E400001E021F001010180704702460020138A71
:100E500092890B4202EA010202D0002A00D001204E
:100E60007047002A828901D00A4300E08A438281C8
:100E70007047000030B50288164C174DA0420DD0C7
:100E8000A8420BD0B0F1804F08D0144B984205D047
:100E9000134B984202D0134B984203D122F07003B7
:100EA0004A881A43104B984206D0104B984203D000
:100EB00022F440730A891A4302804A68C2620A888F
:100EC0000285A04201D0A84201D1897A0186012180
:100ED000818230BD00000140000401400004004058
:100EE00000080040000C00400010004000140040CA
:100EF00070B5154C40F22551204600F035F8002819
:100F00000ED0204600F0BEF8104AC1B2108803048B
:100F100006D444044FF0000306D50A2901D01380FB
:100F200070BD40F400400DE00D2909D0C0F30D0460
:100F3000074D401C80B229551080C728EFD870BDDE
:100F400040F48040108070BD001001402600002059
:100F5000B00000200029818902D041F4005101E055
:100F600021F400518181704770B501F01F05012601
:100F70000024C1F3421306FA05F2012B0FD0022B15
:100F80000FD0838A4FEA11210088134206FA01F636
:100F900000EA060001D000B10124204670BD83891B
:100FA000F0E7038AEEE710B5C1F3421301F01F0426
:100FB0000121A140012B07D0022B07D01430002AB9
:100FC000026805D00A4304E00C30F8E71030F6E779
:100FD0008A43026010BD00007FB50446008A0D46BA
:100FE000C98820F4405001432182A08941F20C615C
:100FF0008843A9882A8911436A8902431143A18140
:10100000A08A20F44071A8890843A0826846FFF7AF
:1010100079FD1A48844202D01948844201D10398CC
:1010200000E00298A189090400EBC00101EB001067
:10103000296801D5490000E08900B0FBF1F0642285
:10104000B0FBF2F109010B096FF018056B4300EBDF
:101050008300A3891D044FF0320306D503EBC000C3
:10106000B0FBF2F000F0070005E003EB0010B0FB6E
:10107000F2F000F00F00084320817FBD0010014016
:10108000001401408088C0F308007047FEE77047F5
:1010900010B504460420FFF7EFFD0A484FF47A71BB
:1010A000047014FB01F1012242804FF0E02002693C
:1010B00042F0020202614161016941F001010161F6
:1010C00010BD00002200002070B54FF0E025002187
:1010D0006C69094AAB6912785043AA699A42FCD0FC
:1010E00002D2A3EB020302E0A4EB0206334419444C
:1010F00013468142F1D370BD2200002070B5054631
:1011000000244FF47A7603E03046FFF7DDFF641CDD
:10111000AC42F9D370BD000003490A885206FCD5E1
:10112000C2B28A807047000000100140054C4FF4A5
:101130007A75D4F8A402C143C4F8A412284600F07A
:101140003DFFF6E7008042427CB54FF44070FFF768
:10115000ABFCA820FFF79CFF4FF4E13000F04EFD00
:10116000FFF74EFCFFF72AFCFFF76CFB42F2CF04BF
:1011700042F20F7521462846FFF7E0FD214628463A
:10118000FFF728FE06490120CDE9000102020023F5
:1011900004A1074801F06CFC01F070F800207CBD50
:1011A0000000002073746172745F7461736B0000DF
:1011B000711B00082DE9F041184E0F460446F568F2
:1011C0003068001D00F070FD38B9306890F82C10C0
:1011D00001208840316981433161601C07D137B1FA
:1011E0003168BDE8F0410E48091D00F095BD30683A
:1011F0002C44AC424460316805D2B06BBDE8F0418C
:10120000091D00F071BD706B091D00F06DFDB06A25
:10121000844200D2B462BDE8F08100003C000020AE
:10122000880400202DE9F041054600F081FD2D4E97
:10123000B068401CB06030682B4F10B1706930B39B
:101240002BE03560B068012827D1002404EB84002E
:1012500007EB800000F03AFD641C202CF6D32348F5
:1012600000F034FD2148143000F030FD1F482830D4
:1012700000F02CFD1D483C3000F028FD1B4850308C
:1012800000F024FD194870631430B06305E0306845
:10129000E96AC06A884200D83560706A0121401C42
:1012A00070626864E86A326981401143316100EB21
:1012B000800007EB8000291D00F02EFD00F074FD7A
:1012C000706900280CD03068E96AC06A884207D289
:1012D00007494FF080500860BFF34F8FBFF36F8F07
:1012E000BDE8F0813C000020B80100203804002057
:1012F00004ED00E010B500F01BFD0E4C2068A0B915
:101300000D4800F0E3FC0C48143000F0DFFC0A4804
:10131000E0601430206100221021052001F0DEF889
:10132000206010B105A100F015FEBDE8104000F0EE
:101330003BBD0000780000209C040020546D7251D9
:101340000000000070B5124E124D1CE000F0E0FFEE
:10135000306820B1002401F0E5FCA4B901E00124CB
:10136000F9E700F0E5FCF068C468201D00F09CFC83
:10137000A868401EA8606868401E686000F014FD00
:10138000204600F052F868680028DFD170BD0000E8
:10139000740400203C00002030B4026C0B46002A8C
:1013A0000BD0C1681144C1604468A14201D30168F7
:1013B000C16030BC1846FFF763B830BC70472DE9F8
:1013C000F041856B174604460026026C82B1C7B116
:1013D000E068FFF755F8E168206C091AE1602268BF
:1013E000914202D26168081AE060022F16D017E01D
:1013F0002068A8B9606801F0EFFB06460020606035
:101400000EE0A068FFF73CF8216CA0680844A060DB
:101410006168884204D32068A06001E005B16D1EB8
:101420006D1CA5633046BDE8F08110B50446006B25
:1014300000F0ECFC2046BDE8104000F0E7BC0000E6
:1014400010484FF4A041420706D0C01D0D4920F0BE
:101450000700411AC1F5A0410B4A00230144C2E92B
:1014600000030839103A21F0070111604B600B604E
:101470000B1AC0E9001393604FF000405360D06036
:1014800070470000C4040020A8000020074E4FF061
:101490008054074DFFF756FF30680128FAD92C60B9
:1014A000BFF34F8FBFF36F8FF4E70000B801002048
:1014B00004ED00E02DE9F047DDE909840E4617460A
:1014C000824691009946089DA522206BFFF71DF8E2
:1014D0006FF00301206B01EB8701084420F0070740
:1014E000780705D040F22B3219A11EA0FEF722FF8B
:1014F00000202218315C82F83410315C11B1401C9C
:101500001028F6D3002684F84360202D00D31F2531
:10151000E562C4E91356201D00F0E3FB04F1180056
:1015200000F0DFFB2461C5F120006462A061666504
:1015300084F858604A465146384600F003FB206064
:10154000B8F1000F01D0C8F80040BDE8F0870000F6
:101550002E2E5C4672656552544F535C7461736BFA
:10156000732E63004572726F723A25732C25640DD9
:101570000A00000030B5114900E011460A688242B5
:10158000FBD34B685C18844203D140681844486020
:10159000084643681C18944209D1084C103C246842
:1015A000A24209D052681A4442600A681268026076
:1015B000814200D0086030BD0460F9E7A800002037
:1015C00070B5002441600B4D0061914206D8D11ADC
:1015D0008269914206D2011D286907E09A4203D22E
:1015E000994201D3012403E0011DE86800F07CFB6F
:1015F000204670BD7800002010B5044600F098FB2E
:10160000A06B20B1002400F0CFFB204610BD0124C8
:10161000F9E700002DE9F34100980F460026846C9D
:101620002CB940F6CE1216A11AA0FEF783FEA06BCD
:10163000E16B884205D340F6CF1211A115A0FEF749
:1016400079FEA06BE16B88420CD294F945503A4682
:1016500069462046FFF7B3FE0646681C05D06D1CA0
:1016600084F845503046BDE8FC81606A0028F9D016
:1016700004F1240001F00AFB0028F3D00126F1E771
:101680002E2E5C4672656552544F535C71756575BC
:10169000652E63004572726F723A25732C25640DB6
:1016A0000A000000F8B5054614480E46C068C06838
:1016B000C468201D00F0F8FAE069012817D1A0697C
:1016C0002B46411932462046FFF77AFF78B10020B9
:1016D0000346014600902A46204601F009FC30B935
:1016E00007494FF4027201F11800FEF723FE616A08
:1016F00001B02046BDE8F040084700007800002017
:10170000542E000870B586B02F4E53E00198002883
:1017100006DADDE90301029A90470198002849DBC7
:10172000039C606910B1201D00F0BEFA05A800F00E
:10173000A7F8054601980A283CD2DFE800F0050525
:10174000053B273805053B270298A169034601445C
:101750002A462046FFF734FF00282BD0616A204636
:101760008847E069012825D1002000900298A169EE
:10177000002342181946204601F0BAFBD0B940F2C6
:10178000213212A117A0FEF7D5FD13E00298A06147
:1017900028B94FF44E720DA112A0FEF7CBFDA0693F
:1017A0002B4641191A462046FFF70AFF02E0204661
:1017B00000F02CFB00231A4601A9306800F0CAFE95
:1017C0000028A3D106B070BD780000202E2E5C4604
:1017D00072656552544F535C74696D6572732E6304
:1017E000000000004572726F723A25732C25640D5B
:1017F0000A000000F8B50D46064600F089FD68466F
:1018000000F03EF80446009810B101F08BFAF8BDE4
:101810001148ADB101690968D9B10025311B2A46CB
:10182000006800F0A9FB01F07DFA0028EFD10B4918
:101830004FF080500860BFF34F8FBFF36F8FF8BD3C
:10184000A642EBD801F06EFA21463046FFF72AFF98
:10185000F8BD0125E2E700007800002004ED00E07B
:101860000648416B096829B1416BC968C968496874
:10187000816270474FF0FF31FAE700003C00002022
:1018800070B5054601F02EF9064E0446B068844254
:1018900003D200F009F8012000E000202860204673
:1018A000B46070BD78000020F8B5184E26E0C0681E
:1018B000C4680568201D00F0F7F9616A2046884772
:1018C000E06901281AD1A0692844A84206D92461F8
:1018D0006060211DF06800F007FA0FE00020034669
:1018E000014600902A46204601F002FB30B9084923
:1018F00040F2923201F11800FEF71CFDF068016819
:101900000029D4D13169C6E90310F8BD7800002060
:10191000542E000808484068401C05D040F20F12C1
:1019200006A111A0FEF706FD502080F31188BFF339
:101930004F8FBFF36F8FFEE78C0000202E2E5C468A
:1019400072656552544F535C706F727461626C655E
:101950005C525644535C41524D5F434D34465C707B
:101960006F72742E630000004572726F723A2573B5
:101970002C25640D0A000000084CE068016839B1AC
:10198000002139B10020FFF735FFFFF7BBFEF4E778
:101990000121F6E7C0680068F5E700007800002044
:1019A0002DE9F041044600F0C3F994F9455004F1E3
:1019B000240610E0A06C20B100212046FFF72AFE8B
:1019C00004E0606A48B1304601F060F908B100F007
:1019D00091FB6D1E6DB2002DECDC4FF0FF3684F8EC
:1019E000456000F0E1F900F0A3F994F9445004F1E6
:1019F000100709E0206948B1384601F047F908B1FD
:101A000000F078FB6D1E6DB2002DF3DC84F84460AD
:101A1000BDE8F04100F0C8B92DE9F04105460026C7
:101A200000F076FC324F386808B9FFF709FDF86816
:101A300005424FD1002D4DD0083568070BD005F079
:101A40000700C0F108000544680704D0BF2229A19F
:101A500032A0FEF76FFC002D3CD07868854239D863
:101A6000234910310846046801E0214604466068B5
:101A7000A84202D220680028F7D13868B8468442CC
:101A800028D00E682068086060680836401B10285F
:101A90000ED96719780704D0EC2216A11FA0FEF713
:101AA00049FC6068401B786038466560FFF762FD5E
:101AB0006168D8F804004246401AC8F80400D8F813
:101AC0000830984200D29060D8F80C000143002002
:101AD000C4E9000101F026F9700705D04FF49672B1
:101AE00004A10EA0FEF726FC3046BDE8F081000000
:101AF000980000202E2E5C4672656552544F535C50
:101B0000706F727461626C655C4D656D4D616E677E
:101B10005C686561705F342E630000004572726F0F
:101B2000723A25732C25640D0A00000004490868E8
:101B300018B10868026D521C026508687047000001
:101B40003C00002010B5031F4FF080741C601B1F69
:101B500021F001011960191F044B0B6014390A6050
:101B6000091F6FF0020244380A6010BD1519000801
:101B70001CB500F0DDF802200E49C401CDE90001DA
:101B8000002322460CA1104800F072FF09490320EF
:101B9000091DCDE900010023224609A10B4800F0F0
:101BA00067FF0448001F006800F03EFABDE81C40D3
:101BB00000F0FAB804000020696E746572727570E6
:101BC000745F7461736B00002D110008D11B000855
:101BD00000244FF47A75641C214603A0FEF7AAFB8B
:101BE000284600F0EBF9F6E7C8CECEF131D6B4D0F6
:101BF000D0B5DA2564B4CE0D0A000000F0B5064673
:101C0000012187B00846FEF759FF01211020FEF799
:101C10006DFF234D072209212846FEF7B5FE072256
:101C20000A212846FEF7B0FE02218DF814108DF827
:101C300015104FF4C060002404908DF81640012761
:101C40008DF8177004A92846FEF762FEADF804402F
:101C5000ADF80640ADF80840ADF80C400C20114C32
:101C6000ADF80A00009669462046FFF7B5F9012154
:101C70002046FFF76FF9012240F225512046FFF779
:101C800092F925208DF8180003208DF819008DF8A1
:101C90001A008DF81B7006A8FEF7D4FE07B0F0BD41
:101CA0000000024000100140D0E9013201699A6051
:101CB000D0E901235A604A68824201D182684A60B1
:101CC000002202610868401E0860704700F10801A8
:101CD0004FF0FF32C0E90112C160016100210160D3
:101CE000704700210161704730B50C68621C02D05A
:101CF00000F1080202E0026904E01A4653681D6818
:101D0000A542FAD953684B6099608A6051600861B6
:101D10000168491C016030BD42684A6093688B606D
:101D200093685960916008610168491C01607047BF
:101D3000502080F31188BFF34F8FBFF36F8F094995
:101D40004868401C486001280AD10748006810F024
:101D5000FF0F05D040F2B91204A10FA0FEF7EABAB6
:101D6000704700008C00002004ED00E02E2E5C4641
:101D700072656552544F535C706F727461626C652A
:101D80005C525644535C41524D5F434D34465C7047
:101D90006F72742E630000004572726F723A257381
:101DA0002C25640D0A00000010B5084C606828B9A5
:101DB0004FF4E07206A111A0FEF7BCFA6068401E65
:101DC000606001D180F3118810BD00008C000020FC
:101DD0002E2E5C4672656552544F535C706F727460
:101DE00061626C655C525644535C41524D5F434D99
:101DF00034465C706F72742E630000004572726F1F
:101E0000723A25732C25640D0A00000070B5002875
:101E10002AD0164DA0F108046068E968084205D18F
:101E20004FF4A07212A11CA0FEF784FA206828B11A
:101E300040F241120EA118A0FEF77CFA6068E96832
:101E4000084211D02268002A0ED18843606000F059
:101E50005FFA60686968084468602046FFF78AFB9B
:101E6000BDE8704000F05EBF70BD0000980000202B
:101E70002E2E5C4672656552544F535C706F7274BF
:101E800061626C655C4D656D4D616E675C68656136
:101E9000705F342E630000004572726F723A2573D2
:101EA0002C25640D0A00000006484FF47A71006882
:101EB000B0FBF1F14FF0E020491E416107210161C3
:101EC000704700000C00002010B5FEF70DFA104C12
:101ED00010280CD300F1E02090F8F003217888421C
:101EE00005D24FF440720BA115A0FEF723FA184853
:101EF0000068A16800F4E060884207D9BDE810409E
:101F00004FF4447203A10EA0FEF714BA10BD0000F6
:101F10008C0000202E2E5C4672656552544F535C37
:101F2000706F727461626C655C525644535C4152CE
:101F30004D5F434D34465C706F72742E6300000039
:101F40004572726F723A25732C25640D0A000000E9
:101F50000CED00E010B5074B002253F832401CB1E5
:101F6000521C082AF9D310BD43F8321003EBC2010A
:101F7000486010BD7801002070B515460E46044635
:101F8000FFF7D6FE94F944100020491C01D184F8D3
:101F9000440094F94510491C01D184F84500FFF72D
:101FA00003FFA06B28B92A46314604F1240000F053
:101FB000D1F82046BDE87040FFF7F2BC10B5040030
:101FC00012D00E49096B29B140F2CF420CA111A0E9
:101FD000FEF7B0F900F09CF900212046FFF7EAF87F
:101FE00000F0A0FE002807D10E494FF08050086095
:101FF000BFF34F8FBFF36F8F10BD00003C00002078
:102000002E2E5C4672656552544F535C7461736B3F
:10201000732E63004572726F723A25732C25640D1E
:102020000A00000004ED00E070B50446FFF780FEF2
:10203000234D04B92C68201DFFF736FE58B9E06A1D
:10204000204A00EB800152F8211021B90121814082
:10205000286988432861A06A18B104F11800FFF7C5
:1020600023FE686A401C68622868844207D1211DEB
:102070001548FFF751FE6868401C686007E0A868D3
:10208000401EA8602046FFF7D0F9FFF7E9FBFFF7F5
:102090008BFE6869002812D0286884420FD1286B13
:1020A00028B140F2654209A10DA0FEF743F910499D
:1020B0004FF080500860BFF34F8FBFF36F8F70BD3C
:1020C0003C000020B8010020740400202E2E5C4645
:1020D00072656552544F535C7461736B732E630069
:1020E0004572726F723A25732C25640D0A00000048
:1020F00004ED00E001490120C86170473C00002068
:1021000070B50D46040005D140F6063207A10CA0BB
:10211000FEF710F90E48016820461831FFF7E4FD7C
:102120002846BDE870400121FFF744B82E2E5C46DA
:1021300072656552544F535C7461736B732E630008
:102140004572726F723A25732C25640D0A000000E7
:102150003C00002070B514460E46050005D140F63F
:10216000313209A10DA0FEF7E5F8104801682846B4
:102170001831FFF7D1FD0CB14FF0FF362146304644
:10218000BDE87040FFF716B82E2E5C4672656552AA
:10219000544F535C7461736B732E63004572726F9E
:1021A000723A25732C25640D0A0000003C000020C3
:1021B00070B5040039D01D4DE06A2968C96A8842AB
:1021C00033D2A069002804DB2868C06AC0F120006F
:1021D000A061E06A164E00EB8000616906EB8000AA
:1021E00081421FD1201DFFF75FFD012150B9E06A38
:1021F00000EB800256F8222022B92A6901FA00F089
:1022000082432A612868C06AE0622A6981401143DA
:10221000296100EB800006EB8000211DBDE87040C5
:10222000FFF77ABD2868C06AE06270BD3C000020FC
:10223000B801002010B5040005D140F6C13205A157
:1022400009A0FEF777F80C48016A2160C068606059
:1022500010BD00002E2E5C4672656552544F535CD3
:102260007461736B732E63004572726F723A2573DB
:102270002C25640D0A0000003C0000201CB5174806
:102280000024CDE900402346822215A1164800F023
:10229000EFFB012803D100F0F1FD01280AD0401C1A
:1022A0001BD102B040F28472BDE810400FA114A00F
:1022B000FEF740B8502080F31188BFF34F8FBFF373
:1022C0006F8F06484FF0FF312C3881620121416148
:1022D000C460BDE81C4000F061B81CBD680000206F
:1022E00049444C45000000008D1400082E2E5C4629
:1022F00072656552544F535C7461736B732E630047
:102300004572726F723A25732C25640D0A00000025
:102310000248016B491C0163704700003C0000202B
:1023200070B5134D286B10B10120E86170BD00201D
:10233000E86128690F4EB0FA80F0C0F11F0000EB91
:10234000800456F8240028B940F6F6220AA10FA00E
:10235000FDF7F0FF06EB840000F1080241684968D0
:102360004160914201D149684160C868286070BDF0
:102370003C000020B80100202E2E5C46726565529C
:10238000544F535C7461736B732E63004572726FAC
:10239000723A25732C25640D0A0000001CB5304CE0
:1023A00020683049884205D140F259122EA139A047
:1023B000FDF7C0FF20682B49491E884205D14FF424
:1023C000AD7229A133A0FDF7B5FF364C20780190FE
:1023D000FF20207020788DF800009DF800009DF807
:1023E000001000F0F000884205D040F273121EA1E8
:1023F00028A0FDF79FFF9DF800002B4A00F0500039
:1024000010700720906007E09068401E90609DF873
:10241000000040008DF800009DF800000006F3D495
:10242000107A000200F4E0609060019820700C487F
:102430002030016841F470010160016841F0704191
:102440000160FFF731FD00205060FDF715FF1748D0
:10245000016841F040410160FDF7FEFE00201CBD17
:1024600000ED00E071C20F412E2E5C467265655290
:10247000544F535C706F727461626C655C52564469
:10248000535C41524D5F434D34465C706F72742E05
:10249000630000004572726F723A25732C25640D3B
:1024A0000A00000000E400E08C00002034EF00E0AF
:1024B00010B5502080F31188BFF34F8FBFF36F8F9B
:1024C00000F016FB18B104494FF08050086000205E
:1024D00080F3118810BD000004ED00E02DE9F0410B
:1024E00017460E46050005D14FF4C47210A115A081
:1024F000FDF720FFBEB105FB06F05430FFF78CFA64
:1025000004000ED004F154007EB12060C4E90F56DF
:102510002046012100F0E0F884F8507000212046A8
:10252000A164BDE8F0810020E7E72460EEE7000049
:102530002E2E5C4672656552544F535C71756575FD
:10254000652E63004572726F723A25732C25640DF7
:102550000A0000002DE9FF4F83B09B468A46040025
:102560004FF0000605D140F2DC4251A155A0FDF725
:10257000E1FEBAF1000F07D1206C28B140F2DD4234
:102580004BA150A0FDF7D6FE00F09EFA38B9059891
:1025900028B14FF49C6246A14AA0FDF7CBFE4FF054
:1025A00000094FF08057DFF82C81FFF7C1FBA56BC6
:1025B00045B351462046E668FEF7EEFEBBF1000F3C
:1025C00013D0E660606A50B104F1240000F05EFBB5
:1025D00028B1C8F80070BFF34F8FBFF36F8FFFF7BC
:1025E000E3FB012007B0BDE8F08F6D1EA5632068F6
:1025F00010B9FFF79BFA606020690028EFD004F162
:102600001000E3E7059808B11EB106E0FFF7CCFB28
:1026100027E06846FFF70EFE0126FFF7C5FBFFF730
:1026200077FEFFF785FB94F94400401C01D184F844
:10263000449094F94500401C01D184F84590FFF77F
:10264000B3FB05A9684600F0CFF9002820460AD060
:10265000FFF7A6F900F066FB2046FEF7CDFF002845
:10266000A3D00020BEE7FEF7C7FFD8B1206830B97D
:10267000FFF75EFB6068FFF79BFDFFF795FB04F13A
:1026800024000599FFF73CFD2046FFF789F900F08B
:1026900049FB002889D1C8F80070BFF34F8FBFF302
:1026A0006F8F82E72046FFF77BF900F03BFB7CE76A
:1026B0002E2E5C4672656552544F535C717565757C
:1026C000652E63004572726F723A25732C25640D76
:1026D0000A00000004ED00E070B50D46040005D1CD
:1026E00040F21B121CA121A0FDF724FEFFF720FBE6
:1026F000D4E90F20216802FB001161600021A16371
:102700002168A1600A46D4E90F01401E00FB0121A7
:10271000E16021464FF0FF3001F8440F487004F1AA
:1027200010004DB1FFF7D2FA04F12400FFF7CEFA02
:10273000FFF73AFB012070BD21690029F8D000F0B5
:10274000A5FA0028F4D00D494FF080500860BFF37F
:102750004F8FBFF36F8FEBE72E2E5C46726565528D
:10276000544F535C71756575652E63004572726FC9
:10277000723A25732C25640D0A00000004ED00E078
:102780002DE9FF4F83B099468B4604004FF00006B9
:1027900005D140F2D92252A156A0FDF7CBFDBBF1E5
:1027A000000F07D1206C28B140F2DA224CA151A0D1
:1027B000FDF7C0FDB9F1020F08D1E06B012805D08B
:1027C00040F2DB2246A14BA0FDF7B4FD00F07CF9FE
:1027D00038B9059828B140F2DE2241A145A0FDF7A5
:1027E000A9FD4FF0000A4FF08057DFF81881FFF77E
:1027F0009FFAA06BE16B884206D3B9F1020F03D0B8
:10280000059800B316B325E04A4659462046FEF720
:10281000D6FDA16C21B149462046FEF7FBFE05E03E
:10282000616A19B104F1240000F030FA28B1C8F847
:102830000070BFF34F8FBFF36F8FFFF7B5FA012022
:1028400007B0BDE8F08FFFF7AFFA21E06846FFF769
:10285000F1FC0126FFF7A8FAFFF75AFDFFF768FA27
:1028600094F94400401C01D184F844A094F9450037
:10287000401C01D184F845A0FFF796FA05A96846E7
:1028800000F0B2F830B12046FFF78AF800F04AFABB
:102890000020D5E7FFF74CFAA06BE16B884201D12D
:1028A000012500E00025FFF77FFA95B104F1100043
:1028B0000599FFF725FC2046FFF772F800F032FA81
:1028C000002894D1C8F80070BFF34F8FBFF36F8F0B
:1028D0008DE72046FFF764F800F024FA87E7000050
:1028E0002E2E5C4672656552544F535C717565754A
:1028F000652E63004572726F723A25732C25640D44
:102900000A00000004ED00E02DE9F0479846154666
:102910008946040005D140F29F322AA12EA0FDF77E
:1029200009FDB9F1000F07D1206C28B14FF468728E
:1029300024A129A0FDF7FEFCB8F1020F08D1E06B3D
:10294000012805D040F2A1321EA123A0FDF7F2FC20
:10295000FFF7BAFA5020EFF3118780F31188BFF325
:102960004F8FBFF36F8FA06BE16B884207D3B8F135
:10297000020F04D0002087F31188BDE8F08794F996
:102980004560424649462046FEF719FD701C04D0BA
:10299000761C84F845600120EDE7A06C012620B18B
:1029A00041462046FEF736FE06E0606A0028F2D077
:1029B00004F1240000F06AF90028ECD0002DEAD0E0
:1029C0002E60E8E72E2E5C4672656552544F535CCC
:1029D00071756575652E63004572726F723A257365
:1029E0002C25640D0A00000070B50D46040005D1C9
:1029F00040F6CB3214A119A0FDF79CFC2DB940F68E
:102A0000CC3211A115A0FDF795FCFFF791F9174AFB
:102A1000D06829684B1C0FD02368126A934202D0F9
:102A2000626882420AD96268801A884206D2081A0D
:102A300028602046FFF7FEFB002400E00124FFF79A
:102A4000B3F9204670BD00002E2E5C4672656552BB
:102A5000544F535C7461736B732E63004572726FD5
:102A6000723A25732C25640D0A0000003C000020FA
:102A70002DE9FF5F8346DDE90E87994616468A46B3
:102A80009000FEF7C9FF05001AD05C20FEF7C4FFD6
:102A9000040012D025630021CDE90241CDE9008771
:102AA0004B46324651465846FEF704FD2046FEF797
:102AB000B9FB012004B0BDE8F09F2846FFF7A6F956
:102AC0004FF0FF30F6E700000548416919B1006B8F
:102AD00018B10020704701207047022070470000A5
:102AE0003C0000200148C068704700003C00002006
:102AF0002DE9F0412D4F0026386B40B1B869401CDC
:102B0000B861F86900B101263046BDE8F081FD6882
:102B10006D1CFD6011D1786B006828B140F6D912A8
:102B200023A128A0FDF706FC786BB96B7963B86325
:102B3000386A401C3862FEF793FEB86ADFF894806A
:102B4000854209D3786B006880B1786BC068C4682F
:102B5000606885420DD2B8623868C06A00EB8001B7
:102B600058F821000128CCD90126CAE74FF0FF30E0
:102B7000F1E7201DFFF798F8A06A18B104F11800DA
:102B8000FFF792F8E06A01213A6981401143396107
:102B900000EB800108EB8100211DFFF7BDF8E06A22
:102BA0003968C96A8842CDD30126CBE73C000020B2
:102BB0002E2E5C4672656552544F535C7461736B84
:102BC000732E63004572726F723A25732C25640D63
:102BD0000A000000B801002070B504004FF00006A4
:102BE0003CD01F4D2868844205D040F6C7621DA125
:102BF00021A0FDF79FFB206D28B940F6C96219A1FD
:102C00001DA0FDF797FB206D401E2065E26CE16A78
:102C1000914223D010BB201DFFF746F81A4901222C
:102C200050B9E06A00EB800351F8233023B92B69D7
:102C300002FA00F083432B61E06CE062C0F12000F7
:102C4000A061E06A2B6982401A432A6100EB800090
:102C500001EB8000211DFFF75FF80126304670BDB3
:102C60003C0000202E2E5C4672656552544F535C2A
:102C70007461736B732E63004572726F723A2573C1
:102C80002C25640D0A000000B80100202DE9F04158
:102C9000C068C4682CB940F6613216A11AA0FDF7CD
:102CA00049FB04F118000746FEF7FEFF1A4D286B9A
:102CB000012660B139461948FFF72EF8E06A296805
:102CC000C96A884213D90120EE61BDE8F081201D58
:102CD000FEF7EAFFE06A2A6906FA00F1114329616A
:102CE0000F4900EB800001EB8000211DE4E700208C
:102CF000EBE700002E2E5C4672656552544F535C24
:102D00007461736B732E63004572726F723A257330
:102D10002C25640D0A0000003C0000206004002007
:102D2000B80100202DE9F0472B4D00242746286BE1
:102D300028B94FF4FD6229A12DA0FDF7FBFAFEF79B
:102D4000F7FF286B401E2863286BE8BBA8682C4956
:102D50000126C8B3A1F52A798846D8F80010E9B150
:102D6000D8F80C00C46804F11800FEF79DFF201D80
:102D7000FEF79AFFE06A2A6906FA00F11143296119
:102D800000EB800109EB8100211DFEF7C5FFE06A21
:102D90002968C96A8842E0D3EE61DEE70CB1FEF72C
:102DA0005FFDAC693CB1FFF7A3FE00B1EE61641EAC
:102DB000F9D10020A861E86930B11249012738072C
:102DC0000860BFF34F8F00E001E0BFF36F8FFEF7A5
:102DD000EBFF3846BDE8F0873C0000202E2E5C4615
:102DE00072656552544F535C7461736B732E63004C
:102DF0004572726F723A25732C25640D0A0000002B
:102E00006004002004ED00E02DE9F04707469946F4
:102E100016460D462C20DDF820A0FEF7FDFD04002F
:102E200014D0B8464F46D1462DB94FF4C67209A109
:102E30000EA0FDF77FFAFEF75DFA04F11801C4F861
:102E4000008081E8E002201DFEF74BFF2046BDE830
:102E5000F08700002E2E5C4672656552544F535C1D
:102E600074696D6572732E63000000004572726FA5
:102E7000723A25732C25640D0A0000001CB500244D
:102E8000FEF738FA0C48006868B10B491F20091D8D
:102E9000CDE9000100234FF4827208A10948FFF731
:102EA000E7FD040005D140F2331207A10CA0FDF7A5
:102EB00041FA20461CBD000078000020546D7220AD
:102EC00053766300791900082E2E5C4672656552B0
:102ED000544F535C74696D6572732E63000000007B
:102EE0004572726F723A25732C25640D0A0000003A
:102EF0002DE9FF47DDF830A0994690460D460600C3
:102F00004FF0000705D14FF4D37212A117A0FDF7BF
:102F100011FA1A4C206880B1CDE900580296062DAE
:102F200011DAFFF7D1FD02284FF0000309D000228B
:102F300069462068FFF724FC074604B03846BDE820
:102F4000F0875246F4E700234A466946FFF7DCFC67
:102F5000F2E700002E2E5C4672656552544F535CBA
:102F600074696D6572732E63000000004572726FA4
:102F7000723A25732C25640D0A00000078000020A9
:102F80004FF04070E1EE100A70470000AC2F0008CF
:102F900000000020B0000000C40100085C30000800
:102FA000B0000020785A0000E00100080000000096
:102FB0000000000000000000007A030A000000008A
:102FC00000000000010203040607080900000000D9
:102FD00000000000000000000000000001020304E7
:102FE00001020304060708090000000000000000B9
:102FF00000000000000000000000000000000000D1
:1030000000000000000000000000000000000000C0
:1030100000000000000000000000000000000000B0
:1030200000000000000000000000000000000000A0
:10303000000000000000000000000000AAAAAAAAE8
:103040000000000000000000000000000000000080
:0C30500000000000000000000000000074
:040000050800018965
:00000001FF
