:020000040800F2
:1000000020350120F1020008BD0900086B08000836
:10001000B9090008790700081F1000080000000057
:100020000000000000000000000000003102000895
:100030007D070008000000008D020008650D000823
:100040000B0300080B0300080B0300080B03000858
:100050000B0300080B0300080B0300080B03000848
:100060000B0300080B0300080B0300080B03000838
:100070000B0300080B0300080B0300080B03000828
:100080000B0300080B0300080B0300080B03000818
:100090000B0300080B0300080B0300080B03000808
:1000A0000B0300080B0300080B0300080B030008F8
:1000B0000B0300080B0300080B0300080B030008E8
:1000C0000B0300080B0300080B0300080B030008D8
:1000D0000B030008010E00080B0300080B030008C7
:1000E0000B0300080B0300080B0300080B030008B8
:1000F0000B0300080B0300080B0300080B030008A8
:100100000B0300080B0300080B0300080B03000897
:100110000B0300080B0300080B0300080B03000887
:100120000B0300080B0300080B0300080B03000877
:100130000B0300080B0300080B0300080B03000867
:100140000B0300080B0300080B0300080B03000857
:100150000B0300080B0300080B0300080B03000847
:100160000B0300080B0300080B0300080B03000837
:100170000B0300080B0300080B0300080B03000827
:100180000B0300080B03000800F002F800F041F830
:100190000AA090E8000C82448344AAF10107DA45E2
:1001A00001D100F036F8AFF2090EBAE80F0013F0F3
:1001B000010F18BFFB1A43F001031847642F00001A
:1001C000842F0000103A24BF78C878C1FAD85207AB
:1001D00024BF30C830C144BF04680C6070470000C1
:1001E0000023002400250026103A28BF78C1FBD840
:1001F000520728BF30C148BF0B607047642900F028
:10020000D980002070471FB502F084FF1FBD10B5D4
:1002100010BD00F05FFA1146FFF7F5FF00F078FF20
:1002200000F07DFA03B4FFF7F2FF03BC00F0F9FE23
:100230002C4B19680868B0E8F04F80F30988BFF3C9
:100240006F8F4FF0000080F31188704700000000AE
:1002500008480068006880F308884FF0000080F3C9
:10026000148862B661B6BFF34F8FBFF36F8F00DFA4
:1002700000BF00BF08ED00E0DFF80C00016841F4AA
:1002800070010160704700BF88ED00E0EFF3098066
:10029000BFF36F8F134B1A681EF0100F08BF20EDCD
:1002A000108A20E9F04F106009B44FF0500080F33D
:1002B0001188BFF34F8FBFF36F8F02F0C9F84FF073
:1002C000000080F3118809BC19680868B0E8F04F95
:1002D0001EF0100F08BFB0EC108A80F30988BFF33E
:1002E0006F8F704748000020EFF3058070470000D3
:1002F0000948804709480047FEE7FEE7FEE7FEE7BA
:10030000FEE7FEE7FEE7FEE7FEE7FEE704480549F5
:10031000054A064B70470000990D00088901000846
:10032000202F012020350120203101202031012003
:10033000704700000FB4044910B503AA029800F0FA
:1003400047F910BC5DF814FB300000202DE9F041A6
:100350000E460446002020622046E168884730B3FC
:10036000252805D0D4E901219047206A401CF2E7F6
:10037000E168204600278847050018D0A5F1410014
:10038000192802D820354FF4006732462946204606
:100390002760FFF733FF40B1012804D0F61D26F097
:1003A00007060836D8E7361DD6E72846DAE7206A7A
:1003B000BDE8F0812DE9F04106460024106875295A
:1003C000314616A510D0AFF30080002802DA404273
:1003D00013A507E031688A0701D512A502E0490795
:1003E00004D511A5012401E0AFF3008000210A2209
:1003F00006F1240709E0B0FBF2FCB0FBF2F302FBCC
:100400001C00303078541846491C0028F3D123468C
:100410002A463046BDE8F04100F080B800000000F8
:100420002D0000002B00000020000000032A40F2F5
:10043000308010F0030C00F0158011F8013BBCF186
:10044000020F624498BF11F801CB00F8013B38BF9E
:1004500011F8013BA2F1040298BF00F801CB38BFAC
:1004600000F8013B11F0030300F0C480083AC0F02B
:10047000088051F8043B083A51F804CBA0E8081072
:10048000F5E7121D5CBF51F8043B40F8043BAFF3A5
:100490000080D20724BF11F8013B11F801CB48BFFF
:1004A00011F8012B24BF00F8013B00F801CB48BF35
:1004B00000F8012B704702F0FF0343EA032242EAEF
:1004C000024200F0CBB84FF0000200B5134694464C
:1004D0009646203922BFA0E80C50A0E80C50B1F19C
:1004E0002001BFF4F7AF090728BFA0E80C5048BFB0
:1004F0000CC05DF804EB890028BF40F8042B08BF4E
:10050000704748BF20F8022B11F0804F18BF00F849
:10051000012B704770477047704770472DE9F047CF
:100520000D4699469246044600F124080168880663
:1005300004D5E06921F01001216000E00120A8420B
:1005400001DD471B00E00027A1697A1902EB0900D1
:10055000081AA0612078C00602D42046AFF30080BC
:10056000002608E0D4E901211AF806009047206A25
:10057000401C761C20624E45F4DB2078C0060AD56C
:100580002046AFF3008006E0D4E9012130209047F7
:10059000206A401C2062381EA7F10107F4DC07E046
:1005A000D4E9012118F805009047206A401C206218
:1005B000281EA5F10105F3DC2046AFF3008020786A
:1005C000000602D50220BDE8F0870120FBE700000D
:1005D000074B70B50D467B4400F065F8044628468D
:1005E00000F074F810B14FF0FF3070BD204670BDC0
:1005F0001B0B000010B5203AC0F00B80B1E818507A
:10060000203AA0E81850B1E81850A0E81850BFF4FC
:10061000F5AF5FEA027C24BFB1E81850A0E818509B
:1006200044BF18C918C0BDE810405FEA827C24BFEF
:1006300051F8043B40F8043B08BF7047D20728BF7D
:1006400031F8023B48BF11F8012B28BF20F8023BCC
:1006500048BF00F8012B70474FF000020429C0F09A
:10066000128010F0030C3FF430AFCCF1040CBCF15D
:10067000020F18BF00F8012BA8BF20F8022BA1EB36
:100680000C01FFF722BF5FEAC17C24BF00F8012BF9
:1006900000F8012B48BF00F8012B704701694A1C84
:1006A00002610878704700B58FB0CDE901310021B3
:1006B000059105497944CDE9031011466846FFF7D5
:1006C00045FE0FB000BD0000E5FFFFFF007B00F01E
:1006D00080007047754600F02BF8AE46050069466D
:1006E000534620F00700854618B020B5FFF70EFEF0
:1006F000BDE820404FF000064FF000074FF0000823
:100700004FF0000B21F00701AC46ACE8C009ACE8A3
:10071000C009ACE8C009ACE8C0098D46704710B507
:100720000446AFF300802046BDE81040FFF77ABDD5
:1007300000487047BC2E012010B5044605480078DB
:10074000401C044908700846017803A0FFF7F2FD39
:1007500010BD0000100000204175746F52656C6F71
:10076000616454696D65722072756E6E696E672082
:100770003A2025640D0A000000BFFEE77047F0B57F
:100780000A4600210023002400BF3DE0012505FAB0
:1007900001F3156805EA03049C4234D105684F0053
:1007A0000326BE40B543056015794E00B540066886
:1007B000354305601579012D02D01579022D16D12A
:1007C00085684F000326BE40B543856055794E00CD
:1007D000B540866835438560456801268E40B5433F
:1007E0004560456896798E40B6B235434560C56828
:1007F0004F000326BE40B543C560D5794E00B540D5
:10080000C6683543C560491C1029BFD3F0BDF0B59B
:10081000002300244D07ED0E02FA05F3CE1000F17F
:10082000200555F826504E07F70E0F26BE40B5435B
:10083000CF1000F1200646F82750CE1000F1200519
:1008400055F8265045EA0304CE1000F1200545F87E
:100850002640F0BD0246002013690B400BB1012079
:1008600000E0002070470183704700BFFEE70000F2
:100870001CB50121112000F007F91C200090002078
:100880008DF8040003208DF8050001208DF8070085
:1008900069460648FFF773FF0120009002208DF89B
:1008A000070069460248FFF76AFF1CBD00100240BE
:1008B0000000024010B5044614B101202C49087014
:1008C0002B480078002837D010212A48FFF7C2FFB4
:1008D00078B108212748FFF7BDFF50B10421254812
:1008E000FFF7B8FF28B101212348FFF7B3FF012824
:1008F00022D10A2000F0BAFB00201D490870102107
:100900001C48FFF7A7FF08B9012010BD08211948AE
:10091000FFF7A0FF08B90220F7E704211548FFF709
:1009200099FF08B90320F0E701211348FFF792FF70
:1009300001281BD10420E8E710210E48FFF78AFFA9
:10094000012813D108210B48FFF784FF01280DD19E
:1009500004210848FFF77EFF012807D1012106483E
:10096000FFF778FF10B90120014908700020CCE79B
:100970002800002000100240000002401CB50121A8
:10098000084600F081F8C020009001208DF8040096
:1009900000208DF8060003208DF8050001208DF859
:1009A000070069460348FFF7EAFEC0210148FFF748
:1009B0005AFF1CBD0000024000BFFEE77047000068
:1009C00070B5002100230F22C4781CB3174C246893
:1009D00004F4E064C4F5E064C4F30721C1F1040445
:1009E000E3B20A4144789C40E1B284781440214348
:1009F0000C07210E0E4C05786155047804F01F0594
:100A00000124AC4005786D11AD0005F1E025C5F875
:100A1000004109E0047804F01F050124AC40054DB5
:100A20000678761145F8264070BD00000CED00E018
:100A300000E400E080E100E002490143024A116065
:100A4000704700000000FA050CED00E010B5044608
:100A500005480078401C044908700846017803A046
:100A6000FFF768FC10BD0000110000204F6E6553B9
:100A7000686F7454696D65722072756E6E696E6709
:100A8000203A2025640D0A0029B1064A1268024363
:100A9000044B1A6004E0034A12688243014B1A6057
:100AA000704700003038024029B1064A12680243FC
:100AB000044B1A6004E0034A12688243014B1A6037
:100AC0007047000044380240F0B5002100220024A5
:100AD000022500260223324F3F6807F00C0121B1A6
:100AE000042905D0082937D105E02E4F076036E0EC
:100AF0002D4F076033E02A4F3F1F3F68C7F38056F2
:100B0000274F3F1F3F6807F03F036EB1264FB7FBEB
:100B1000F3F7DFF88CC0ACF1040CDCF800C0CCF3C8
:100B2000881C07FB0CF40CE01E4FB7FBF3F7DFF853
:100B300070C0ACF1040CDCF800C0CCF3881C07FBDF
:100B40000CF4174F3F1F3F68C7F301477F1C7D0020
:100B5000B4FBF5F7076002E0124F076000BF00BF6B
:100B60000F4F3F6807F0F0010909104F7A5C0768E2
:100B7000D74047600A4F3F6807F4E051890A0B4F9E
:100B80007A5C4768D7408760054F3F6807F460414B
:100B9000490B064F7A5C4768D740C760F0BD00003C
:100BA000083802400024F40000127A0036000020C9
:100BB0000CB50020019000903448006840F480306B
:100BC0003249086000BF3148006800F400300090EE
:100BD0000198401C0190009818B90198B0F5A04FF9
:100BE000F1D12A48006800F4003010B101200090D3
:100BF00001E0002000900098012846D123484030B1
:100C0000006840F080502149403108602048006869
:100C100040F440401E4908601C48083000681B49E9
:100C2000083108600846006840F400400860084643
:100C3000006840F4A05008601648091F0860081FAB
:100C4000006840F08070091F086000BF0F4800680E
:100C500000F000700028F9D040F205700E490860DD
:100C60000A480830006820F003000849083108608D
:100C70000846006840F00200086000BF03480830E2
:100C8000006800F00C000828F8D10CBD00380240C4
:100C90000070004008544007003C02401CB5044668
:100CA00001F068F9134801231A464FF47A71009055
:100CB00011A002F0A5F9144908601448022300228B
:100CC0004FF4FA61009012A002F09AF914490860FA
:100CD0001448022100238022CDE9001012A11548FA
:100CE00001F072FF1448006801F098FA01F06CF905
:100CF0001CBD0000390700084175746F52656C6FA8
:100D0000616454696D657200080000204D0A000896
:100D10004F6E6553686F7454696D65720000000012
:100D20000C0000200400002074696D65725461732A
:100D30006B000000FD1C000800000020042808D102
:100D40004FF0E021096941F004014FF0E022116108
:100D500007E04FF0E021096921F004014FF0E022A3
:100D60001161704710B500BF502080F31188BFF3A8
:100D70004F8FBFF36F8F00BF01F06CFF18B14FF0C2
:100D800080500449086000BF002080F3118800BF34
:100D900010BD000004ED00E010B51548006840F4F7
:100DA0007000134908601348006840F001001149C1
:100DB000086000200F49083108600E4800680E499D
:100DC00008400C4908600D48091D0860081F0068AC
:100DD00020F48020091F0860002006490C310860BB
:100DE000FFF7E6FE4FF0006001498039086010BD52
:100DF00088ED00E000380240FFFFF6FE10300024CE
:100E000010B540F225511D4800F04AF810B31B48B8
:100E100000F000F9C4B21A48008800F40040C8B9D4
:100E20001748008800F4804060B10A2C03D00020ED
:100E30001349088020E01248008840F4004010491F
:100E4000088019E00D2C06D10D48008840F4804040
:100E50000B49088010E00A480088C0F30D000949DA
:100E60000C5407480088401C054908800846008843
:100E7000C72801DD0020088010BD000000100140DF
:100E800034000020C400002021B1828942F40052C5
:100E9000828104E082894DF6FF731A408281704797
:100EA00070B50246002400230025002040F66A1693
:100EB000B14200D100BFC1F3421501F01F0301266A
:100EC00006FA03F3012D02D19689334006E0022D84
:100ED00002D1168A334001E0968A33400C12012673
:100EE00006FA04F41688344013B10CB1012000E076
:100EF000002070BDF0B50346002400260025002028
:100F000040F66A17B94200D100BF1846C1F3421437
:100F100001F01F06012707FA06F5012C01D10C305C
:100F200004E0022C01D1103000E014301AB107683F
:100F30002F43076002E00768AF430760F0BD000081
:100F40002DE9FF4705460E460024A14600BFA046F6
:100F5000B08900B100BF2C8A24F44054F0880443C7
:100F60002C82AC8941F20C608443B08831890843FB
:100F7000718908430443AC81AC8A24F44074B0897D
:100F80000443AC826846FFF79FFD2048854202D0AB
:100F90001F48854202D1DDF80C9001E0DDF8089091
:100FA000A88900F4004040B109EBC90000EB09102A
:100FB00031684900B0FBF1F707E009EBC90000EB2D
:100FC000091031688900B0FBF1F76420B7FBF0F03D
:100FD00004012009642101FB1078A88900F4004075
:100FE00040B1322000EBC800B0FBF1F000F0070088
:100FF000044308E0322000EB08106421B0FBF1F05C
:1010000000F00F0004432C81BDE8FF870010014071
:101010000014014001468888C0F30800704700BFF3
:10102000FEE700BF7047000070B504460420FFF7DC
:1010300085FE0C48047025464FF47A704543012024
:10104000094908804FF0E020006940F002004FF0AD
:10105000E021086108464561006940F0010008612F
:1010600070BD00002A0000202C00002070B504464E
:1010700001F0DAFD012810D00B480088844206D325
:1010800009480088B4FBF0F5284601F099F80648B5
:101090000088B4FBF0F100FB11444FF47A7104FBBB
:1010A00001F000F003F870BD2C00002070B503467D
:1010B00000224FF0E02675690D4E367803FB06F4EA
:1010C0004FF0E026B16910E04FF0E026B0698842A9
:1010D0000BD0884202D20E1A324402E02E1A0E447D
:1010E00032440146A24200D300E0EDE700BF70BDEC
:1010F0002A00002000BF054A128802F04002002AA0
:10110000F9D0C2B2014B9A80704700000010014034
:101110001CB54FF44070FFF78FFCA820FFF784FF49
:101120004FF4E13000F086FEFFF728FCFFF7A0FB4C
:101130000648012100238022CDE9001004A10748C0
:1011400001F042FD01F032F900201CBD000000203A
:1011500053746172745461736B0000009D0C00083D
:101160002DE9F04105460E461C4807681C480068FA
:10117000001D00F0B5FE50B91948006890F82C1019
:101180000120884017490968814316480160681C9E
:1011900038B936B112480168091D134800F0DEFE67
:1011A0001AE07C190E4800684460BC4207D20C4823
:1011B0000168091D0D48006800F0B6FE0CE0084803
:1011C0000168091D0A48006800F0AEFE0948006881
:1011D000844201D207480460BDE8F0815C00002031
:1011E0004800002060000020800200205000002005
:1011F0004C0000207800002010B5044600F0BAFE34
:1012000024480068401C234908602348006840B90E
:10121000214804600846006801280DD100F004FA56
:101220000AE01E48006838B91B480068C06AE16AD5
:10123000884201D81848046019480068401C1849C1
:10124000086008460068206494F82C10012088404B
:1012500014490968084313490860E16A01EB8101F8
:10126000114A02EB8100211D00F078FE00F0ACFE77
:101270000A48006868B108480068C06AE16A8842A4
:1012800007D24FF0805009490860BFF34F8FBFF37A
:101290006F8F10BD5800002048000020640000201F
:1012A0007400002060000020CC01002004ED00E06C
:1012B00010B500F05FFE10480068D0B90F4800F08C
:1012C00023FE0F4800F020FE0C480E4908600C4831
:1012D0000D49086000220C210A2001F0B3F90649EB
:1012E00008600846006820B108A10348006800F0C3
:1012F0002BFF00F069FE10BD8C000020940200203E
:10130000A80200208400002088000020546D725143
:101310000000000010B516E000F02CFE0C48C0687C
:10132000C468201D00F0DCFD0A480068401E094921
:10133000086009480068401E0749086000F044FE44
:10134000204600F05FF8044800680028E4D110BD92
:101350006C020020580000205400002070B50446A4
:101360000D46206C70B1216CE0680144E160D4E965
:101370000210884201D32168E1602846226CE168AE
:10138000FFF754F870BD2DE9F04104460F461546AD
:101390004FF00008A66B206C48B9206800282CD1BB
:1013A000A06801F0FBFC80460020A06025E07DB92C
:1013B0003946226C6068FFF739F8216C6068084490
:1013C0006060D4E90101884217D32068606014E0AE
:1013D0003946226CE068FFF729F8216CE068411A71
:1013E000E1602168E068884203D2216CA068411A5C
:1013F000E160022D01D106B1761E701CA06340464B
:10140000BDE8F08110B50446206B00F0FBFD2046DE
:1014100000F0F8FD10BD00000146084A126812688D
:101420000AB9012200E000220A600A6822B9034AD0
:101430001268D268106800E0002070478400002025
:1014400030B54FF49633174800F007042CB1C01D97
:1014500020F00700134C041B1B1B0246124C226099
:101460000024114D6C60D018083820F007000F4C94
:10147000206000240D4D2D686C600C4D2D682C6093
:101480001146441A4C60094C24680C60084D4C68A5
:101490002C60084D4C682C604FF00044064D2C60C9
:1014A00030BD0000BC020020A4000020AC000020E1
:1014B000B4000020B0000020C000002000BFFFF7F3
:1014C00029FF064800680128F9D94FF080500449E7
:1014D0000860BFF34F8FBFF36F8FF0E7CC010020A0
:1014E00004ED00E02DE9F04106460D46174698460A
:1014F000069C0DB9246000E02760E66325640121A5
:10150000204601F0C9F884F84C80BDE8F0812DE94F
:10151000F05F82460E4690469B460A9F0C9C4FEA1F
:101520008801A522206BFEF7C6FFA8F10100216B00
:1015300001EB800929F0070909F0070008B901202B
:1015400000E0002050B900BF502080F31188BFF3A5
:101550004F8FBFF36F8F00BF00BFFEE786B100253E
:1015600007E0715D04F134004155705D00B902E09F
:101570006D1C0A2DF5D300BF00213D20015502E06E
:10158000002084F83400052F00D30427E762A76405
:101590000020E064201D00F0C4FC04F1180000F0FD
:1015A000C0FC2461C7F10500A061646200202065D1
:1015B00084F854005A465146484600F089FB2060A2
:1015C0000B9808B10B980460BDE8F09F2DE9F04737
:1015D00006460D4617469846DDE908940DB10120F0
:1015E00000E0002050B900BF502080F31188BFF305
:1015F0004F8FBFF36F8F00BF00BFFEE78CB1FFF7C7
:1016000057FE2660A561C4F81C80C4F82090201DF8
:1016100000F087FC2FB194F8280040F0040084F813
:101620002800BDE8F087000010B5002407E004EBB7
:1016300084010F4A02EB810000F066FC641C052C5B
:10164000F5D30C4800F060FC0B4800F05DFC0B4843
:1016500000F05AFC0A4800F057FC0A4800F054FC1D
:1016600004480949086004480849086010BD0000A2
:10167000CC0100203002002044020020580200204B
:101680006C020020800200204C000020500000204E
:1016900010B50146164800E0006803688B42FBD392
:1016A0000246436813448B4204D143684C68234488
:1016B000436001460A464B6813440468A34211D1B3
:1016C0000C4C03682468A34208D04B680468646823
:1016D00023444B6003681B680B6005E0054B1B68E7
:1016E0000B6001E003680B60884200D0016010BD10
:1016F000A4000020AC0000202DE9F04104460D4676
:1017000016461F464FF0000865602461B5420CD8AC
:10171000F01BA169884202D34FF0010811E0211D9E
:101720000948006800F000FC0BE0BE4204D2BD4254
:1017300002D34FF0010804E0211D0448006800F0C6
:10174000F3FB4046BDE8F0818800002084000020C3
:1017500070B5054600F00EFCA86B08B9012400E046
:10176000002400F031FC204670BD70B5054600F045
:1017700001FCA86BE96B884201D1012400E0002440
:1017800000F022FC204670BDF8B505460F461A4809
:101790000068C068C468201D00F0A2FB94F828000F
:1017A00000F00400E8B1A06941192B463A462046F2
:1017B000FFF7A2FFD8B1002003462A460146009059
:1017C000204601F065FC064656B900BF502080F364
:1017D0001188BFF34F8FBFF36F8F00BF00BFFEE7CD
:1017E00005E094F8280020F0010084F82800204645
:1017F000216A8847F8BD00008400002070B586B0DB
:101800008BE003980028FBDB059C606908B9012088
:1018100000E0002010B9201D00F062FB02A800F0DB
:10182000DDF8054603980A2875D2DFE800F00905BF
:101830000739416306083A4200BF00BF00BF00BF3E
:1018400094F8280040F0010084F828000498A26968
:10185000811803462A462046FFF74EFFF8B120467E
:10186000216A884794F8280000F00400B8B10020ED
:1018700000900498A169421800231946204601F0FF
:1018800007FC064656B900BF502080F31188BFF30D
:101890004F8FBFF36F8F00BF00BFFEE700BF3BE07D
:1018A00000BF94F8280020F0010084F8280033E0FD
:1018B00000BF94F8280040F0010084F82800049844
:1018C000A061A06908B1012000E0002050B900BF6C
:1018D000502080F31188BFF34F8FBFF36F8F00BF8D
:1018E00000BFFEE7A06941192B462A462046FFF7B4
:1018F00003FF11E094F8280000F0020018B9204618
:1019000000F080FB05E094F8280020F0010084F846
:10191000280001E0FFE700BF00BF002203A9044840
:10192000006801F057F800287FF46BAF06B070BD77
:101930008C000020F8B505460C4600F081FD684695
:1019400000F04CF80646009820BB44B9B54206D8D2
:1019500001F0D4FA31462846FFF716FF1CE03CB1EF
:101960000E480068006808B9012000E00020044625
:10197000A91B22460A48006800F0FCFB01F0BEFAF1
:1019800050B94FF0805007490860BFF34F8FBFF345
:101990006F8F01E001F0B2FAF8BD0000880000206E
:1019A0008C00002004ED00E00A490968096809B9C3
:1019B000012100E0002121B14FF0FF31064A116002
:1019C00006E004490968C968C868034A41681160AB
:1019D000704700004C0000207800002070B50446DD
:1019E00001F032F9054607480068854204D200F04C
:1019F0000BF80120206001E0002020600148056014
:101A0000284670BD940000202DE9F84334E02548B5
:101A10000068C068056823480068C068C468201D65
:101A200000F05EFA2046216A884794F8280000F00A
:101A3000040008B3A0694619AE4207D96660246164
:101A4000211D1848006800F06FFA15E000200346D9
:101A50002A4601460090204601F01AFB074657B976
:101A600000BF502080F31188BFF34F8FBFF36F8FFB
:101A700000BF00BFFEE700BF0A480068006808B961
:101A8000012000E000200028C1D00648D0F80080E6
:101A900005480068034908600348C0F80080BDE8B5
:101AA000F883000084000020880000200E480068B1
:101AB000401C08B9012000E0002050B900BF5020B0
:101AC00080F31188BFF34F8FBFF36F8F00BF00BF4C
:101AD000FEE700BF502080F31188BFF34F8FBFF3A4
:101AE0006F8F00BF00BFFEE79800002008B500BF61
:101AF0006846FFF791FC044620460099FFF71AFF5D
:101B0000FFF77CFEF4E770B5044600F033FA94F971
:101B1000455010E0606A08B9012000E0002038B9A3
:101B200004F1240001F09EF918B100F0FDFB00E083
:101B300003E0681E45B2002DECDC00BFFF2084F8F6
:101B4000450000F041FA00F015FA94F9445010E015
:101B5000206908B9012000E0002048B904F1100014
:101B600001F080F908B100F0DFFB681E45B200E02B
:101B700001E0002DECDC00BFFF2084F8440000F001
:101B800023FA70BD2DE9F04104464FF0000800F043
:101B900057FC4948006808B9FFF752FC47480068FD
:101BA0002040002870D1D4B1083404F00700B0B14F
:101BB00004F00700C0F10800044404F0070008B96D
:101BC000012000E0002050B900BF502080F31188B0
:101BD000BFF34F8FBFF36F8F00BF00BFFEE7002C36
:101BE00052D03748006884424ED8364E3046056899
:101BF00001E02E462D686868A04202D228680028BD
:101C0000F7D12D48006885423ED0306800F10808C1
:101C1000286830606868001B102819D92F1907F050
:101C2000070008B9012000E0002050B900BF502093
:101C300080F31188BFF34F8FBFF36F8F00BF00BFDA
:101C4000FEE76868001B78606C603846FFF720FD8F
:101C50001B4968680968081A19490860084600683D
:101C600019490968884203D2154800681649086076
:101C700012496868096808436860002028601348B2
:101C80000068401C1149086001F038F908F00700AD
:101C900008B9012000E0002050B900BF502080F3B7
:101CA0001188BFF34F8FBFF36F8F00BF00BFFEE7F8
:101CB0004046BDE8F0810000AC000020C0000020DC
:101CC000B0000020A4000020B4000020B8000020D4
:101CD000001F4FF080730360001F21F001030360B9
:101CE000001F054B036014380260001F6FF00203F1
:101CF0000360203870470000AD1A000808B54CE0BA
:101D00000020FEF7D7FD0446012C19D0022C2DD05F
:101D1000042C3ED100F098FF0646002003463246D0
:101D2000012100901D48006801F0B2F905461DB977
:101D30001BA0FEF7FFFA02E01FA0FEF7FBFA28E067
:101D400000F082FF06460020034632460121009043
:101D50001F48006801F09CF905461DB91DA0FEF75B
:101D6000E9FA02E021A0FEF7E5FA12E000200346BE
:101D70000246032100900948006801F089F90546F0
:101D80001DB920A0FEF7D6FA02E024A0FEF7D2FA91
:101D900000BF00BF0A2000F013FAB1E708000020DE
:101DA000D6DCC6DAD0D4B6A8CAB1C6F7BFAAC6F484
:101DB000CAA7B0DC0D0A0000D6DCC6DAD0D4B6A8BB
:101DC000CAB1C6F7BFAAC6F4B3C9B9A60D0A0000C6
:101DD0000C000020B5A5B4CEB6A8CAB1C6F7BFAAFC
:101DE000C6F4CAA7B0DC0D0A00000000B5A5B4CE49
:101DF000D0D4B6A8CAB1C6F7BFAAC6F4B3C9B9A6AB
:101E00000D0A0000D6DCC6DAD0D4B6A8CAB1C6F72F
:101E1000B9D8B1D5CAA7B0DC0D0A0000D6DCC6DA45
:101E2000D0D4B6A8CAB1C6F7B9D8B1D5B3C9B9A686
:101E30000D0A000010B588B0044601210846FEF7DF
:101E400023FE01211020FEF72FFE07220921224840
:101E5000FEF7DDFC07220A211F48FEF7D8FC4FF4ED
:101E6000C060069002208DF81C008DF81D00002037
:101E70008DF81E0001208DF81F0006A91648FEF7F8
:101E80007EFC02940020ADF80C00ADF80E00ADF819
:101E90001000ADF814000C20ADF8120002A90F4894
:101EA000FFF74EF801210D48FEF7EEFF012240F248
:101EB00025510A48FFF71EF825208DF8040003205D
:101EC0008DF805008DF8060001208DF8070001A8A7
:101ED000FEF776FD08B010BD000002400010014082
:101EE00001460A69D1E901309860D1E901035860DF
:101EF0005068884201D188685060002008611068ED
:101F0000401E10601068704700F1080141604FF0FA
:101F1000FF31816000F10801C160016100210160B1
:101F2000704700210161704710B502460B685C1CC8
:101F30000CB9106907E002F1080000E0406844684D
:101F400024689C42FAD944684C604C68A16088605F
:101F500041600A611468641C146010BD42684A60E4
:101F600093688B60936859609160086103685B1C9B
:101F70000360704700BF502080F31188BFF34F8F7C
:101F8000BFF36F8F00BF0E480068401C0C4908600B
:101F900008460068012812D10A480068C0B208B992
:101FA000012000E0002050B900BF502080F31188CC
:101FB000BFF34F8FBFF36F8F00BF00BFFEE77047C7
:101FC0009800002004ED00E00D48006850B900BF03
:101FD000502080F31188BFF34F8FBFF36F8F00BF86
:101FE00000BFFEE706480068401E05490860084635
:101FF000006820B9002080F3118800BF00BF70473F
:102000009800002070B506463546002E44D0083DA5
:102010002C46224960680968084008B1012000E0A8
:10202000002050B900BF502080F31188BFF34F8FBC
:10203000BFF36F8F00BF00BFFEE7206808B9012023
:1020400000E0002050B900BF502080F31188BFF39A
:102050004F8FBFF36F8F00BF00BFFEE70F4960686F
:1020600009680840C0B12068B0B90C4960680968C7
:102070008843606000F0E4F9094960680968084431
:10208000074908602046FFF703FB06480068401C2C
:102090000449086000F032FF70BD0000C00000205D
:1020A000B0000020BC00002000204FF0E0210861BB
:1020B0008861064800684FF47A71B0FBF1F0401E69
:1020C0004FF0E021486107200861704714000020AC
:1020D00070B5FEF709F90446102C16D304F1E02080
:1020E00090F8F05315480078854201DB012000E0AC
:1020F000002050B900BF502080F31188BFF34F8FEC
:10210000BFF36F8F00BF00BFFEE70D48006800F40B
:10211000E0600C490968884201D8012000E00020F5
:1021200050B900BF502080F31188BFF34F8FBFF329
:102130006F8F00BF00BFFEE770BD00009C00002055
:102140000CED00E0A0000020024600200BE0084B50
:1021500053F8303033B9064B43F8301003EBC0036B
:102160005A6002E0401C0828F1D300BF704700000D
:102170008C0100202DE9F04105460E4617462C46FD
:10218000FFF7F8FE94F94400401C10B9002084F8D1
:10219000440094F94500401C10B9002084F8450023
:1021A000FFF712FFA06B28B93A46314604F124002C
:1021B00000F0DCF82046FFF7A6FCBDE8F081000047
:1021C00070B504460025D4B11248006808B9012052
:1021D00000E0002050B900BF502080F31188BFF309
:1021E0004F8FBFF36F8F00BF00BFFEE700F028F9ED
:1021F00000212046FEF7B4FF00F080FE05463DB901
:102200004FF0805004490860BFF34F8FBFF36F8FCA
:1022100070BD00008000002004ED00E070B50546B0
:10222000FFF7A8FE15B93048006800E028460446CC
:10223000201DFFF755FE78B9E06A00EB80002B49BE
:1022400051F8200040B994F82C100120884028490A
:102250000968814326480160A06A18B104F118009A
:10226000FFF73EFE23480068401C224908601E48D4
:102270000068844209D1211D1F48FFF76FFE1F48E7
:102280000068401C1D49086009E01D480068401EA8
:102290001B4908602046FFF7B5F8FFF785FBFFF7FD
:1022A00093FE18480068E8B10F480068844219D1CD
:1022B0001548006808B9012000E0002050B900BFAF
:1022C000502080F31188BFF34F8FBFF36F8F00BF93
:1022D00000BFFEE74FF080500C490860BFF34F8FFE
:1022E000BFF36F8F70BD000048000020CC010020BC
:1022F00060000020740000206C02002054000020C8
:1023000058000020640000208000002004ED00E060
:10231000034909680160034909684160704700008A
:10232000700000205C000020012001490860704717
:102330006C00002070B504460D4654B900BF502013
:1023400080F31188BFF34F8FBFF36F8F00BF00BFC3
:10235000FEE70548016818312046FFF7E5FD012139
:102360002846FEF7FDFE70BD4800002070B505460A
:102370000E46144655B900BF502080F31188BFF3B4
:102380004F8FBFF36F8F00BF00BFFEE706480168A5
:1023900018312846FFF7E2FD0CB14FF0FF36214619
:1023A0003046FEF7DDFE70BD480000201CB51D481C
:1023B00000210B468222CDE900101BA11C4800F031
:1023C00003FC0446012C02D100F036FE0446012C29
:1023D00015D100BF502080F31188BFF34F8FBFF39A
:1023E0006F8F00BF4FF0FF30124908600120124983
:1023F000086000201149086000F070F810E0601CCF
:1024000008B1012000E0002050B900BF502080F347
:102410001188BFF34F8FBFF36F8F00BF00BFFEE780
:102420001CBD00007C00002049444C450000000019
:10243000BD14000878000020640000205C0000202B
:1024400002480068401C0149086070478000002075
:102450001D48006818B101201C49086032E00020C6
:102460001A4908601A480068B0FA80F0C0F11F01EC
:1024700001EB8100174A52F8200008B1012000E06A
:10248000002050B900BF502080F31188BFF34F8F58
:10249000BFF36F8F00BF00BFFEE701EB81020D4B62
:1024A00003EB820042685268426000F10802436810
:1024B000934202D14268526842604268D268064B39
:1024C0001A6000BF70470000800000206C000020F0
:1024D00060000020CC010020480000201CB55248BC
:1024E00000685249884201D0012000E0002050B924
:1024F00000BF502080F31188BFF34F8FBFF36F8F61
:1025000000BF00BFFEE7484800684849491E8842AE
:1025100001D0012000E0002050B900BF502080F31E
:102520001188BFF34F8FBFF36F8F00BF00BFFEE76F
:102530003F49084600780190FF200A46107008467F
:10254000007800909DF8000000F0F0009DF8002059
:10255000904201D1012000E0002050B900BF50207E
:1025600080F31188BFF34F8FBFF36F8F00BF00BFA1
:10257000FEE79DF8000000F050002E4A1070072082
:102580002D4A106009E02C480068401E2A4A10605D
:102590009DF800004006000E00909DF8000000F03D
:1025A00080008028EFD024480068C0F1070004288C
:1025B00001D1012000E0002050B900BF502080F37D
:1025C0001188BFF34F8FBFF36F8F00BF00BFFEE7CF
:1025D000194800680002184A10601046008800F48C
:1025E000E0601060124A019810700F4820300068B7
:1025F00040F470000C49203108600846006840F043
:1026000070400860FFF750FD00200C490860FDF79E
:1026100033FE0B48006840F0404009490860FDF770
:1026200017FE00201CBD000000ED00E071C20F414C
:1026300000E400E09C000020A000002098000020A2
:1026400034EF00E02DE9F84305460E4617460DB17C
:10265000012000E0002050B900BF502080F3118815
:10266000BFF34F8FBFF36F8F00BF00BFFEE705FBC7
:1026700006F808F15000FFF785FA04464CB1A14670
:1026800009F150093B464A46314628460094FEF778
:1026900029FF2046BDE8F88370B505460E462C4656
:1026A00054B900BF502080F31188BFF34F8FBFF3A0
:1026B0006F8F00BF00BFFEE7FFF75CFCD4E90F128D
:1026C000206801FB0200A0600020A0632068606019
:1026D000E06B401E226C216800FB0211E160FF20CC
:1026E00084F8440084F845009EB9206908B90120A7
:1026F00000E00020A8B904F1100000F0B3FB80B1A5
:102700004FF0805009490860BFF34F8FBFF36F8FC0
:1027100007E004F11000FFF7F7FB04F12400FFF7D6
:10272000F3FBFFF751FC012070BD000004ED00E059
:102730002DE9FF4383B0064688461D464FF0000949
:10274000344654B900BF502080F31188BFF34F8F37
:10275000BFF36F8F00BF00BFFEE7B8F1000F01D1DC
:10276000206C08B9012000E0002050B900BF5020C3
:1027700080F31188BFF34F8FBFF36F8F00BF00BF8F
:10278000FEE7022D02D1E06B012801D1012000E01B
:10279000002050B900BF502080F31188BFF34F8F45
:1027A000BFF36F8F00BF00BFFEE700F03DFA08B92E
:1027B000059808B9012000E0002050B900BF502062
:1027C00080F31188BFF34F8FBFF36F8F00BF00BF3F
:1027D000FEE700BFFFF7CEFBA06BE16B884201D3A1
:1027E000022D28D12A4641462046FEF7CCFD074659
:1027F000606A08B9012000E0002068B904F12400F3
:1028000000F030FB88B14FF0805032490860BFF3D0
:102810004F8FBFF36F8F08E03FB14FF080502D49CD
:102820000860BFF34F8FBFF36F8FFFF7CDFB012021
:1028300007B0BDE8F083059818B9FFF7C5FB002085
:10284000F6E7B9F1000F04D101A8FFF761FD4FF0E1
:102850000109FFF7B9FBFFF7F3FDFFF78BFB94F9D5
:102860004400401C10B9002084F8440094F945004D
:10287000401C10B9002084F84500FFF7A5FB05A90E
:1028800001A800F05BF9F0B92046FEF76EFFA0B199
:1028900004F110000599FFF74DFD2046FFF733F9CD
:1028A00000F02CFB002895D14FF0805009490860BA
:1028B000BFF34F8FBFF36F8F8CE72046FFF723F9ED
:1028C00000F01CFB86E72046FFF71DF900F016FB21
:1028D0000020ADE704ED00E02DE9F84F07468A46F9
:1028E00090461E463C4654B900BF502080F31188E4
:1028F000BFF34F8FBFF36F8F00BF00BFFEE7BAF18A
:10290000000F01D1206C08B9012000E0002050B96F
:1029100000BF502080F31188BFF34F8FBFF36F8F3C
:1029200000BF00BFFEE7022E02D1E06B012801D1FB
:10293000012000E0002050B900BF502080F3118832
:10294000BFF34F8FBFF36F8F00BF00BFFEE7FFF7EE
:10295000BFFB00BF5021EFF3118081F31188BFF35B
:102960004F8FBFF36F8F00BF0546A06BE16B8842AE
:1029700001D3022E25D194F945B0A06B00903246C8
:1029800051462046FEF7FFFC0BF1010088B9606A52
:1029900008B9012000E0002050B904F1240000F043
:1029A00061FA28B1B8F1000F02D00120C8F8000088
:1029B00004E00BF1010040B284F845004FF001093A
:1029C00001E04FF0000900BF85F3118800BF4846C1
:1029D000BDE8F88F2DE9F74183B005460E464FF06C
:1029E00000082C4654B900BF502080F31188BFF373
:1029F0004F8FBFF36F8F00BF00BFFEE70EB9206C93
:102A000008B9012000E0002050B900BF502080F339
:102A10001188BFF34F8FBFF36F8F00BF00BFFEE77A
:102A200000F002F908B9059808B9012000E000207B
:102A300050B900BF502080F31188BFF34F8FBFF310
:102A40006F8F00BF00BFFEE700BFFFF793FAA76BD1
:102A5000F7B131462046FEF781FC781EA06320695D
:102A600008B9012000E0002060B904F1100000F076
:102A7000F9F938B14FF080502F490860BFF34F8FFC
:102A8000BFF36F8FFFF7A0FA012006B0BDE8F08119
:102A9000059818B9FFF798FA0020F6E7B8F1000F8B
:102AA00004D101A8FFF734FC4FF00108FFF78CFABE
:102AB000FFF7C6FCFFF75EFA94F94400401C10B91A
:102AC000002084F8440094F94500401C10B900200F
:102AD00084F84500FFF778FA05A901A800F02EF860
:102AE000F0B92046FEF734FEA0B104F124000599A8
:102AF000FFF720FC2046FFF706F800F0FFF900285A
:102B0000A3D14FF080500C490860BFF34F8FBFF343
:102B10006F8F9AE72046FEF7F6FF00F0EFF994E793
:102B20002046FEF7F0FF00F0E9F92046FEF710FE20
:102B300000288AD00020A8E704ED00E070B5054623
:102B40000C4655B900BF502080F31188BFF34F8F5A
:102B5000BFF36F8F00BF00BFFEE754B900BF502026
:102B600080F31188BFF34F8FBFF36F8F00BF00BF9B
:102B7000FEE7FFF7FFF9124802686868131A206839
:102B8000401C08B9002617E00E49286809688842E9
:102B900004D06868904201D801260DE02068984270
:102BA00007D92068C01A20602846FFF7B1FB00262D
:102BB00002E0002020600126FFF706FA304670BDD3
:102BC0005C000020700000202DE9FF4F85B080469A
:102BD00089461746DDE912ABB800FEF7D3FF06467B
:102BE00056B15820FEF7CEFF04460CB1266304E030
:102BF0003046FFF707FA00E000247CB10020CDE961
:102C000000ABCDE902403A4649464046089BFEF7F4
:102C10007EFC2046FEF7F0FA012501E04FF0FF357B
:102C2000284609B0BDE8F08F0549096809B90120B7
:102C300005E00449096809B9022000E00020704756
:102C400064000020800000200149086870470000EF
:102C50005C0000202DE9F0414FF000084448006876
:102C600000287CD143480068451C4248056015BBDC
:102C700041480068006808B9012000E0002050B910
:102C800000BF502080F31188BFF34F8FBFF36F8FC9
:102C900000BF00BFFEE7384807683848006836497B
:102CA00008603648076036480068401C34490860B0
:102CB000FEF77AFE00BF3348006885423CD300BF70
:102CC0002D480068006808B9012000E0002020B10C
:102CD0004FF0FF302B4908602DE027480068C0689E
:102CE000C4686668B54202D22648066023E0201D0B
:102CF000FFF7F6F8A06A18B104F11800FFF7F0F832
:102D000094F82C10012088401F49096808431E4987
:102D10000860E16A01EB81011C4A02EB8100211D80
:102D2000FFF71CF91A49E06A0968C96A8842C7D3E3
:102D30004FF00108C4E700BF15480068C06A00EB07
:102D40008000124951F82000012801D94FF00108F4
:102D50001048006808B14FF0010805E0FFE70E4891
:102D60000068401C0C4908604046BDE8F081000046
:102D7000800000205C0000204C000020500000205B
:102D8000700000207800002060000020CC010020AE
:102D9000480000206C0000206800002070B5054647
:102DA0002C460026002D55D02B480068844201D1C6
:102DB000012000E0002050B900BF502080F31188AE
:102DC000BFF34F8FBFF36F8F00BF00BFFEE7E06C14
:102DD00050B900BF502080F31188BFF34F8FBFF36D
:102DE0006F8F00BF00BFFEE7E06C401EE064A16C87
:102DF000E06A88422ED0E06C60BB201DFFF770F8BF
:102E000078B9E06A00EB8000144951F8200040B91D
:102E100094F82C100120884011490968814310481A
:102E20000160A06CE062E06AC0F10500A06194F866
:102E30002C10012088400A490968084308490860A5
:102E4000E16A01EB8101054A02EB8100211DFFF7D8
:102E500085F80126304670BD48000020CC010020D6
:102E60006000002070B50646F068C46854B900BF21
:102E7000502080F31188BFF34F8FBFF36F8F00BFD7
:102E800000BFFEE704F11800FFF72AF815480068B4
:102E9000A8B9201DFFF724F894F82C1001208840D1
:102EA00011490968084310490860E16A01EB810192
:102EB0000E4A02EB8100211DFFF750F804E004F1F7
:102EC00018010B48FFF74AF80A49E06A0968C96A1D
:102ED000884204D9012501200749086000E0002547
:102EE000284670BD8000002060000020CC0100203A
:102EF00058020020480000206C00002070B500241B
:102F000000263648006850B900BF502080F3118871
:102F1000BFF34F8FBFF36F8F00BF00BFFEE7FFF718
:102F200029F82E480068401E2C49086008460068B1
:102F300000284FD12A48006800284BD024E02948B7
:102F4000C068C46804F11800FEF7CAFF201DFEF730
:102F5000C7FF94F82C1001208840234909680843D2
:102F600021490860E16A01EB8101204A02EB8100FE
:102F7000211DFEF7F3FF1E49E06A0968C96A88420D
:102F800002D301201B4908601648006808B90120D7
:102F900000E000200028D2D00CB1FEF705FD164855
:102FA000056865B100BFFFF755FE10B1012011495A
:102FB00008606D1E002DF6D100200F4908600D48F5
:102FC000006838B1012630070C490860BFF34F8F05
:102FD000BFF36F8FFEF7F8FF304670BD8000002012
:102FE000580000205802002060000020CC01002082
:102FF000480000206C0000206800002004ED00E084
:103000002DE9FC4705460E4617469846DDF8289000
:103010002C20FEF7B7FD044654B1002084F82800A8
:1030200043463A4631462846CDE90094FEF7CEFAAB
:103030002046BDE8FC8700001CB50024FEF738F9E7
:103040000E48006858B10E48022100234FF48272E6
:10305000CDE900100BA10D48FFF7B6FD044654B9A9
:1030600000BF502080F31188BFF34F8FBFF36F8FE5
:1030700000BF00BFFEE720461CBD00008C00002002
:1030800090000020546D722053766300ED1A000802
:103090002DE9FE4304460D4616461F46DDF82880FE
:1030A0004FF0000954B900BF502080F31188BFF3DE
:1030B0004F8FBFF36F8F00BF00BFFEE7144800685B
:1030C00010B3009501960294062D15DAFFF7ACFDBA
:1030D000022808D10023424669460D480068FFF7E0
:1030E00027FB814610E000231A466946084800681D
:1030F000FFF71EFB814607E000233A466946044875
:103100000068FFF7E9FB81464846BDE8FE83000002
:103110008C0000204FF04070E1EE100A7047000074
:103120004031000800000020C4000000C401000875
:1031300004320008C40000205C340100E0010008F3
:10314000000000000000000000000000000000007F
:1031500000000000007A030A0000000000000000E8
:103160000102030406070809010000000000000036
:103170000000000000000000000001020304010242
:10318000030406070809000000000000000000001A
:10319000000000000000000000000000000000002F
:1031A000000000000000000000000000000000001F
:1031B000000000000000000000000000000000000F
:1031C00000000000000000000000000000000000FF
:1031D0000000000000000000AAAAAAAA0000000047
:1031E00000000000000000000000000000000000DF
:1031F00000000000000000000000000000000000CF
:0432000000000000CA
:040000050800018965
:00000001FF
